{
  "_format": "hh-sol-artifact-1",
  "contractName": "BetGameFactory",
  "sourceName": "contracts/common/BetGameFactory.sol",
  "abi": [
    {
      "inputs": [],
      "stateMutability": "nonpayable",
      "type": "constructor"
    },
    {
      "inputs": [
        {
          "internalType": "address",
          "name": "owner",
          "type": "address"
        }
      ],
      "name": "OwnableInvalidOwner",
      "type": "error"
    },
    {
      "inputs": [
        {
          "internalType": "address",
          "name": "account",
          "type": "address"
        }
      ],
      "name": "OwnableUnauthorizedAccount",
      "type": "error"
    },
    {
      "anonymous": false,
      "inputs": [
        {
          "indexed": false,
          "internalType": "address",
          "name": "addr",
          "type": "address"
        },
        {
          "indexed": false,
          "internalType": "address",
          "name": "staking",
          "type": "address"
        },
        {
          "indexed": false,
          "internalType": "string",
          "name": "playType",
          "type": "string"
        },
        {
          "indexed": false,
          "internalType": "string",
          "name": "name",
          "type": "string"
        }
      ],
      "name": "GameAdded",
      "type": "event"
    },
    {
      "anonymous": false,
      "inputs": [
        {
          "indexed": false,
          "internalType": "address",
          "name": "addr",
          "type": "address"
        },
        {
          "indexed": false,
          "internalType": "address",
          "name": "staking",
          "type": "address"
        },
        {
          "indexed": false,
          "internalType": "string",
          "name": "playType",
          "type": "string"
        },
        {
          "indexed": false,
          "internalType": "string",
          "name": "name",
          "type": "string"
        }
      ],
      "name": "GameEdited",
      "type": "event"
    },
    {
      "anonymous": false,
      "inputs": [
        {
          "indexed": true,
          "internalType": "address",
          "name": "previousOwner",
          "type": "address"
        },
        {
          "indexed": true,
          "internalType": "address",
          "name": "newOwner",
          "type": "address"
        }
      ],
      "name": "OwnershipTransferred",
      "type": "event"
    },
    {
      "inputs": [
        {
          "internalType": "address",
          "name": "addr",
          "type": "address"
        },
        {
          "internalType": "address",
          "name": "staking",
          "type": "address"
        },
        {
          "internalType": "string",
          "name": "playType",
          "type": "string"
        },
        {
          "internalType": "string",
          "name": "name",
          "type": "string"
        }
      ],
      "name": "add",
      "outputs": [],
      "stateMutability": "nonpayable",
      "type": "function"
    },
    {
      "inputs": [
        {
          "internalType": "address",
          "name": "",
          "type": "address"
        }
      ],
      "name": "games",
      "outputs": [
        {
          "internalType": "string",
          "name": "playType",
          "type": "string"
        },
        {
          "internalType": "string",
          "name": "name",
          "type": "string"
        },
        {
          "internalType": "address",
          "name": "staking",
          "type": "address"
        }
      ],
      "stateMutability": "view",
      "type": "function"
    },
    {
      "inputs": [],
      "name": "owner",
      "outputs": [
        {
          "internalType": "address",
          "name": "",
          "type": "address"
        }
      ],
      "stateMutability": "view",
      "type": "function"
    },
    {
      "inputs": [],
      "name": "renounceOwnership",
      "outputs": [],
      "stateMutability": "nonpayable",
      "type": "function"
    },
    {
      "inputs": [
        {
          "internalType": "address",
          "name": "addr",
          "type": "address"
        },
        {
          "internalType": "address",
          "name": "staking",
          "type": "address"
        },
        {
          "internalType": "string",
          "name": "playType",
          "type": "string"
        },
        {
          "internalType": "string",
          "name": "name",
          "type": "string"
        }
      ],
      "name": "set",
      "outputs": [],
      "stateMutability": "nonpayable",
      "type": "function"
    },
    {
      "inputs": [
        {
          "internalType": "address",
          "name": "newOwner",
          "type": "address"
        }
      ],
      "name": "transferOwnership",
      "outputs": [],
      "stateMutability": "nonpayable",
      "type": "function"
    }
  ],
  "bytecode": "0x608060405234801561005d5760405162461bcd60e51b815260206004820152602260248201527f45746865722073656e7420746f206e6f6e2d70617961626c652066756e637469604482019081526137b760f11b6064830152608482fd5b50338061008457604051631e4fbdf760e01b81526000600482015260240160405180910390fd5b61008d81610093565b506100e3565b600080546001600160a01b038381166001600160a01b0319831681178455604051919092169283917f8be0079c531659141344cd1fd0a4f28419497f9722a3daafe3b4186f6b6457e09190a35050565b610bc3806100f26000396000f3fe608060405234801561005d5760405162461bcd60e51b815260206004820152602260248201527f45746865722073656e7420746f206e6f6e2d70617961626c652066756e637469604482019081526137b760f11b6064830152608482fd5b50600436106100af5760003560e01c8063715018a61461011457806379131a191461011e5780638da5cb5b1461014957806392be2a8914610164578063f2fde38b14610177578063f60f9ccb1461018a575b60405162461bcd60e51b815260206004820152603560248201527f436f6e747261637420646f6573206e6f7420686176652066616c6c6261636b2060448201908152746e6f7220726563656976652066756e6374696f6e7360581b6064830152608482fd5b61011c61019d565b005b61013161012c366004610728565b6101b1565b60405161014093929190610793565b60405180910390f35b6000546040516001600160a01b039091168152602001610140565b61011c61017236600461091e565b6102ec565b61011c610185366004610728565b610488565b61011c61019836600461091e565b6104c6565b6101a56105ef565b6101af600061061c565b565b6001602052600090815260409020805481906101cc906109b8565b80601f01602080910402602001604051908101604052809291908181526020018280546101f8906109b8565b80156102455780601f1061021a57610100808354040283529160200191610245565b820191906000526020600020905b81548152906001019060200180831161022857829003601f168201915b50505050509080600101805461025a906109b8565b80601f0160208091040260200160405190810160405280929190818152602001828054610286906109b8565b80156102d35780601f106102a8576101008083540402835291602001916102d3565b820191906000526020600020905b8154815290600101906020018083116102b657829003601f168201915b505050600290930154919250506001600160a01b031683565b6102f46105ef565b6001600160a01b03861660009081526001602052604090208054610317906109b8565b1590506103575760405162461bcd60e51b81526020600482015260096024820152684475706c696361746560b81b60448201526064015b60405180910390fd5b604051806060016040528085858080601f016020809104026020016040519081016040528093929190818152602001838380828437600092019190915250505090825250604080516020601f86018190048102820181019092528481529181019190859085908190840183828082843760009201829052509385525050506001600160a01b0380891660209384015289168152600190915260409020815181906104019082610a57565b50602082015160018201906104169082610a57565b5060409182015160029190910180546001600160a01b0319166001600160a01b03909216919091179055517f472a19f5f23f03377465ec85ed0750c7b33cb96db2009f9ac31905c2f1d4c87c9061047890889088908890889088908890610b40565b60405180910390a1505050505050565b6104906105ef565b6001600160a01b0381166104ba57604051631e4fbdf760e01b81526000600482015260240161034e565b6104c38161061c565b50565b6104ce6105ef565b604051806060016040528085858080601f016020809104026020016040519081016040528093929190818152602001838380828437600092019190915250505090825250604080516020601f86018190048102820181019092528481529181019190859085908190840183828082843760009201829052509385525050506001600160a01b0380891660209384015289168152600190915260409020815181906105789082610a57565b506020820151600182019061058d9082610a57565b5060409182015160029190910180546001600160a01b0319166001600160a01b03909216919091179055517f3405e109ab8ab22efff1bbea1ec4fdb8359587cf04dbed75d735bb950381bdf19061047890889088908890889088908890610b40565b6000546001600160a01b031633146101af5760405163118cdaa760e01b815233600482015260240161034e565b600080546001600160a01b038381166001600160a01b0319831681178455604051919092169283917f8be0079c531659141344cd1fd0a4f28419497f9722a3daafe3b4186f6b6457e09190a35050565b60405162461bcd60e51b815260206004820152602260248201527f414249206465636f64696e673a207475706c65206461746120746f6f2073686f6044820152611c9d60f21b6064820152608481fd5b60405162461bcd60e51b815260206004820152602260248201527f414249206465636f64696e673a20696e76616c6964207475706c65206f666673604482015261195d60f21b6064820152608481fd5b80356001600160a01b038116811461072357600080fd5b919050565b60006020828403121561073d5761073d61066c565b6107468261070c565b9392505050565b6000815180845260005b8181101561077357602081850181015186830182015201610757565b506000602082860101526020601f19601f83011685010191505092915050565b6060815260006107a6606083018661074d565b82810360208401526107b8818661074d565b91505060018060a01b0383166040830152949350505050565b60405162461bcd60e51b815260206004820152602b60248201527f414249206465636f64696e673a20696e76616c69642063616c6c64617461206160448201526a727261792073747269646560a81b6064820152608481fd5b60008083601f8401126108905760405162461bcd60e51b815260206004820152602b60248201527f414249206465636f64696e673a20696e76616c69642063616c6c64617461206160448201526a1c9c985e481bd9999cd95d60aa1b6064820152608481fd5b50813567ffffffffffffffff8111156108fc5760405162461bcd60e51b815260206004820152602b60248201527f414249206465636f64696e673a20696e76616c69642063616c6c64617461206160448201526a0e4e4c2f240d8cadccee8d60ab1b6064820152608481fd5b602083019150836020828501011115610917576109176107d1565b9250929050565b6000806000806000806080878903121561093a5761093a61066c565b6109438761070c565b95506109516020880161070c565b9450604087013567ffffffffffffffff80821115610971576109716106bc565b61097d8a838b0161082a565b90965094506060890135915080821115610999576109996106bc565b506109a689828a0161082a565b979a9699509497509295939492505050565b600181811c908216806109cc57607f821691505b6020821081036109ec57634e487b7160e01b600052602260045260246000fd5b50919050565b634e487b7160e01b600052604160045260246000fd5b601f821115610a5257600081815260208120601f850160051c81016020861015610a2f5750805b601f850160051c820191505b81811015610a4e57828155600101610a3b565b5050505b505050565b815167ffffffffffffffff811115610a7157610a716109f2565b610a8581610a7f84546109b8565b84610a08565b602080601f831160018114610aba5760008415610aa25750858301515b600019600386901b1c1916600185901b178555610a4e565b600085815260208120601f198616915b82811015610ae957888601518255948401946001909101908401610aca565b5085821015610b075787850151600019600388901b60f8161c191681555b5050505050600190811b01905550565b81835281816020850137506000828201602090810191909152601f909101601f19169091010190565b6001600160a01b03878116825286166020820152608060408201819052600090610b6d9083018688610b17565b8281036060840152610b80818587610b17565b999850505050505050505056fea2646970667358221220a52cbf2bf4ed0ef2a8f72d431fc0261766fc0ca511ff42d00a4d2beac72231d564736f6c63430008140033",
  "linkReferences": {},
  "deployedLinkReferences": {}
}