{
  "_format": "hh-sol-artifact-1",
  "contractName": "CoinFlip",
  "sourceName": "contracts/flips/CoinFlip.sol",
  "abi": [
    {
      "inputs": [
        {
          "internalType": "uint256",
          "name": "_fee",
          "type": "uint256"
        },
        {
          "internalType": "uint256",
          "name": "_jackpotRate",
          "type": "uint256"
        },
        {
          "internalType": "uint256",
          "name": "_streakRate",
          "type": "uint256"
        },
        {
          "internalType": "uint256",
          "name": "_minBet",
          "type": "uint256"
        },
        {
          "internalType": "uint256",
          "name": "_maxBet",
          "type": "uint256"
        }
      ],
      "stateMutability": "nonpayable",
      "type": "constructor"
    },
    {
      "inputs": [
        {
          "internalType": "address",
          "name": "owner",
          "type": "address"
        }
      ],
      "name": "OwnableInvalidOwner",
      "type": "error"
    },
    {
      "inputs": [
        {
          "internalType": "address",
          "name": "account",
          "type": "address"
        }
      ],
      "name": "OwnableUnauthorizedAccount",
      "type": "error"
    },
    {
      "inputs": [],
      "name": "ReentrancyGuardReentrantCall",
      "type": "error"
    },
    {
      "anonymous": false,
      "inputs": [
        {
          "indexed": true,
          "internalType": "uint256",
          "name": "betId",
          "type": "uint256"
        },
        {
          "indexed": true,
          "internalType": "address",
          "name": "player",
          "type": "address"
        },
        {
          "indexed": false,
          "internalType": "uint256",
          "name": "betAmount",
          "type": "uint256"
        },
        {
          "indexed": false,
          "internalType": "string",
          "name": "note",
          "type": "string"
        }
      ],
      "name": "BetPlaced",
      "type": "event"
    },
    {
      "anonymous": false,
      "inputs": [
        {
          "indexed": true,
          "internalType": "uint256",
          "name": "betId",
          "type": "uint256"
        },
        {
          "indexed": true,
          "internalType": "address",
          "name": "player",
          "type": "address"
        },
        {
          "indexed": false,
          "internalType": "uint32[]",
          "name": "drawResults",
          "type": "uint32[]"
        },
        {
          "indexed": false,
          "internalType": "bool",
          "name": "won",
          "type": "bool"
        },
        {
          "indexed": false,
          "internalType": "uint256",
          "name": "payout",
          "type": "uint256"
        },
        {
          "indexed": false,
          "internalType": "uint256",
          "name": "jackpot",
          "type": "uint256"
        },
        {
          "indexed": false,
          "internalType": "uint256",
          "name": "streakBonus",
          "type": "uint256"
        }
      ],
      "name": "BetResult",
      "type": "event"
    },
    {
      "anonymous": false,
      "inputs": [
        {
          "indexed": true,
          "internalType": "address",
          "name": "sender",
          "type": "address"
        },
        {
          "indexed": false,
          "internalType": "uint256",
          "name": "value",
          "type": "uint256"
        },
        {
          "indexed": false,
          "internalType": "uint256",
          "name": "poolAmt",
          "type": "uint256"
        }
      ],
      "name": "Claim",
      "type": "event"
    },
    {
      "anonymous": false,
      "inputs": [
        {
          "indexed": true,
          "internalType": "address",
          "name": "sender",
          "type": "address"
        },
        {
          "indexed": false,
          "internalType": "uint256",
          "name": "value",
          "type": "uint256"
        }
      ],
      "name": "Deposit",
      "type": "event"
    },
    {
      "anonymous": false,
      "inputs": [
        {
          "indexed": true,
          "internalType": "address",
          "name": "sender",
          "type": "address"
        },
        {
          "indexed": false,
          "internalType": "uint256",
          "name": "value",
          "type": "uint256"
        }
      ],
      "name": "DepositJackpot",
      "type": "event"
    },
    {
      "anonymous": false,
      "inputs": [
        {
          "indexed": true,
          "internalType": "uint256",
          "name": "betId",
          "type": "uint256"
        },
        {
          "indexed": true,
          "internalType": "address",
          "name": "addr",
          "type": "address"
        },
        {
          "indexed": false,
          "internalType": "uint256",
          "name": "amount",
          "type": "uint256"
        }
      ],
      "name": "DistributeFee",
      "type": "event"
    },
    {
      "anonymous": false,
      "inputs": [
        {
          "indexed": true,
          "internalType": "address",
          "name": "owner",
          "type": "address"
        },
        {
          "indexed": false,
          "internalType": "uint256",
          "name": "amount",
          "type": "uint256"
        }
      ],
      "name": "EmergencyWithdraw",
      "type": "event"
    },
    {
      "anonymous": false,
      "inputs": [
        {
          "indexed": true,
          "internalType": "uint256",
          "name": "betId",
          "type": "uint256"
        },
        {
          "indexed": true,
          "internalType": "address",
          "name": "player",
          "type": "address"
        },
        {
          "indexed": false,
          "internalType": "uint256",
          "name": "amount",
          "type": "uint256"
        }
      ],
      "name": "JackpotWon",
      "type": "event"
    },
    {
      "anonymous": false,
      "inputs": [
        {
          "indexed": true,
          "internalType": "uint256",
          "name": "betId",
          "type": "uint256"
        },
        {
          "indexed": true,
          "internalType": "address",
          "name": "player",
          "type": "address"
        },
        {
          "indexed": false,
          "internalType": "uint256",
          "name": "streak",
          "type": "uint256"
        },
        {
          "indexed": false,
          "internalType": "uint256",
          "name": "bonus",
          "type": "uint256"
        }
      ],
      "name": "LossStreakBonus",
      "type": "event"
    },
    {
      "anonymous": false,
      "inputs": [
        {
          "indexed": true,
          "internalType": "address",
          "name": "previousOwner",
          "type": "address"
        },
        {
          "indexed": true,
          "internalType": "address",
          "name": "newOwner",
          "type": "address"
        }
      ],
      "name": "OwnershipTransferred",
      "type": "event"
    },
    {
      "anonymous": false,
      "inputs": [
        {
          "indexed": true,
          "internalType": "uint256",
          "name": "betId",
          "type": "uint256"
        },
        {
          "indexed": true,
          "internalType": "address",
          "name": "user",
          "type": "address"
        },
        {
          "indexed": true,
          "internalType": "address",
          "name": "referrer",
          "type": "address"
        },
        {
          "indexed": false,
          "internalType": "uint256",
          "name": "value",
          "type": "uint256"
        },
        {
          "indexed": false,
          "internalType": "uint256",
          "name": "amount",
          "type": "uint256"
        }
      ],
      "name": "ReferralReward",
      "type": "event"
    },
    {
      "anonymous": false,
      "inputs": [
        {
          "indexed": true,
          "internalType": "uint256",
          "name": "betId",
          "type": "uint256"
        },
        {
          "indexed": true,
          "internalType": "address",
          "name": "player",
          "type": "address"
        },
        {
          "indexed": false,
          "internalType": "uint256",
          "name": "streak",
          "type": "uint256"
        },
        {
          "indexed": false,
          "internalType": "uint256",
          "name": "bonus",
          "type": "uint256"
        }
      ],
      "name": "WinStreakBonus",
      "type": "event"
    },
    {
      "inputs": [
        {
          "internalType": "uint256",
          "name": "",
          "type": "uint256"
        }
      ],
      "name": "betExts",
      "outputs": [
        {
          "internalType": "enum CoinFlip.BetType",
          "name": "betType",
          "type": "uint8"
        },
        {
          "internalType": "uint256",
          "name": "multiplier",
          "type": "uint256"
        }
      ],
      "stateMutability": "view",
      "type": "function"
    },
    {
      "inputs": [
        {
          "internalType": "uint256",
          "name": "",
          "type": "uint256"
        }
      ],
      "name": "bets",
      "outputs": [
        {
          "internalType": "address",
          "name": "player",
          "type": "address"
        },
        {
          "internalType": "uint256",
          "name": "betAmount",
          "type": "uint256"
        },
        {
          "internalType": "enum BetStatus",
          "name": "betStatus",
          "type": "uint8"
        },
        {
          "internalType": "uint256",
          "name": "winAmount",
          "type": "uint256"
        }
      ],
      "stateMutability": "view",
      "type": "function"
    },
    {
      "inputs": [
        {
          "internalType": "enum CoinFlip.BetType",
          "name": "betType",
          "type": "uint8"
        }
      ],
      "name": "calculateMultiplier",
      "outputs": [
        {
          "internalType": "uint256",
          "name": "",
          "type": "uint256"
        }
      ],
      "stateMutability": "view",
      "type": "function"
    },
    {
      "inputs": [
        {
          "internalType": "uint32",
          "name": "drawResult",
          "type": "uint32"
        },
        {
          "internalType": "enum CoinFlip.BetType",
          "name": "betType",
          "type": "uint8"
        }
      ],
      "name": "calculatePrize",
      "outputs": [
        {
          "internalType": "bool",
          "name": "",
          "type": "bool"
        }
      ],
      "stateMutability": "view",
      "type": "function"
    },
    {
      "inputs": [
        {
          "internalType": "uint256",
          "name": "winRate",
          "type": "uint256"
        }
      ],
      "name": "calculateStreakWinMultiplier",
      "outputs": [
        {
          "internalType": "uint256",
          "name": "",
          "type": "uint256"
        }
      ],
      "stateMutability": "view",
      "type": "function"
    },
    {
      "inputs": [
        {
          "internalType": "uint256",
          "name": "betId",
          "type": "uint256"
        }
      ],
      "name": "calculateWinRate",
      "outputs": [
        {
          "internalType": "uint256",
          "name": "",
          "type": "uint256"
        }
      ],
      "stateMutability": "view",
      "type": "function"
    },
    {
      "inputs": [],
      "name": "claim",
      "outputs": [],
      "stateMutability": "nonpayable",
      "type": "function"
    },
    {
      "inputs": [],
      "name": "deposit",
      "outputs": [],
      "stateMutability": "payable",
      "type": "function"
    },
    {
      "inputs": [],
      "name": "depositJackpot",
      "outputs": [],
      "stateMutability": "payable",
      "type": "function"
    },
    {
      "inputs": [
        {
          "internalType": "uint256",
          "name": "",
          "type": "uint256"
        },
        {
          "internalType": "uint256",
          "name": "",
          "type": "uint256"
        }
      ],
      "name": "drawNumbers",
      "outputs": [
        {
          "internalType": "uint32",
          "name": "",
          "type": "uint32"
        }
      ],
      "stateMutability": "view",
      "type": "function"
    },
    {
      "inputs": [],
      "name": "edgeMultiplier",
      "outputs": [
        {
          "internalType": "uint256",
          "name": "",
          "type": "uint256"
        }
      ],
      "stateMutability": "view",
      "type": "function"
    },
    {
      "inputs": [
        {
          "internalType": "uint256",
          "name": "",
          "type": "uint256"
        }
      ],
      "name": "edgeNumbers",
      "outputs": [
        {
          "internalType": "uint256",
          "name": "",
          "type": "uint256"
        }
      ],
      "stateMutability": "view",
      "type": "function"
    },
    {
      "inputs": [
        {
          "internalType": "uint256",
          "name": "amount",
          "type": "uint256"
        }
      ],
      "name": "emergencyWithdraw",
      "outputs": [],
      "stateMutability": "nonpayable",
      "type": "function"
    },
    {
      "inputs": [],
      "name": "feeAddress",
      "outputs": [
        {
          "internalType": "address",
          "name": "staking",
          "type": "address"
        },
        {
          "internalType": "address",
          "name": "charity",
          "type": "address"
        },
        {
          "internalType": "address",
          "name": "platform",
          "type": "address"
        }
      ],
      "stateMutability": "view",
      "type": "function"
    },
    {
      "inputs": [],
      "name": "feeDistribution",
      "outputs": [
        {
          "internalType": "uint256",
          "name": "staking",
          "type": "uint256"
        },
        {
          "internalType": "uint256",
          "name": "referralLv1",
          "type": "uint256"
        },
        {
          "internalType": "uint256",
          "name": "referralLv2",
          "type": "uint256"
        },
        {
          "internalType": "uint256",
          "name": "charity",
          "type": "uint256"
        },
        {
          "internalType": "uint256",
          "name": "platform",
          "type": "uint256"
        }
      ],
      "stateMutability": "view",
      "type": "function"
    },
    {
      "inputs": [],
      "name": "gameStats",
      "outputs": [
        {
          "internalType": "uint256",
          "name": "currentId",
          "type": "uint256"
        },
        {
          "internalType": "uint256",
          "name": "payouts",
          "type": "uint256"
        },
        {
          "internalType": "uint256",
          "name": "claims",
          "type": "uint256"
        },
        {
          "internalType": "uint256",
          "name": "gamePool",
          "type": "uint256"
        },
        {
          "internalType": "uint256",
          "name": "jackpotPool",
          "type": "uint256"
        },
        {
          "internalType": "uint256",
          "name": "streakPool",
          "type": "uint256"
        }
      ],
      "stateMutability": "view",
      "type": "function"
    },
    {
      "inputs": [
        {
          "internalType": "address",
          "name": "user",
          "type": "address"
        }
      ],
      "name": "getReferrer",
      "outputs": [
        {
          "internalType": "address",
          "name": "",
          "type": "address"
        },
        {
          "internalType": "address",
          "name": "",
          "type": "address"
        },
        {
          "internalType": "address",
          "name": "",
          "type": "address"
        }
      ],
      "stateMutability": "view",
      "type": "function"
    },
    {
      "inputs": [],
      "name": "getStakePool",
      "outputs": [
        {
          "internalType": "uint256",
          "name": "",
          "type": "uint256"
        }
      ],
      "stateMutability": "view",
      "type": "function"
    },
    {
      "inputs": [],
      "name": "interfaces",
      "outputs": [
        {
          "internalType": "contract IVRF",
          "name": "VRF",
          "type": "address"
        },
        {
          "internalType": "contract IReferral",
          "name": "REFERRAL",
          "type": "address"
        }
      ],
      "stateMutability": "view",
      "type": "function"
    },
    {
      "inputs": [
        {
          "internalType": "uint256",
          "name": "",
          "type": "uint256"
        }
      ],
      "name": "jackpotNumbers",
      "outputs": [
        {
          "internalType": "uint256",
          "name": "",
          "type": "uint256"
        }
      ],
      "stateMutability": "view",
      "type": "function"
    },
    {
      "inputs": [
        {
          "internalType": "address",
          "name": "",
          "type": "address"
        }
      ],
      "name": "operators",
      "outputs": [
        {
          "internalType": "bool",
          "name": "",
          "type": "bool"
        }
      ],
      "stateMutability": "view",
      "type": "function"
    },
    {
      "inputs": [],
      "name": "owner",
      "outputs": [
        {
          "internalType": "address",
          "name": "",
          "type": "address"
        }
      ],
      "stateMutability": "view",
      "type": "function"
    },
    {
      "inputs": [
        {
          "internalType": "enum CoinFlip.BetType",
          "name": "betType",
          "type": "uint8"
        },
        {
          "internalType": "uint256",
          "name": "betAmount",
          "type": "uint256"
        },
        {
          "internalType": "address",
          "name": "player",
          "type": "address"
        },
        {
          "internalType": "address",
          "name": "ref",
          "type": "address"
        },
        {
          "internalType": "string",
          "name": "note",
          "type": "string"
        }
      ],
      "name": "placeBet",
      "outputs": [],
      "stateMutability": "payable",
      "type": "function"
    },
    {
      "inputs": [
        {
          "internalType": "address",
          "name": "",
          "type": "address"
        }
      ],
      "name": "players",
      "outputs": [
        {
          "internalType": "uint256",
          "name": "winnings",
          "type": "uint256"
        },
        {
          "internalType": "uint256",
          "name": "claims",
          "type": "uint256"
        },
        {
          "internalType": "uint256",
          "name": "lastBetAmount",
          "type": "uint256"
        },
        {
          "internalType": "uint8",
          "name": "winStreak",
          "type": "uint8"
        },
        {
          "internalType": "uint8",
          "name": "loseStreak",
          "type": "uint8"
        }
      ],
      "stateMutability": "view",
      "type": "function"
    },
    {
      "inputs": [
        {
          "internalType": "uint256",
          "name": "id",
          "type": "uint256"
        }
      ],
      "name": "redeem",
      "outputs": [],
      "stateMutability": "nonpayable",
      "type": "function"
    },
    {
      "inputs": [],
      "name": "renounceOwnership",
      "outputs": [],
      "stateMutability": "nonpayable",
      "type": "function"
    },
    {
      "inputs": [
        {
          "components": [
            {
              "internalType": "address",
              "name": "staking",
              "type": "address"
            },
            {
              "internalType": "address",
              "name": "charity",
              "type": "address"
            },
            {
              "internalType": "address",
              "name": "platform",
              "type": "address"
            }
          ],
          "internalType": "struct FeeAddress",
          "name": "_addrs",
          "type": "tuple"
        }
      ],
      "name": "setFeeAddress",
      "outputs": [],
      "stateMutability": "nonpayable",
      "type": "function"
    },
    {
      "inputs": [
        {
          "components": [
            {
              "internalType": "uint256",
              "name": "staking",
              "type": "uint256"
            },
            {
              "internalType": "uint256",
              "name": "referralLv1",
              "type": "uint256"
            },
            {
              "internalType": "uint256",
              "name": "referralLv2",
              "type": "uint256"
            },
            {
              "internalType": "uint256",
              "name": "charity",
              "type": "uint256"
            },
            {
              "internalType": "uint256",
              "name": "platform",
              "type": "uint256"
            }
          ],
          "internalType": "struct FeeDistribution",
          "name": "_fees",
          "type": "tuple"
        }
      ],
      "name": "setFeeDistribution",
      "outputs": [],
      "stateMutability": "nonpayable",
      "type": "function"
    },
    {
      "inputs": [
        {
          "components": [
            {
              "internalType": "contract IVRF",
              "name": "VRF",
              "type": "address"
            },
            {
              "internalType": "contract IReferral",
              "name": "REFERRAL",
              "type": "address"
            }
          ],
          "internalType": "struct GameInterface",
          "name": "_interfaces",
          "type": "tuple"
        }
      ],
      "name": "setInterfaces",
      "outputs": [],
      "stateMutability": "nonpayable",
      "type": "function"
    },
    {
      "inputs": [
        {
          "internalType": "address",
          "name": "_addr",
          "type": "address"
        },
        {
          "internalType": "bool",
          "name": "_enable",
          "type": "bool"
        }
      ],
      "name": "setOperator",
      "outputs": [],
      "stateMutability": "nonpayable",
      "type": "function"
    },
    {
      "inputs": [
        {
          "components": [
            {
              "internalType": "uint256",
              "name": "protocolFee",
              "type": "uint256"
            },
            {
              "internalType": "uint256",
              "name": "jackpotRate",
              "type": "uint256"
            },
            {
              "internalType": "uint256",
              "name": "jackpotBonus",
              "type": "uint256"
            },
            {
              "internalType": "uint256",
              "name": "minBet",
              "type": "uint256"
            },
            {
              "internalType": "uint256",
              "name": "maxBet",
              "type": "uint256"
            },
            {
              "internalType": "uint256",
              "name": "streakRate",
              "type": "uint256"
            },
            {
              "internalType": "uint256",
              "name": "baseWinStreak",
              "type": "uint256"
            },
            {
              "internalType": "uint256",
              "name": "winStreakSlope",
              "type": "uint256"
            },
            {
              "internalType": "uint8",
              "name": "winStreakCount",
              "type": "uint8"
            },
            {
              "internalType": "uint8",
              "name": "lossStreakCount",
              "type": "uint8"
            }
          ],
          "internalType": "struct GameSetting",
          "name": "_settings",
          "type": "tuple"
        }
      ],
      "name": "setSettings",
      "outputs": [],
      "stateMutability": "nonpayable",
      "type": "function"
    },
    {
      "inputs": [],
      "name": "settings",
      "outputs": [
        {
          "internalType": "uint256",
          "name": "protocolFee",
          "type": "uint256"
        },
        {
          "internalType": "uint256",
          "name": "jackpotRate",
          "type": "uint256"
        },
        {
          "internalType": "uint256",
          "name": "jackpotBonus",
          "type": "uint256"
        },
        {
          "internalType": "uint256",
          "name": "minBet",
          "type": "uint256"
        },
        {
          "internalType": "uint256",
          "name": "maxBet",
          "type": "uint256"
        },
        {
          "internalType": "uint256",
          "name": "streakRate",
          "type": "uint256"
        },
        {
          "internalType": "uint256",
          "name": "baseWinStreak",
          "type": "uint256"
        },
        {
          "internalType": "uint256",
          "name": "winStreakSlope",
          "type": "uint256"
        },
        {
          "internalType": "uint8",
          "name": "winStreakCount",
          "type": "uint8"
        },
        {
          "internalType": "uint8",
          "name": "lossStreakCount",
          "type": "uint8"
        }
      ],
      "stateMutability": "view",
      "type": "function"
    },
    {
      "inputs": [
        {
          "internalType": "address",
          "name": "newOwner",
          "type": "address"
        }
      ],
      "name": "transferOwnership",
      "outputs": [],
      "stateMutability": "nonpayable",
      "type": "function"
    }
  ],
  "bytecode": "0x6207a120601f5561010060405261014d608090815261029a60a05261037860c0526103e760e05262000036906020906004620001e1565b5060408051808201909152604581526101a460208201526200005d906021906002620001e1565b50348015620000b85760405162461bcd60e51b815260206004820152602260248201527f45746865722073656e7420746f206e6f6e2d70617961626c652066756e637469604482019081526137b760f11b6064830152608482fd5b5060405162003b6138038062003b61833981016040819052620000db916200024e565b6001600055848484848433806200010c57604051631e4fbdf760e01b81526000600482015260240160405180910390fd5b62000117816200018f565b50336000908152601e60205260409020805460ff19166001179055600894909455600992909255600d55600b55600c555050610bb8600a8190556006600e556005600f556010805461050561ffff1990911617905560135550506109606014555060646015556101f4601655610fa0601755620002da565b600180546001600160a01b038381166001600160a01b0319831681179093556040519116919082907f8be0079c531659141344cd1fd0a4f28419497f9722a3daafe3b4186f6b6457e090600090a35050565b82805482825590600052602060002090810192821562000225579160200282015b8281111562000225578251829061ffff1690559160200191906001019062000202565b506200023392915062000237565b5090565b5b8082111562000233576000815560010162000238565b600080600080600060a08688031215620002b25760405162461bcd60e51b815260206004820152602260248201527f414249206465636f64696e673a207475706c65206461746120746f6f2073686f6044820152611c9d60f21b6064820152608481fd5b5050835160208501516040860151606087015160809097015192989197509594509092509050565b61387780620002ea6000396000f3fe6080604052600436106101ee5760003560e01c8063715018a61161010d578063d68199dc116100a0578063e0fa28811161006f578063e0fa288114610d58578063e2eb41ff14610d60578063e5a925a814610e17578063f2709f2114610e72578063f2fde38b14610ef4576101ee565b8063d68199dc14610b41578063db006a7514610bd4578063ddd96b1e14610c2f578063e06174e414610c8a576101ee565b8063a3735530116100dc578063a373553014610a65578063bcf52a3d14610ad5578063cd127efc14610ae8578063d0e30db014610b39576101ee565b8063715018a6146108d55780637d5e7c321461092557806385f3f9541461097f5780638da5cb5b14610a02576101ee565b806341275358116101855780634e71d92d116101545780634e71d92d146107745780635312ea8e146107c4578063558a72971461081f5780635609cd9e1461087a576101ee565b806341275358146105d157806343d0d05d1461066357806347aeca72146106be5780634a9fefc714610719576101ee565b80632479b177116101c15780632479b177146104365780632cce8ba0146104c05780632f215ba41461051b5780632f46016e14610576576101ee565b80631324fa231461025357806313e7c9d8146102b057806322af00fa1461033057806323ac7267146103cd575b60405162461bcd60e51b815260206004820152603560248201527f436f6e747261637420646f6573206e6f7420686176652066616c6c6261636b2060448201908152746e6f7220726563656976652066756e6374696f6e7360581b6064830152608482fd5b34801561029a5760405162461bcd60e51b81526020600482015260226024820152600080516020613802833981519152604482019081526137b760f11b6064830152608482fd5b506102ae6102a9366004612fd7565b610f4f565b005b3480156102f75760405162461bcd60e51b81526020600482015260226024820152600080516020613802833981519152604482019081526137b760f11b6064830152608482fd5b5061031b610306366004613007565b601e6020526000908152604090205460ff1681565b60405190151581526020015b60405180910390f35b3480156103775760405162461bcd60e51b81526020600482015260226024820152600080516020613802833981519152604482019081526137b760f11b6064830152608482fd5b506103bd610386366004613027565b601c6020526000908152604090208054600182015460028301546003909301546001600160a01b0390921692909160ff9091169084565b6040516103279493929190613077565b3480156104145760405162461bcd60e51b81526020600482015260226024820152600080516020613802833981519152604482019081526137b760f11b6064830152608482fd5b50610428610423366004613027565b610f69565b604051908152602001610327565b34801561047d5760405162461bcd60e51b81526020600482015260226024820152600080516020613802833981519152604482019081526137b760f11b6064830152608482fd5b50601354601454601554601654601754610498949392919085565b604080519586526020860194909452928401919091526060830152608082015260a001610327565b3480156105075760405162461bcd60e51b81526020600482015260226024820152600080516020613802833981519152604482019081526137b760f11b6064830152608482fd5b50610428610516366004613027565b610fa8565b3480156105625760405162461bcd60e51b81526020600482015260226024820152600080516020613802833981519152604482019081526137b760f11b6064830152608482fd5b506104286105713660046130bd565b610fe6565b3480156105bd5760405162461bcd60e51b81526020600482015260226024820152600080516020613802833981519152604482019081526137b760f11b6064830152608482fd5b506104286105cc366004613027565b61106e565b3480156106185760405162461bcd60e51b81526020600482015260226024820152600080516020613802833981519152604482019081526137b760f11b6064830152608482fd5b50601854601954601a54610639926001600160a01b03908116928116911683565b604080516001600160a01b0394851681529284166020840152921691810191909152606001610327565b3480156106aa5760405162461bcd60e51b81526020600482015260226024820152600080516020613802833981519152604482019081526137b760f11b6064830152608482fd5b506104286106b9366004613027565b61108f565b3480156107055760405162461bcd60e51b81526020600482015260226024820152600080516020613802833981519152604482019081526137b760f11b6064830152608482fd5b5061031b6107143660046130ed565b61109f565b3480156107605760405162461bcd60e51b81526020600482015260226024820152600080516020613802833981519152604482019081526137b760f11b6064830152608482fd5b5061063961076f366004613007565b6111d2565b3480156107bb5760405162461bcd60e51b81526020600482015260226024820152600080516020613802833981519152604482019081526137b760f11b6064830152608482fd5b506102ae6112a1565b34801561080b5760405162461bcd60e51b81526020600482015260226024820152600080516020613802833981519152604482019081526137b760f11b6064830152608482fd5b506102ae61081a366004613027565b6114cb565b3480156108665760405162461bcd60e51b81526020600482015260226024820152600080516020613802833981519152604482019081526137b760f11b6064830152608482fd5b506102ae610875366004613133565b611586565b3480156108c15760405162461bcd60e51b81526020600482015260226024820152600080516020613802833981519152604482019081526137b760f11b6064830152608482fd5b506102ae6108d036600461316f565b6115f8565b34801561091c5760405162461bcd60e51b81526020600482015260226024820152600080516020613802833981519152604482019081526137b760f11b6064830152608482fd5b506102ae611687565b34801561096c5760405162461bcd60e51b81526020600482015260226024820152600080516020613802833981519152604482019081526137b760f11b6064830152608482fd5b506018546001600160a01b031631610428565b3480156109c65760405162461bcd60e51b81526020600482015260226024820152600080516020613802833981519152604482019081526137b760f11b6064830152608482fd5b506109f46109d5366004613027565b6022602052600090815260409020805460019091015460ff9091169082565b604051610327929190613185565b348015610a495760405162461bcd60e51b81526020600482015260226024820152600080516020613802833981519152604482019081526137b760f11b6064830152608482fd5b506001546040516001600160a01b039091168152602001610327565b348015610aac5760405162461bcd60e51b81526020600482015260226024820152600080516020613802833981519152604482019081526137b760f11b6064830152608482fd5b50610ac0610abb36600461319c565b611699565b60405163ffffffff9091168152602001610327565b6102ae610ae3366004613273565b6116e2565b348015610b2f5760405162461bcd60e51b81526020600482015260226024820152600080516020613802833981519152604482019081526137b760f11b6064830152608482fd5b50610428601f5481565b6102ae6118f1565b348015610b885760405162461bcd60e51b81526020600482015260226024820152600080516020613802833981519152604482019081526137b760f11b6064830152608482fd5b50600254600354600454600554600654600754610ba795949392919086565b604080519687526020870195909552938501929092526060840152608083015260a082015260c001610327565b348015610c1b5760405162461bcd60e51b81526020600482015260226024820152600080516020613802833981519152604482019081526137b760f11b6064830152608482fd5b506102ae610c2a366004613027565b611953565b348015610c765760405162461bcd60e51b81526020600482015260226024820152600080516020613802833981519152604482019081526137b760f11b6064830152608482fd5b506102ae610c85366004613384565b611bbd565b348015610cd15760405162461bcd60e51b81526020600482015260226024820152600080516020613802833981519152604482019081526137b760f11b6064830152608482fd5b50600854600954600a54600b54600c54600d54600e54600f54601054610d0898979695949392919060ff808216916101009004168a565b604080519a8b5260208b0199909952978901969096526060880194909452608087019290925260a086015260c085015260e084015260ff9081166101008401521661012082015261014001610327565b6102ae611beb565b348015610da75760405162461bcd60e51b81526020600482015260226024820152600080516020613802833981519152604482019081526137b760f11b6064830152608482fd5b50610de9610db6366004613007565b601b6020526000908152604090208054600182015460028301546003909301549192909160ff8082169161010090041685565b6040805195865260208601949094529284019190915260ff908116606084015216608082015260a001610327565b348015610e5e5760405162461bcd60e51b81526020600482015260226024820152600080516020613802833981519152604482019081526137b760f11b6064830152608482fd5b506102ae610e6d366004613399565b611c59565b348015610eb95760405162461bcd60e51b81526020600482015260226024820152600080516020613802833981519152604482019081526137b760f11b6064830152608482fd5b50601154601254610ed4916001600160a01b03908116911682565b604080516001600160a01b03938416815292909116602083015201610327565b348015610f3b5760405162461bcd60e51b81526020600482015260226024820152600080516020613802833981519152604482019081526137b760f11b6064830152608482fd5b506102ae610f4a366004613007565b611c6e565b610f57611ca9565b806018610f6482826133ce565b505050565b600e54600090610f7a576000610fa2565b600f546103e890610f8b9084613431565b610f95919061345e565b600e54610fa29190613472565b92915050565b60008181526022602052604081206002815460ff166002811115610fce57610fce613043565b03610fdc5750600492915050565b506101f292915050565b600d54600954600854600092839290916110009190613485565b61100a9190613485565b9050600061101a82612710613472565b611025906002613431565b9050600284600281111561103b5761103b613043565b036110675761271061104d8382613472565b601f5461105a9190613431565b611064919061345e565b90505b9392505050565b6020818154811061107e57600080fd5b600091825260209091200154905081565b6021818154811061107e57600080fd5b600060028260028111156110b5576110b5613043565b036111215761111a602080548060200260200160405190810160405280929190818152602001828054801561110957602002820191906000526020600020905b8154815260200190600101908083116110f5575b50505050508463ffffffff16611cd6565b9050610fa2565b61117f602080548060200260200160405190810160405280929190818152602001828054801561110957602002820191906000526020600020908154815260200190600101908083116110f55750505050508463ffffffff16611cd6565b15801561111a5750611192600284613498565b63ffffffff16156111a45760016111a7565b60005b60028111156111b8576111b8613043565b8260028111156111ca576111ca613043565b149392505050565b601254604051634a9fefc760e01b81526001600160a01b0383811660048301526000928392839290911690634a9fefc79060240160606040518083038186803b15801561125c5760405162461bcd60e51b81526020600482015260256024820152600080516020613822833981519152604482019081526420636f646560d81b6064830152608482fd5b505afa158015611270573d6000803e3d6000fd5b505050506040513d601f19601f8201168201806040525081019061129491906134bb565b9250925092509193909250565b6112a9611d29565b336000908152601b602052604090208054806113035760405162461bcd60e51b81526020600482015260146024820152734e6f2077696e6e696e677320746f20636c61696d60601b60448201526064015b60405180910390fd5b4760006113196018546001600160a01b03163190565b9050600082841161132a578361132c565b825b9050600061133a8286613472565b9050828111611349578061134b565b825b905060006113598284613485565b9050600081116113ab5760405162461bcd60e51b815260206004820152601a60248201527f496e73756666696369656e7420636c61696d2062616c616e636500000000000060448201526064016112fa565b8654819003875560018701805482019055600480548201905582156113d4576113d43384611d53565b811561147d57601854604051637695a07560e11b8152336004820152602481018490526001600160a01b039091169063ed2b40ea90604401600060405180830381600087803b1580156114645760405162461bcd60e51b81526020600482015260256024820152600080516020613822833981519152604482019081526420636f646560d81b6064830152608482fd5b505af1158015611478573d6000803e3d6000fd5b505050505b604080518281526020810184905233917f34fcbac0073d7c3d388e51312faf357774904998eeb8fca628b9e6f65ee1cbf7910160405180910390a2505050505050506114c96001600055565b565b6114d3611ca9565b4781111561151a5760405162461bcd60e51b8152602060048201526014602482015273496e73756666696369656e742062616c616e636560601b60448201526064016112fa565b61153561152f6001546001600160a01b031690565b82611d53565b6001546001600160a01b03166001600160a01b03167f5fafa99d0643513820be26656b45130b01e1c03062e1266bf36f88cbd3bd96958260405161157b91815260200190565b60405180910390a250565b61158e611ca9565b6001600160a01b0382166115cd5760405162461bcd60e51b81526020600482015260066024820152652b9030b2323960d11b60448201526064016112fa565b6001600160a01b03919091166000908152601e60205260409020805460ff1916911515919091179055565b611600611ca9565b806080013581606001351061163f5760405162461bcd60e51b815260206004820152600560248201526415c818995d60da1b60448201526064016112fa565b6113888135111561167a5760405162461bcd60e51b8152602060048201526005602482015264572066656560d81b60448201526064016112fa565b806008610f64828261351e565b61168f611ca9565b6114c96000611dee565b601d60205281600052604060002081815481106116b557600080fd5b9060005260206000209060089182820401919006600402915091509054906101000a900463ffffffff1681565b6116ea611d29565b6001600160a01b0384166116fc573393505b6117098585858585611e40565b600254600061171788610fe6565b9050600060405180604001604052808a600281111561173857611738613043565b815260209081018490526000858152602290915260409020815181549293508392829060ff1916600183600281111561177357611773613043565b021790555060208201518160010155905050866001600160a01b0316837f3a5b25f48e15ab3e4d810304ed7368c35de823921fa3fd504ba8ab2841bf1ad78a88886040516117c3939291906135b3565b60405180910390a3601154604051632634d7b160e01b8152600481018590526103e86024820152600160448201526000916001600160a01b031690632634d7b190606401602060405180830381600087803b15801561185f5760405162461bcd60e51b81526020600482015260256024820152600080516020613822833981519152604482019081526420636f646560d81b6064830152608482fd5b505af1158015611873573d6000803e3d6000fd5b505050506040513d601f19601f8201168201806040525081019061189791906135e9565b9050806118db5760405162461bcd60e51b8152602060048201526012602482015271159491881c995c5d595cdd0819985a5b195960721b60448201526064016112fa565b505050506118e96001600055565b505050505050565b6118f9611d29565b346002600301600082825461190e9190613485565b909155505060405134815233907fe1fffcc4923d04b559f4d29a8bfc6cda04eb5b0d3c460751c2402c5c5cc9109c906020015b60405180910390a26114c96001600055565b61195b611d29565b60115460405163231fdc6360e11b8152600481018390526000916001600160a01b03169063463fb8c69060240160006040518083038186803b1580156119de5760405162461bcd60e51b81526020600482015260256024820152600080516020613822833981519152604482019081526420636f646560d81b6064830152608482fd5b505afa1580156119f2573d6000803e3d6000fd5b505050506040513d6000823e601f3d908101601f19168201604052611a1a919081019061362a565b90508051600114611a645760405162461bcd60e51b8152602060048201526014602482015273496e76616c69642064726177206e756d6265727360601b60448201526064016112fa565b600081600081518110611a7957611a796136fb565b6020026020010151905060008163ffffffff16118015611aa157506127108163ffffffff1611155b611ae35760405162461bcd60e51b815260206004820152601360248201527224b73b30b634b210323930bb90373ab6b132b960691b60448201526064016112fa565b6000838152601c6020908152604080832060229092528220909160028084015460ff1690811115611b1657611b16613043565b14611b545760405162461bcd60e51b815260206004820152600e60248201526d416c72656164792052656465656d60901b60448201526064016112fa565b815481546001600160a01b039091169060009081908190611b7990889060ff1661109f565b9050611b9581876001015487600101548a63ffffffff166121d1565b9093509150611ba889858386868d61228f565b5050505050505050611bba6001600055565b50565b611bc5611ca9565b803560135560208101356014556040810135601555606081013560165560800135601755565b611bf3611d29565b3460026004016000828254611c089190613485565b909155505060058054349190600090611c22908490613485565b909155505060405134815233907f7d08b5b7cfe8722872406c430472d942802a7e0b6185e43af8614a65d80a268590602001611941565b611c61611ca9565b806011610f648282613711565b611c76611ca9565b6001600160a01b038116611ca057604051631e4fbdf760e01b8152600060048201526024016112fa565b611bba81611dee565b6001546001600160a01b031633146114c95760405163118cdaa760e01b81523360048201526024016112fa565b6000805b8351811015611d1f5782848281518110611cf657611cf66136fb565b602002602001015103611d0d576001915050610fa2565b80611d1781613742565b915050611cda565b5060009392505050565b600260005403611d4c57604051633ee5aeb560e01b815260040160405180910390fd5b6002600055565b6000826001600160a01b03168260405160006040518083038185875af1925050503d8060008114611da0576040519150601f19603f3d011682016040523d82523d6000602084013e611da5565b606091505b5050905080610f645760405162461bcd60e51b8152602060048201526015602482015274119d5b991cc81d1c985b9cd9995c8819985a5b1959605a1b60448201526064016112fa565b600180546001600160a01b038381166001600160a01b0319831681179093556040519116919082907f8be0079c531659141344cd1fd0a4f28419497f9722a3daafe3b4186f6b6457e090600090a35050565b6001600160a01b03841615801590611e6057506001600160a01b0384163b155b611e9d5760405162461bcd60e51b815260206004820152600e60248201526d24b73b30b634b210383630bcb2b960911b60448201526064016112fa565b843414611edc5760405162461bcd60e51b815260206004820152600d60248201526c496e76616c69642076616c756560981b60448201526064016112fa565b600b548510801590611ef05750600c548511155b611f315760405162461bcd60e51b8152602060048201526012602482015271125b9d985b1a590818995d08185b5bdd5b9d60721b60448201526064016112fa565b6101f4811115611f735760405162461bcd60e51b815260206004820152600d60248201526c4e6f746520746f6f206c6f6e6760981b60448201526064016112fa565b6001600160a01b0383161580611fae5750836001600160a01b0316836001600160a01b031614158015611fae57506001600160a01b0383163b155b611fe85760405162461bcd60e51b815260206004820152600b60248201526a24b73b30b634b2103932b360a91b60448201526064016112fa565b6011546001600160a01b031661202e5760405162461bcd60e51b815260206004820152600b60248201526a159491881b9bdd081cd95d60aa1b60448201526064016112fa565b6002805460010190819055604080516080810182526001600160a01b0387168152602081018890529081016000815260006020918201819052838152601c8252604090819020835181546001600160a01b0319166001600160a01b039091161781559183015160018084019190915590830151600280840180549293909260ff19169184908111156120c2576120c2613043565b021790555060609190910151600390910155600854600090612710906120e89089613431565b6120f2919061345e565b905060006127106008600101548961210a9190613431565b612114919061345e565b905060006127106008600501548a61212c9190613431565b612136919061345e565b905060008183612146868d613472565b6121509190613472565b61215a9190613472565b905082600260040160008282546121719190613485565b90915550506007805483919060009061218b908490613485565b9091555050600580548291906000906121a5908490613485565b90915550600090506121b8868a8c612693565b90506121c48682612c31565b5050505050505050505050565b600080856121e457506000905080612286565b60006127106121f38688613431565b6121fd919061345e565b9050600061225b602180548060200260200160405190810160405280929190818152602001828054801561225057602002820191906000526020600020905b81548152602001906001019080831161223c575b505050505086611cd6565b1561228057600a546006546127109161227391613431565b61227d919061345e565b90505b90925090505b94509492505050565b6000868152601c602090815260408083206001600160a01b0389168452601b90925282209091861561247f57858260000160008282546122cf9190613485565b9091555050841561234e57848260000160008282546122ee9190613485565b909155505060068054869190600090612308908490613472565b90915550506040518581526001600160a01b038916908a907ff75adeadf04a8ca4130d3774f98bdb151c71b80eb8ee92a224bced1c538e94089060200160405180910390a35b60038201805460ff169060006123638361375b565b82546101009290920a60ff81810219909316918316021790915560038401805461ff00191690556010541615801591506123b5575060105460038301546123b09160ff908116911661377a565b60ff16155b1561247a5760006123c58a610fa8565b905060006123d282610f69565b90508015612477576123f28185600201546123ed9190613431565b612d58565b9250828460000160008282546124089190613485565b909155505060078054849190600090612422908490613472565b909155505060038401546040805160ff9092168252602082018590526001600160a01b038c16918d917f1eb9ba50881142be7e98d634e04e0ab44e982b51a852a0b1c5b42794f514bd5c910160405180910390a35b50505b6125a4565b600382018054610100900460ff169060016124998361375b565b825460ff91821661010093840a908102908302199091161790925560038501805460ff19169055601054041615801591506124f6575060105460038301546124f19160ff61010091829004811692919091041661377a565b60ff16155b156125a4576125088260020154612d58565b905080156125a457808260000160008282546125249190613485565b90915550506007805482919060009061253e908490613472565b909155505060038201546040805161010090920460ff168252602082018390526001600160a01b038a16918b917fa5efd59c84b6184b186b2ac69d3af610f1d9e422703ffa41286c1ea4a16774c2910160405180910390a360038201805461ff00191690555b866125b05760026125b3565b60015b8360020160006101000a81548160ff021916908360028111156125d8576125d8613043565b0217905550806125e88688613485565b6125f29190613485565b60038085019182556001850154600285015590548154909190600090612619908490613485565b90915550506000898152601d60209081526040909120855161263d92870190612e7c565b50876001600160a01b0316897f17ee1fda62ed34ad897b1b279a255c2bf0d98bd8193e825855bec2abf58af085868a8a8a8760405161268095949392919061379c565b60405180910390a3505050505050505050565b60125460009081906001600160a01b03166126b2576000915050611067565b601254604051634a9fefc760e01b81526001600160a01b0385811660048301526000928392839290911690634a9fefc79060240160606040518083038186803b15801561273c5760405162461bcd60e51b81526020600482015260256024820152600080516020613822833981519152604482019081526420636f646560d81b6064830152608482fd5b505afa158015612750573d6000803e3d6000fd5b505050506040513d601f19601f8201168201806040525081019061277491906134bb565b919450925090506001600160a01b03831615801561279957506001600160a01b038116155b80156127ad57506001600160a01b03871615155b1561293a5760125460405163bbddaca360e01b81526001600160a01b03888116600483015289811660248301529091169063bbddaca390604401602060405180830381600087803b15801561283f5760405162461bcd60e51b81526020600482015260256024820152600080516020613822833981519152604482019081526420636f646560d81b6064830152608482fd5b505af1158015612853573d6000803e3d6000fd5b505050506040513d601f19601f8201168201806040525081019061287791906135e9565b50601254604051634a9fefc760e01b81526001600160a01b03888116600483015290911690634a9fefc79060240160606040518083038186803b1580156128fb5760405162461bcd60e51b81526020600482015260256024820152600080516020613822833981519152604482019081526420636f646560d81b6064830152608482fd5b505afa15801561290f573d6000803e3d6000fd5b505050506040513d601f19601f8201168201806040525081019061293391906134bb565b5090935091505b600854600003612951576000945050505050611067565b6000888152601c6020526040812060018101546008549192916127109161297791613431565b612981919061345e565b90506001600160a01b0385161580159061299c575060145415155b15612ace57601454600090612710906129b59084613431565b6129bf919061345e565b90506000866001600160a01b03168260405160006040518083038185875af1925050503d8060008114612a0e576040519150601f19603f3d011682016040523d82523d6000602084013e612a13565b606091505b5050905080612a645760405162461bcd60e51b815260206004820152601860248201527f526566657272616c207472616e73666572206661696c6564000000000000000060448201526064016112fa565b612a6e8289613485565b9750866001600160a01b03168a6001600160a01b03168d7fddeda83d41934a8fda6300be94b9dc267458691ee488df53062cdd94652641ee876001015486604051612ac3929190918252602082015260400190565b60405180910390a450505b6001600160a01b03841615801590612ae7575060155415155b15612c235760155460009061271090612b009084613431565b612b0a919061345e565b90506000856001600160a01b03168260405160006040518083038185875af1925050503d8060008114612b59576040519150601f19603f3d011682016040523d82523d6000602084013e612b5e565b606091505b5050905080612bb95760405162461bcd60e51b815260206004820152602160248201527f526566657272616c207375706572696f72207472616e73666572206661696c656044820152601960fa1b60648201526084016112fa565b612bc38289613485565b9750856001600160a01b03168a6001600160a01b03168d7fddeda83d41934a8fda6300be94b9dc267458691ee488df53062cdd94652641ee876001015486604051612c18929190918252602082015260400190565b60405180910390a450505b509398975050505050505050565b600854600003612c3f575050565b6000828152601c60205260408120600854600182015491929161271091612c6591613431565b612c6f919061345e565b9050600061271060136003015483612c879190613431565b612c91919061345e565b9050600061271060136000015484612ca99190613431565b612cb3919061345e565b9050612cbf8584613472565b925082156118e957818310158015612cea5750601954612cea9087906001600160a01b031684612d71565b15612cfc57612cf98284613472565b92505b808310158015612d1f5750601854612d1f9087906001600160a01b031683612d71565b15612d3157612d2e8184613472565b92505b82156118e957601a54612d4f9087906001600160a01b031685612d71565b50505050505050565b600754600090821115612d6d57600754610fa2565b5090565b60006001600160a01b0383161580612d87575081155b15612d9457506000611067565b6000836001600160a01b03168360405160006040518083038185875af1925050503d8060008114612de1576040519150601f19603f3d011682016040523d82523d6000602084013e612de6565b606091505b5050905080612e2d5760405162461bcd60e51b8152602060048201526013602482015272119959481d1c985b9cd9995c8819985a5b1959606a1b60448201526064016112fa565b836001600160a01b0316857fab5d6bc525addf3dd899ddc72dd91cf3862ff6b876a97ef651614887119a5d0c85604051612e6991815260200190565b60405180910390a3506001949350505050565b82805482825590600052602060002090600701600890048101928215612f1b5791602002820160005b83821115612ee957835183826101000a81548163ffffffff021916908363ffffffff1602179055509260200192600401602081600301049283019260010302612ea5565b8015612f195782816101000a81549063ffffffff0219169055600401602081600301049283019260010302612ee9565b505b50612d6d9291505b80821115612d6d5760008155600101612f23565b60405162461bcd60e51b815260206004820152602260248201527f414249206465636f64696e673a207475706c65206461746120746f6f2073686f6044820152611c9d60f21b6064820152608481fd5b60405162461bcd60e51b815260206004820152602260248201527f414249206465636f64696e673a20696e76616c6964207475706c65206f666673604482015261195d60f21b6064820152608481fd5b600060608284031215612fec57612fec612f37565b50919050565b6001600160a01b0381168114611bba57600080fd5b60006020828403121561301c5761301c612f37565b813561106781612ff2565b60006020828403121561303c5761303c612f37565b5035919050565b634e487b7160e01b600052602160045260246000fd5b60038110611bba57634e487b7160e01b600052602160045260246000fd5b6001600160a01b0385168152602081018490526080810161309784613059565b60408201939093526060015292915050565b8035600381106130b857600080fd5b919050565b6000602082840312156130d2576130d2612f37565b611067826130a9565b63ffffffff81168114611bba57600080fd5b6000806040838503121561310357613103612f37565b823561310e816130db565b915061311c602084016130a9565b90509250929050565b8015158114611bba57600080fd5b6000806040838503121561314957613149612f37565b823561315481612ff2565b9150602083013561316481613125565b809150509250929050565b60006101408284031215612fec57612fec612f37565b6040810161319284613059565b9281526020015290565b600080604083850312156131b2576131b2612f37565b50508035926020909101359150565b60405162461bcd60e51b815260206004820152602b60248201527f414249206465636f64696e673a20696e76616c69642063616c6c64617461206160448201526a1c9c985e481bd9999cd95d60aa1b6064820152608481fd5b60405162461bcd60e51b815260206004820152602b60248201527f414249206465636f64696e673a20696e76616c69642063616c6c64617461206160448201526a727261792073747269646560a81b6064820152608481fd5b60008060008060008060a0878903121561328f5761328f612f37565b613298876130a9565b95506020870135945060408701356132af81612ff2565b935060608701356132bf81612ff2565b9250608087013567ffffffffffffffff808211156132df576132df612f87565b818901915089601f8301126132f6576132f66131c1565b8135818111156133595760405162461bcd60e51b815260206004820152602b60248201527f414249206465636f64696e673a20696e76616c69642063616c6c64617461206160448201526a0e4e4c2f240d8cadccee8d60ab1b6064820152608481fd5b8a602082850101111561336e5761336e61321a565b6020830194508093505050509295509295509295565b600060a08284031215612fec57612fec612f37565b600060408284031215612fec57612fec612f37565b80546001600160a01b0319166001600160a01b0392909216919091179055565b81356133d981612ff2565b6133e381836133ae565b5060208201356133f281612ff2565b6133ff81600184016133ae565b50604082013561340e81612ff2565b610f6481600284016133ae565b634e487b7160e01b600052601160045260246000fd5b8082028115828204841417610fa257610fa261341b565b634e487b7160e01b600052601260045260246000fd5b60008261346d5761346d613448565b500490565b81810381811115610fa257610fa261341b565b80820180821115610fa257610fa261341b565b600063ffffffff808416806134af576134af613448565b92169190910692915050565b6000806000606084860312156134d3576134d3612f37565b83516134de81612ff2565b60208501519093506134ef81612ff2565b604085015190925061350081612ff2565b809150509250925092565b6000813560ff81168114610fa257600080fd5b813581556020820135600182015560408201356002820155606082013560038201556080820135600482015560a0820135600582015560c0820135600682015560e082013560078201556008810161358d61357c610100850161350b565b825460ff191660ff91909116178255565b610f6461359d610120850161350b565b825461ff00191660089190911b61ff0016178255565b83815260406020820152816040820152818360608301376000818301606090810191909152601f909201601f1916010192915050565b6000602082840312156135fe576135fe612f37565b815161106781613125565b634e487b7160e01b600052604160045260246000fd5b80516130b8816130db565b6000602080838503121561364057613640612f37565b825167ffffffffffffffff8082111561365b5761365b612f87565b818501915085601f830112613672576136726131c1565b81518181111561368457613684613609565b8060051b604051601f19603f830116810181811085821117156136a9576136a9613609565b6040529182528482019250838101850191888311156136ca576136ca61321a565b938501935b828510156136ef576136e08561361f565b845293850193928501926136cf565b98975050505050505050565b634e487b7160e01b600052603260045260246000fd5b813561371c81612ff2565b61372681836133ae565b50602082013561373581612ff2565b610f6481600184016133ae565b6000600182016137545761375461341b565b5060010190565b600060ff821660ff81036137715761377161341b565b60010192915050565b600060ff83168061378d5761378d613448565b8060ff84160691505092915050565b60a0808252865190820181905260009060209060c0840190828a01845b828110156137db57815163ffffffff16845292840192908401906001016137b9565b50505096151590830152506040810193909352606083019190915260809091015291905056fe45746865722073656e7420746f206e6f6e2d70617961626c652066756e63746954617267657420636f6e747261637420646f6573206e6f7420636f6e7461696ea2646970667358221220c2809e413778c14a8c0ce42c03a1fab47bf17c8924a8dca3bb5c4f1d8a3d0e8264736f6c63430008140033",
  "linkReferences": {},
  "deployedLinkReferences": {}
}