{
  "_format": "hh-sol-artifact-1",
  "contractName": "DiceShake",
  "sourceName": "contracts/dices/DiceShake.sol",
  "abi": [
    {
      "inputs": [
        {
          "internalType": "uint256",
          "name": "_fee",
          "type": "uint256"
        },
        {
          "internalType": "uint256",
          "name": "_jackpotRate",
          "type": "uint256"
        },
        {
          "internalType": "uint256",
          "name": "_streakRate",
          "type": "uint256"
        },
        {
          "internalType": "uint256",
          "name": "_minBet",
          "type": "uint256"
        },
        {
          "internalType": "uint256",
          "name": "_maxBet",
          "type": "uint256"
        }
      ],
      "stateMutability": "nonpayable",
      "type": "constructor"
    },
    {
      "inputs": [
        {
          "internalType": "address",
          "name": "owner",
          "type": "address"
        }
      ],
      "name": "OwnableInvalidOwner",
      "type": "error"
    },
    {
      "inputs": [
        {
          "internalType": "address",
          "name": "account",
          "type": "address"
        }
      ],
      "name": "OwnableUnauthorizedAccount",
      "type": "error"
    },
    {
      "inputs": [],
      "name": "ReentrancyGuardReentrantCall",
      "type": "error"
    },
    {
      "anonymous": false,
      "inputs": [
        {
          "indexed": true,
          "internalType": "uint256",
          "name": "betId",
          "type": "uint256"
        },
        {
          "indexed": true,
          "internalType": "address",
          "name": "player",
          "type": "address"
        },
        {
          "indexed": false,
          "internalType": "uint256",
          "name": "betAmount",
          "type": "uint256"
        },
        {
          "indexed": false,
          "internalType": "string",
          "name": "note",
          "type": "string"
        }
      ],
      "name": "BetPlaced",
      "type": "event"
    },
    {
      "anonymous": false,
      "inputs": [
        {
          "indexed": true,
          "internalType": "uint256",
          "name": "betId",
          "type": "uint256"
        },
        {
          "indexed": true,
          "internalType": "address",
          "name": "player",
          "type": "address"
        },
        {
          "indexed": false,
          "internalType": "uint32[]",
          "name": "drawResults",
          "type": "uint32[]"
        },
        {
          "indexed": false,
          "internalType": "bool",
          "name": "won",
          "type": "bool"
        },
        {
          "indexed": false,
          "internalType": "uint256",
          "name": "payout",
          "type": "uint256"
        },
        {
          "indexed": false,
          "internalType": "uint256",
          "name": "jackpot",
          "type": "uint256"
        },
        {
          "indexed": false,
          "internalType": "uint256",
          "name": "streakBonus",
          "type": "uint256"
        }
      ],
      "name": "BetResult",
      "type": "event"
    },
    {
      "anonymous": false,
      "inputs": [
        {
          "indexed": true,
          "internalType": "address",
          "name": "sender",
          "type": "address"
        },
        {
          "indexed": false,
          "internalType": "uint256",
          "name": "value",
          "type": "uint256"
        },
        {
          "indexed": false,
          "internalType": "uint256",
          "name": "poolAmt",
          "type": "uint256"
        }
      ],
      "name": "Claim",
      "type": "event"
    },
    {
      "anonymous": false,
      "inputs": [
        {
          "indexed": true,
          "internalType": "address",
          "name": "sender",
          "type": "address"
        },
        {
          "indexed": false,
          "internalType": "uint256",
          "name": "value",
          "type": "uint256"
        }
      ],
      "name": "Deposit",
      "type": "event"
    },
    {
      "anonymous": false,
      "inputs": [
        {
          "indexed": true,
          "internalType": "address",
          "name": "sender",
          "type": "address"
        },
        {
          "indexed": false,
          "internalType": "uint256",
          "name": "value",
          "type": "uint256"
        }
      ],
      "name": "DepositJackpot",
      "type": "event"
    },
    {
      "anonymous": false,
      "inputs": [
        {
          "indexed": true,
          "internalType": "uint256",
          "name": "betId",
          "type": "uint256"
        },
        {
          "indexed": true,
          "internalType": "address",
          "name": "addr",
          "type": "address"
        },
        {
          "indexed": false,
          "internalType": "uint256",
          "name": "amount",
          "type": "uint256"
        }
      ],
      "name": "DistributeFee",
      "type": "event"
    },
    {
      "anonymous": false,
      "inputs": [
        {
          "indexed": true,
          "internalType": "address",
          "name": "owner",
          "type": "address"
        },
        {
          "indexed": false,
          "internalType": "uint256",
          "name": "amount",
          "type": "uint256"
        }
      ],
      "name": "EmergencyWithdraw",
      "type": "event"
    },
    {
      "anonymous": false,
      "inputs": [
        {
          "indexed": true,
          "internalType": "uint256",
          "name": "betId",
          "type": "uint256"
        },
        {
          "indexed": true,
          "internalType": "address",
          "name": "player",
          "type": "address"
        },
        {
          "indexed": false,
          "internalType": "uint256",
          "name": "amount",
          "type": "uint256"
        }
      ],
      "name": "JackpotWon",
      "type": "event"
    },
    {
      "anonymous": false,
      "inputs": [
        {
          "indexed": true,
          "internalType": "uint256",
          "name": "betId",
          "type": "uint256"
        },
        {
          "indexed": true,
          "internalType": "address",
          "name": "player",
          "type": "address"
        },
        {
          "indexed": false,
          "internalType": "uint256",
          "name": "streak",
          "type": "uint256"
        },
        {
          "indexed": false,
          "internalType": "uint256",
          "name": "bonus",
          "type": "uint256"
        }
      ],
      "name": "LossStreakBonus",
      "type": "event"
    },
    {
      "anonymous": false,
      "inputs": [
        {
          "indexed": true,
          "internalType": "address",
          "name": "previousOwner",
          "type": "address"
        },
        {
          "indexed": true,
          "internalType": "address",
          "name": "newOwner",
          "type": "address"
        }
      ],
      "name": "OwnershipTransferred",
      "type": "event"
    },
    {
      "anonymous": false,
      "inputs": [
        {
          "indexed": true,
          "internalType": "uint256",
          "name": "betId",
          "type": "uint256"
        },
        {
          "indexed": true,
          "internalType": "address",
          "name": "user",
          "type": "address"
        },
        {
          "indexed": true,
          "internalType": "address",
          "name": "referrer",
          "type": "address"
        },
        {
          "indexed": false,
          "internalType": "uint256",
          "name": "value",
          "type": "uint256"
        },
        {
          "indexed": false,
          "internalType": "uint256",
          "name": "amount",
          "type": "uint256"
        }
      ],
      "name": "ReferralReward",
      "type": "event"
    },
    {
      "anonymous": false,
      "inputs": [
        {
          "indexed": true,
          "internalType": "uint256",
          "name": "betId",
          "type": "uint256"
        },
        {
          "indexed": true,
          "internalType": "address",
          "name": "player",
          "type": "address"
        },
        {
          "indexed": false,
          "internalType": "uint256",
          "name": "streak",
          "type": "uint256"
        },
        {
          "indexed": false,
          "internalType": "uint256",
          "name": "bonus",
          "type": "uint256"
        }
      ],
      "name": "WinStreakBonus",
      "type": "event"
    },
    {
      "inputs": [
        {
          "internalType": "uint256",
          "name": "",
          "type": "uint256"
        }
      ],
      "name": "betExts",
      "outputs": [
        {
          "internalType": "enum DiceShake.BetType",
          "name": "betType",
          "type": "uint8"
        },
        {
          "internalType": "uint256",
          "name": "betNumber",
          "type": "uint256"
        },
        {
          "internalType": "uint256",
          "name": "rangeEnd",
          "type": "uint256"
        },
        {
          "internalType": "uint256",
          "name": "multiplier",
          "type": "uint256"
        },
        {
          "internalType": "bool",
          "name": "isOver",
          "type": "bool"
        }
      ],
      "stateMutability": "view",
      "type": "function"
    },
    {
      "inputs": [
        {
          "internalType": "uint256",
          "name": "",
          "type": "uint256"
        }
      ],
      "name": "bets",
      "outputs": [
        {
          "internalType": "address",
          "name": "player",
          "type": "address"
        },
        {
          "internalType": "uint256",
          "name": "betAmount",
          "type": "uint256"
        },
        {
          "internalType": "enum BetStatus",
          "name": "betStatus",
          "type": "uint8"
        },
        {
          "internalType": "uint256",
          "name": "winAmount",
          "type": "uint256"
        }
      ],
      "stateMutability": "view",
      "type": "function"
    },
    {
      "inputs": [
        {
          "internalType": "enum DiceShake.BetType",
          "name": "betType",
          "type": "uint8"
        },
        {
          "internalType": "uint256",
          "name": "betNumber",
          "type": "uint256"
        },
        {
          "internalType": "uint256",
          "name": "rangeEnd",
          "type": "uint256"
        },
        {
          "internalType": "bool",
          "name": "isOver",
          "type": "bool"
        }
      ],
      "name": "calculateMultiplier",
      "outputs": [
        {
          "internalType": "uint256",
          "name": "",
          "type": "uint256"
        }
      ],
      "stateMutability": "view",
      "type": "function"
    },
    {
      "inputs": [
        {
          "internalType": "uint32",
          "name": "drawResult",
          "type": "uint32"
        },
        {
          "internalType": "enum DiceShake.BetType",
          "name": "betType",
          "type": "uint8"
        },
        {
          "internalType": "uint256",
          "name": "betNumber",
          "type": "uint256"
        },
        {
          "internalType": "uint256",
          "name": "rangeEnd",
          "type": "uint256"
        },
        {
          "internalType": "bool",
          "name": "isOver",
          "type": "bool"
        }
      ],
      "name": "calculatePrize",
      "outputs": [
        {
          "internalType": "bool",
          "name": "",
          "type": "bool"
        }
      ],
      "stateMutability": "pure",
      "type": "function"
    },
    {
      "inputs": [
        {
          "internalType": "uint256",
          "name": "winRate",
          "type": "uint256"
        }
      ],
      "name": "calculateStreakWinMultiplier",
      "outputs": [
        {
          "internalType": "uint256",
          "name": "",
          "type": "uint256"
        }
      ],
      "stateMutability": "view",
      "type": "function"
    },
    {
      "inputs": [
        {
          "internalType": "uint256",
          "name": "betId",
          "type": "uint256"
        }
      ],
      "name": "calculateWinRate",
      "outputs": [
        {
          "internalType": "uint256",
          "name": "",
          "type": "uint256"
        }
      ],
      "stateMutability": "view",
      "type": "function"
    },
    {
      "inputs": [],
      "name": "claim",
      "outputs": [],
      "stateMutability": "nonpayable",
      "type": "function"
    },
    {
      "inputs": [],
      "name": "deposit",
      "outputs": [],
      "stateMutability": "payable",
      "type": "function"
    },
    {
      "inputs": [],
      "name": "depositJackpot",
      "outputs": [],
      "stateMutability": "payable",
      "type": "function"
    },
    {
      "inputs": [
        {
          "internalType": "uint256",
          "name": "",
          "type": "uint256"
        },
        {
          "internalType": "uint256",
          "name": "",
          "type": "uint256"
        }
      ],
      "name": "drawNumbers",
      "outputs": [
        {
          "internalType": "uint32",
          "name": "",
          "type": "uint32"
        }
      ],
      "stateMutability": "view",
      "type": "function"
    },
    {
      "inputs": [
        {
          "internalType": "uint256",
          "name": "amount",
          "type": "uint256"
        }
      ],
      "name": "emergencyWithdraw",
      "outputs": [],
      "stateMutability": "nonpayable",
      "type": "function"
    },
    {
      "inputs": [],
      "name": "feeAddress",
      "outputs": [
        {
          "internalType": "address",
          "name": "staking",
          "type": "address"
        },
        {
          "internalType": "address",
          "name": "charity",
          "type": "address"
        },
        {
          "internalType": "address",
          "name": "platform",
          "type": "address"
        }
      ],
      "stateMutability": "view",
      "type": "function"
    },
    {
      "inputs": [],
      "name": "feeDistribution",
      "outputs": [
        {
          "internalType": "uint256",
          "name": "staking",
          "type": "uint256"
        },
        {
          "internalType": "uint256",
          "name": "referralLv1",
          "type": "uint256"
        },
        {
          "internalType": "uint256",
          "name": "referralLv2",
          "type": "uint256"
        },
        {
          "internalType": "uint256",
          "name": "charity",
          "type": "uint256"
        },
        {
          "internalType": "uint256",
          "name": "platform",
          "type": "uint256"
        }
      ],
      "stateMutability": "view",
      "type": "function"
    },
    {
      "inputs": [],
      "name": "gameStats",
      "outputs": [
        {
          "internalType": "uint256",
          "name": "currentId",
          "type": "uint256"
        },
        {
          "internalType": "uint256",
          "name": "payouts",
          "type": "uint256"
        },
        {
          "internalType": "uint256",
          "name": "claims",
          "type": "uint256"
        },
        {
          "internalType": "uint256",
          "name": "gamePool",
          "type": "uint256"
        },
        {
          "internalType": "uint256",
          "name": "jackpotPool",
          "type": "uint256"
        },
        {
          "internalType": "uint256",
          "name": "streakPool",
          "type": "uint256"
        }
      ],
      "stateMutability": "view",
      "type": "function"
    },
    {
      "inputs": [
        {
          "internalType": "address",
          "name": "user",
          "type": "address"
        }
      ],
      "name": "getReferrer",
      "outputs": [
        {
          "internalType": "address",
          "name": "",
          "type": "address"
        },
        {
          "internalType": "address",
          "name": "",
          "type": "address"
        },
        {
          "internalType": "address",
          "name": "",
          "type": "address"
        }
      ],
      "stateMutability": "view",
      "type": "function"
    },
    {
      "inputs": [],
      "name": "getStakePool",
      "outputs": [
        {
          "internalType": "uint256",
          "name": "",
          "type": "uint256"
        }
      ],
      "stateMutability": "view",
      "type": "function"
    },
    {
      "inputs": [],
      "name": "interfaces",
      "outputs": [
        {
          "internalType": "contract IVRF",
          "name": "VRF",
          "type": "address"
        },
        {
          "internalType": "contract IReferral",
          "name": "REFERRAL",
          "type": "address"
        }
      ],
      "stateMutability": "view",
      "type": "function"
    },
    {
      "inputs": [
        {
          "internalType": "address",
          "name": "",
          "type": "address"
        }
      ],
      "name": "operators",
      "outputs": [
        {
          "internalType": "bool",
          "name": "",
          "type": "bool"
        }
      ],
      "stateMutability": "view",
      "type": "function"
    },
    {
      "inputs": [],
      "name": "owner",
      "outputs": [
        {
          "internalType": "address",
          "name": "",
          "type": "address"
        }
      ],
      "stateMutability": "view",
      "type": "function"
    },
    {
      "inputs": [
        {
          "internalType": "enum DiceShake.BetType",
          "name": "betType",
          "type": "uint8"
        },
        {
          "internalType": "uint256",
          "name": "betAmount",
          "type": "uint256"
        },
        {
          "internalType": "uint256",
          "name": "betNumber",
          "type": "uint256"
        },
        {
          "internalType": "uint256",
          "name": "rangeEnd",
          "type": "uint256"
        },
        {
          "internalType": "bool",
          "name": "isOver",
          "type": "bool"
        },
        {
          "internalType": "address",
          "name": "player",
          "type": "address"
        },
        {
          "internalType": "address",
          "name": "ref",
          "type": "address"
        },
        {
          "internalType": "string",
          "name": "note",
          "type": "string"
        }
      ],
      "name": "placeBet",
      "outputs": [],
      "stateMutability": "payable",
      "type": "function"
    },
    {
      "inputs": [
        {
          "internalType": "address",
          "name": "",
          "type": "address"
        }
      ],
      "name": "players",
      "outputs": [
        {
          "internalType": "uint256",
          "name": "winnings",
          "type": "uint256"
        },
        {
          "internalType": "uint256",
          "name": "claims",
          "type": "uint256"
        },
        {
          "internalType": "uint256",
          "name": "lastBetAmount",
          "type": "uint256"
        },
        {
          "internalType": "uint8",
          "name": "winStreak",
          "type": "uint8"
        },
        {
          "internalType": "uint8",
          "name": "loseStreak",
          "type": "uint8"
        }
      ],
      "stateMutability": "view",
      "type": "function"
    },
    {
      "inputs": [
        {
          "internalType": "uint256",
          "name": "id",
          "type": "uint256"
        }
      ],
      "name": "redeem",
      "outputs": [],
      "stateMutability": "nonpayable",
      "type": "function"
    },
    {
      "inputs": [],
      "name": "renounceOwnership",
      "outputs": [],
      "stateMutability": "nonpayable",
      "type": "function"
    },
    {
      "inputs": [
        {
          "components": [
            {
              "internalType": "address",
              "name": "staking",
              "type": "address"
            },
            {
              "internalType": "address",
              "name": "charity",
              "type": "address"
            },
            {
              "internalType": "address",
              "name": "platform",
              "type": "address"
            }
          ],
          "internalType": "struct FeeAddress",
          "name": "_addrs",
          "type": "tuple"
        }
      ],
      "name": "setFeeAddress",
      "outputs": [],
      "stateMutability": "nonpayable",
      "type": "function"
    },
    {
      "inputs": [
        {
          "components": [
            {
              "internalType": "uint256",
              "name": "staking",
              "type": "uint256"
            },
            {
              "internalType": "uint256",
              "name": "referralLv1",
              "type": "uint256"
            },
            {
              "internalType": "uint256",
              "name": "referralLv2",
              "type": "uint256"
            },
            {
              "internalType": "uint256",
              "name": "charity",
              "type": "uint256"
            },
            {
              "internalType": "uint256",
              "name": "platform",
              "type": "uint256"
            }
          ],
          "internalType": "struct FeeDistribution",
          "name": "_fees",
          "type": "tuple"
        }
      ],
      "name": "setFeeDistribution",
      "outputs": [],
      "stateMutability": "nonpayable",
      "type": "function"
    },
    {
      "inputs": [
        {
          "components": [
            {
              "internalType": "contract IVRF",
              "name": "VRF",
              "type": "address"
            },
            {
              "internalType": "contract IReferral",
              "name": "REFERRAL",
              "type": "address"
            }
          ],
          "internalType": "struct GameInterface",
          "name": "_interfaces",
          "type": "tuple"
        }
      ],
      "name": "setInterfaces",
      "outputs": [],
      "stateMutability": "nonpayable",
      "type": "function"
    },
    {
      "inputs": [
        {
          "internalType": "address",
          "name": "_addr",
          "type": "address"
        },
        {
          "internalType": "bool",
          "name": "_enable",
          "type": "bool"
        }
      ],
      "name": "setOperator",
      "outputs": [],
      "stateMutability": "nonpayable",
      "type": "function"
    },
    {
      "inputs": [
        {
          "components": [
            {
              "internalType": "uint256",
              "name": "protocolFee",
              "type": "uint256"
            },
            {
              "internalType": "uint256",
              "name": "jackpotRate",
              "type": "uint256"
            },
            {
              "internalType": "uint256",
              "name": "jackpotBonus",
              "type": "uint256"
            },
            {
              "internalType": "uint256",
              "name": "minBet",
              "type": "uint256"
            },
            {
              "internalType": "uint256",
              "name": "maxBet",
              "type": "uint256"
            },
            {
              "internalType": "uint256",
              "name": "streakRate",
              "type": "uint256"
            },
            {
              "internalType": "uint256",
              "name": "baseWinStreak",
              "type": "uint256"
            },
            {
              "internalType": "uint256",
              "name": "winStreakSlope",
              "type": "uint256"
            },
            {
              "internalType": "uint8",
              "name": "winStreakCount",
              "type": "uint8"
            },
            {
              "internalType": "uint8",
              "name": "lossStreakCount",
              "type": "uint8"
            }
          ],
          "internalType": "struct GameSetting",
          "name": "_settings",
          "type": "tuple"
        }
      ],
      "name": "setSettings",
      "outputs": [],
      "stateMutability": "nonpayable",
      "type": "function"
    },
    {
      "inputs": [],
      "name": "settings",
      "outputs": [
        {
          "internalType": "uint256",
          "name": "protocolFee",
          "type": "uint256"
        },
        {
          "internalType": "uint256",
          "name": "jackpotRate",
          "type": "uint256"
        },
        {
          "internalType": "uint256",
          "name": "jackpotBonus",
          "type": "uint256"
        },
        {
          "internalType": "uint256",
          "name": "minBet",
          "type": "uint256"
        },
        {
          "internalType": "uint256",
          "name": "maxBet",
          "type": "uint256"
        },
        {
          "internalType": "uint256",
          "name": "streakRate",
          "type": "uint256"
        },
        {
          "internalType": "uint256",
          "name": "baseWinStreak",
          "type": "uint256"
        },
        {
          "internalType": "uint256",
          "name": "winStreakSlope",
          "type": "uint256"
        },
        {
          "internalType": "uint8",
          "name": "winStreakCount",
          "type": "uint8"
        },
        {
          "internalType": "uint8",
          "name": "lossStreakCount",
          "type": "uint8"
        }
      ],
      "stateMutability": "view",
      "type": "function"
    },
    {
      "inputs": [
        {
          "internalType": "address",
          "name": "newOwner",
          "type": "address"
        }
      ],
      "name": "transferOwnership",
      "outputs": [],
      "stateMutability": "nonpayable",
      "type": "function"
    }
  ],
  "bytecode": "0x60806040523480156200005e5760405162461bcd60e51b815260206004820152602260248201527f45746865722073656e7420746f206e6f6e2d70617961626c652066756e637469604482019081526137b760f11b6064830152608482fd5b5060405162003bd038038062003bd0833981016040819052620000819162000187565b600160005584848484843380620000b257604051631e4fbdf760e01b81526000600482015260240160405180910390fd5b620000bd8162000135565b50336000908152601e60205260409020805460ff19166001179055600894909455600992909255600d55600b55600c555050610bb8600a8190556005600f556010805461050561ffff1990911617905560135550506109606014555060646015556101f4601655610fa06017556004600e5562000213565b600180546001600160a01b038381166001600160a01b0319831681179093556040519116919082907f8be0079c531659141344cd1fd0a4f28419497f9722a3daafe3b4186f6b6457e090600090a35050565b600080600080600060a08688031215620001eb5760405162461bcd60e51b815260206004820152602260248201527f414249206465636f64696e673a207475706c65206461746120746f6f2073686f6044820152611c9d60f21b6064820152608481fd5b5050835160208501516040860151606087015160809097015192989197509594509092509050565b6139ad80620002236000396000f3fe6080604052600436106101cd5760003560e01c806385f3f954116100f7578063dcee64fb11610095578063e2eb41ff11610064578063e2eb41ff14610c50578063e5a925a814610d07578063f2709f2114610d62578063f2fde38b14610de4576101cd565b8063dcee64fb14610b0c578063ddd96b1e14610b1f578063e06174e414610b7a578063e0fa288114610c48576101cd565b8063cc3cf5a3116100d1578063cc3cf5a3146109bb578063d0e30db014610a16578063d68199dc14610a1e578063db006a7514610ab1576101cd565b806385f3f9541461084d5780638da5cb5b146108e8578063a37355301461094b576101cd565b8063412753581161016f578063558a72971161013e578063558a7297146106ed5780635609cd9e14610748578063715018a6146107a35780637d5e7c32146107f3576101cd565b806341275358146105555780634a9fefc7146105e75780634e71d92d146106425780635312ea8e14610692576101cd565b806322af00fa116101ab57806322af00fa1461036a57806323ac7267146104075780632479b177146104705780632cce8ba0146104fa576101cd565b80630eaa845e146102325780631324fa23146102a257806313e7c9d8146102ff575b60405162461bcd60e51b815260206004820152603560248201527f436f6e747261637420646f6573206e6f7420686176652066616c6c6261636b2060448201908152746e6f7220726563656976652066756e6374696f6e7360581b6064830152608482fd5b3480156102795760405162461bcd60e51b81526020600482015260226024820152600080516020613938833981519152604482019081526137b760f11b6064830152608482fd5b5061028d6102883660046130d5565b610e3f565b60405190151581526020015b60405180910390f35b3480156102e95760405162461bcd60e51b81526020600482015260226024820152600080516020613938833981519152604482019081526137b760f11b6064830152608482fd5b506102fd6102f8366004613135565b610f39565b005b3480156103465760405162461bcd60e51b81526020600482015260226024820152600080516020613938833981519152604482019081526137b760f11b6064830152608482fd5b5061028d610355366004613165565b601e6020526000908152604090205460ff1681565b3480156103b15760405162461bcd60e51b81526020600482015260226024820152600080516020613938833981519152604482019081526137b760f11b6064830152608482fd5b506103f76103c0366004613185565b601c6020526000908152604090208054600182015460028301546003909301546001600160a01b0390921692909160ff9091169084565b60405161029994939291906131b7565b34801561044e5760405162461bcd60e51b81526020600482015260226024820152600080516020613938833981519152604482019081526137b760f11b6064830152608482fd5b5061046261045d366004613185565b610f53565b604051908152602001610299565b3480156104b75760405162461bcd60e51b81526020600482015260226024820152600080516020613938833981519152604482019081526137b760f11b6064830152608482fd5b506013546014546015546016546017546104d2949392919085565b604080519586526020860194909452928401919091526060830152608082015260a001610299565b3480156105415760405162461bcd60e51b81526020600482015260226024820152600080516020613938833981519152604482019081526137b760f11b6064830152608482fd5b50610462610550366004613185565b610f92565b34801561059c5760405162461bcd60e51b81526020600482015260226024820152600080516020613938833981519152604482019081526137b760f11b6064830152608482fd5b50601854601954601a546105bd926001600160a01b03908116928116911683565b604080516001600160a01b0394851681529284166020840152921691810191909152606001610299565b34801561062e5760405162461bcd60e51b81526020600482015260226024820152600080516020613938833981519152604482019081526137b760f11b6064830152608482fd5b506105bd61063d366004613165565b611089565b3480156106895760405162461bcd60e51b81526020600482015260226024820152600080516020613938833981519152604482019081526137b760f11b6064830152608482fd5b506102fd611158565b3480156106d95760405162461bcd60e51b81526020600482015260226024820152600080516020613938833981519152604482019081526137b760f11b6064830152608482fd5b506102fd6106e8366004613185565b611382565b3480156107345760405162461bcd60e51b81526020600482015260226024820152600080516020613938833981519152604482019081526137b760f11b6064830152608482fd5b506102fd6107433660046131f0565b61143d565b34801561078f5760405162461bcd60e51b81526020600482015260226024820152600080516020613938833981519152604482019081526137b760f11b6064830152608482fd5b506102fd61079e36600461322c565b6114af565b3480156107ea5760405162461bcd60e51b81526020600482015260226024820152600080516020613938833981519152604482019081526137b760f11b6064830152608482fd5b506102fd61153e565b34801561083a5760405162461bcd60e51b81526020600482015260226024820152600080516020613938833981519152604482019081526137b760f11b6064830152608482fd5b506018546001600160a01b031631610462565b3480156108945760405162461bcd60e51b81526020600482015260226024820152600080516020613938833981519152604482019081526137b760f11b6064830152608482fd5b506108d76108a3366004613185565b601f602052600090815260409020805460018201546002830154600384015460049094015460ff9384169492939192911685565b604051610299959493929190613242565b34801561092f5760405162461bcd60e51b81526020600482015260226024820152600080516020613938833981519152604482019081526137b760f11b6064830152608482fd5b506001546040516001600160a01b039091168152602001610299565b3480156109925760405162461bcd60e51b81526020600482015260226024820152600080516020613938833981519152604482019081526137b760f11b6064830152608482fd5b506109a66109a1366004613279565b611550565b60405163ffffffff9091168152602001610299565b348015610a025760405162461bcd60e51b81526020600482015260226024820152600080516020613938833981519152604482019081526137b760f11b6064830152608482fd5b50610462610a1136600461329e565b611599565b6102fd611699565b348015610a655760405162461bcd60e51b81526020600482015260226024820152600080516020613938833981519152604482019081526137b760f11b6064830152608482fd5b50600254600354600454600554600654600754610a8495949392919086565b604080519687526020870195909552938501929092526060840152608083015260a082015260c001610299565b348015610af85760405162461bcd60e51b81526020600482015260226024820152600080516020613938833981519152604482019081526137b760f11b6064830152608482fd5b506102fd610b07366004613185565b6116fb565b6102fd610b1a36600461339b565b611979565b348015610b665760405162461bcd60e51b81526020600482015260226024820152600080516020613938833981519152604482019081526137b760f11b6064830152608482fd5b506102fd610b753660046134d3565b611d24565b348015610bc15760405162461bcd60e51b81526020600482015260226024820152600080516020613938833981519152604482019081526137b760f11b6064830152608482fd5b50600854600954600a54600b54600c54600d54600e54600f54601054610bf898979695949392919060ff808216916101009004168a565b604080519a8b5260208b0199909952978901969096526060880194909452608087019290925260a086015260c085015260e084015260ff9081166101008401521661012082015261014001610299565b6102fd611d52565b348015610c975760405162461bcd60e51b81526020600482015260226024820152600080516020613938833981519152604482019081526137b760f11b6064830152608482fd5b50610cd9610ca6366004613165565b601b6020526000908152604090208054600182015460028301546003909301549192909160ff8082169161010090041685565b6040805195865260208601949094529284019190915260ff908116606084015216608082015260a001610299565b348015610d4e5760405162461bcd60e51b81526020600482015260226024820152600080516020613938833981519152604482019081526137b760f11b6064830152608482fd5b506102fd610d5d3660046134e8565b611dc0565b348015610da95760405162461bcd60e51b81526020600482015260226024820152600080516020613938833981519152604482019081526137b760f11b6064830152608482fd5b50601154601254610dc4916001600160a01b03908116911682565b604080516001600160a01b03938416815292909116602083015201610299565b348015610e2b5760405162461bcd60e51b81526020600482015260226024820152600080516020613938833981519152604482019081526137b760f11b6064830152608482fd5b506102fd610e3a366004613165565b611dd5565b600080856003811115610e5457610e546131a1565b03610e8b57818015610e6b5750838663ffffffff16115b80610e84575081158015610e845750838663ffffffff16105b9050610f30565b6001856003811115610e9f57610e9f6131a1565b03610ec657838663ffffffff1610158015610e845750828663ffffffff1611159050610f30565b6002856003811115610eda57610eda6131a1565b03610efa57610eea600287613513565b63ffffffff166001149050610f30565b6003856003811115610f0e57610f0e6131a1565b03610f2c57610f1e600287613513565b63ffffffff16159050610f30565b5060005b95945050505050565b610f41611e10565b806018610f4e8282613556565b505050565b600e54600090610f64576000610f8c565b600f546103e890610f7590846135b9565b610f7f91906135d0565b600e54610f8c91906135e4565b92915050565b6000818152601f6020526040812081815460ff166003811115610fb757610fb76131a1565b03610ffc57600481015460ff1615610feb576001810154610fd99060646135e4565b610fe490600a6135b9565b9392505050565b60018160010154610fd991906135e4565b6001815460ff166003811115611014576110146131a1565b03611038578060010154816002015461102d91906135e4565b610fd99060016135f7565b6002815460ff166003811115611050576110506131a1565b148061107157506003815460ff16600381111561106f5761106f6131a1565b145b1561108057506101f492915050565b50600092915050565b601254604051634a9fefc760e01b81526001600160a01b0383811660048301526000928392839290911690634a9fefc79060240160606040518083038186803b1580156111135760405162461bcd60e51b81526020600482015260256024820152600080516020613958833981519152604482019081526420636f646560d81b6064830152608482fd5b505afa158015611127573d6000803e3d6000fd5b505050506040513d601f19601f8201168201806040525081019061114b919061360a565b9250925092509193909250565b611160611e3d565b336000908152601b602052604090208054806111ba5760405162461bcd60e51b81526020600482015260146024820152734e6f2077696e6e696e677320746f20636c61696d60601b60448201526064015b60405180910390fd5b4760006111d06018546001600160a01b03163190565b905060008284116111e157836111e3565b825b905060006111f182866135e4565b90508281116112005780611202565b825b9050600061121082846135f7565b9050600081116112625760405162461bcd60e51b815260206004820152601a60248201527f496e73756666696369656e7420636c61696d2062616c616e636500000000000060448201526064016111b1565b86548190038755600187018054820190556004805482019055821561128b5761128b3384611e67565b811561133457601854604051637695a07560e11b8152336004820152602481018490526001600160a01b039091169063ed2b40ea90604401600060405180830381600087803b15801561131b5760405162461bcd60e51b81526020600482015260256024820152600080516020613958833981519152604482019081526420636f646560d81b6064830152608482fd5b505af115801561132f573d6000803e3d6000fd5b505050505b604080518281526020810184905233917f34fcbac0073d7c3d388e51312faf357774904998eeb8fca628b9e6f65ee1cbf7910160405180910390a2505050505050506113806001600055565b565b61138a611e10565b478111156113d15760405162461bcd60e51b8152602060048201526014602482015273496e73756666696369656e742062616c616e636560601b60448201526064016111b1565b6113ec6113e66001546001600160a01b031690565b82611e67565b6001546001600160a01b03166001600160a01b03167f5fafa99d0643513820be26656b45130b01e1c03062e1266bf36f88cbd3bd96958260405161143291815260200190565b60405180910390a250565b611445611e10565b6001600160a01b0382166114845760405162461bcd60e51b81526020600482015260066024820152652b9030b2323960d11b60448201526064016111b1565b6001600160a01b03919091166000908152601e60205260409020805460ff1916911515919091179055565b6114b7611e10565b80608001358160600135106114f65760405162461bcd60e51b815260206004820152600560248201526415c818995d60da1b60448201526064016111b1565b611388813511156115315760405162461bcd60e51b8152602060048201526005602482015264572066656560d81b60448201526064016111b1565b806008610f4e828261366d565b611546611e10565b6113806000611f02565b601d602052816000526040600020818154811061156c57600080fd5b9060005260206000209060089182820401919006600402915091509054906101000a900463ffffffff1681565b600d54600954600854600092910101620f4240612710829003838860038111156115c5576115c56131a1565b036116135784156115fd57612710818884816115e3576115e36134fd565b0402816115f2576115f26134fd565b049350505050611691565b612710818860650384816115e3576115e36134fd565b6001886003811115611627576116276131a1565b03611644576127108188880360010184816115e3576115e36134fd565b6002886003811115611658576116586131a1565b148061167557506003886003811115611673576116736131a1565b145b15611687576002029250611691915050565b9250611691915050565b949350505050565b6116a1611e3d565b34600260030160008282546116b691906135f7565b909155505060405134815233907fe1fffcc4923d04b559f4d29a8bfc6cda04eb5b0d3c460751c2402c5c5cc9109c906020015b60405180910390a26113806001600055565b611703611e3d565b60115460405163231fdc6360e11b8152600481018390526000916001600160a01b03169063463fb8c69060240160006040518083038186803b1580156117865760405162461bcd60e51b81526020600482015260256024820152600080516020613958833981519152604482019081526420636f646560d81b6064830152608482fd5b505afa15801561179a573d6000803e3d6000fd5b505050506040513d6000823e601f3d908101601f191682016040526117c29190810190613723565b9050805160011461180c5760405162461bcd60e51b8152602060048201526014602482015273496e76616c69642064726177206e756d6265727360601b60448201526064016111b1565b600081600081518110611821576118216137f4565b6020026020010151905060008163ffffffff16118015611848575060648163ffffffff1611155b61188a5760405162461bcd60e51b815260206004820152601360248201527224b73b30b634b210323930bb90373ab6b132b960691b60448201526064016111b1565b6000838152601c60209081526040808320601f9092528220909160028084015460ff16908111156118bd576118bd6131a1565b146118fb5760405162461bcd60e51b815260206004820152600e60248201526d416c72656164792052656465656d60901b60448201526064016111b1565b815481546001830154600284015460048501546001600160a01b039094169360009384938493611935938b9360ff90811693929116610e3f565b905061195181876001015487600301548a63ffffffff16611f54565b909350915061196489858386868d611fc7565b50505050505050506119766001600055565b50565b611981611e3d565b60018710158015611993575060648711155b6119eb5760405162461bcd60e51b8152602060048201526024808201527f426574206e756d626572206d757374206265206265747765656e203120616e646044820152630203130360e41b60648201526084016111b1565b60018960038111156119ff576119ff6131a1565b03611ad357868610158015611a15575060648611155b611a765760405162461bcd60e51b815260206004820152602c60248201527f52616e676520656e64206d757374206265206265747765656e20626574206e7560448201526b06d62657220616e64203130360a41b60648201526084016111b1565b601d611a8288886135e4565b10158015611a9957506046611a9788886135e4565b105b611ad35760405162461bcd60e51b815260206004820152600b60248201526a14985b99d9481b1a5b5a5d60aa1b60448201526064016111b1565b6001600160a01b038416611ae5573393505b611af288858585856123cb565b6002546000611b038b8a8a8a611599565b905060006040518060a001604052808d6003811115611b2457611b246131a1565b815260208082018d905260408083018d9052606083018690528b15156080909301929092526000868152601f90915220815181549293508392829060ff19166001836003811115611b7757611b776131a1565b0217905550602082015160018201556040808301516002830155606083015160038301556080909201516004909101805460ff1916911515919091179055516001600160a01b0388169084907f3a5b25f48e15ab3e4d810304ed7368c35de823921fa3fd504ba8ab2841bf1ad790611bf4908f908a908a9061380a565b60405180910390a3601154604051632634d7b160e01b815260048101859052606460248201819052600160448301526000926001600160a01b031691632634d7b19101602060405180830381600087803b158015611c8f5760405162461bcd60e51b81526020600482015260256024820152600080516020613958833981519152604482019081526420636f646560d81b6064830152608482fd5b505af1158015611ca3573d6000803e3d6000fd5b505050506040513d601f19601f82011682018060405250810190611cc79190613840565b905080611d0b5760405162461bcd60e51b8152602060048201526012602482015271159491881c995c5d595cdd0819985a5b195960721b60448201526064016111b1565b50505050611d196001600055565b505050505050505050565b611d2c611e10565b803560135560208101356014556040810135601555606081013560165560800135601755565b611d5a611e3d565b3460026004016000828254611d6f91906135f7565b909155505060058054349190600090611d899084906135f7565b909155505060405134815233907f7d08b5b7cfe8722872406c430472d942802a7e0b6185e43af8614a65d80a2685906020016116e9565b611dc8611e10565b806011610f4e8282613860565b611ddd611e10565b6001600160a01b038116611e0757604051631e4fbdf760e01b8152600060048201526024016111b1565b61197681611f02565b6001546001600160a01b031633146113805760405163118cdaa760e01b81523360048201526024016111b1565b600260005403611e6057604051633ee5aeb560e01b815260040160405180910390fd5b6002600055565b6000826001600160a01b03168260405160006040518083038185875af1925050503d8060008114611eb4576040519150601f19603f3d011682016040523d82523d6000602084013e611eb9565b606091505b5050905080610f4e5760405162461bcd60e51b8152602060048201526015602482015274119d5b991cc81d1c985b9cd9995c8819985a5b1959605a1b60448201526064016111b1565b600180546001600160a01b038381166001600160a01b0319831681179093556040519116919082907f8be0079c531659141344cd1fd0a4f28419497f9722a3daafe3b4186f6b6457e090600090a35050565b60008085611f6757506000905080611fbe565b6000612710611f7686886135b9565b611f8091906135d0565b9050600084602a1480611f935750846045145b15611fb857600a5460065461271091611fab916135b9565b611fb591906135d0565b90505b90925090505b94509492505050565b6000868152601c602090815260408083206001600160a01b0389168452601b9092528220909186156121b7578582600001600082825461200791906135f7565b90915550508415612086578482600001600082825461202691906135f7565b9091555050600680548691906000906120409084906135e4565b90915550506040518581526001600160a01b038916908a907ff75adeadf04a8ca4130d3774f98bdb151c71b80eb8ee92a224bced1c538e94089060200160405180910390a35b60038201805460ff1690600061209b83613891565b82546101009290920a60ff81810219909316918316021790915560038401805461ff00191690556010541615801591506120ed575060105460038301546120e89160ff90811691166138b0565b60ff16155b156121b25760006120fd8a610f92565b9050600061210a82610f53565b905080156121af5761212a81856002015461212591906135b9565b61275c565b92508284600001600082825461214091906135f7565b90915550506007805484919060009061215a9084906135e4565b909155505060038401546040805160ff9092168252602082018590526001600160a01b038c16918d917f1eb9ba50881142be7e98d634e04e0ab44e982b51a852a0b1c5b42794f514bd5c910160405180910390a35b50505b6122dc565b600382018054610100900460ff169060016121d183613891565b825460ff91821661010093840a908102908302199091161790925560038501805460ff191690556010540416158015915061222e575060105460038301546122299160ff6101009182900481169291909104166138b0565b60ff16155b156122dc57612240826002015461275c565b905080156122dc578082600001600082825461225c91906135f7565b9091555050600780548291906000906122769084906135e4565b909155505060038201546040805161010090920460ff168252602082018390526001600160a01b038a16918b917fa5efd59c84b6184b186b2ac69d3af610f1d9e422703ffa41286c1ea4a16774c2910160405180910390a360038201805461ff00191690555b866122e85760026122eb565b60015b8360020160006101000a81548160ff02191690836002811115612310576123106131a1565b02179055508061232086886135f7565b61232a91906135f7565b600380850191825560018501546002850155905481549091906000906123519084906135f7565b90915550506000898152601d60209081526040909120855161237592870190612f46565b50876001600160a01b0316897f17ee1fda62ed34ad897b1b279a255c2bf0d98bd8193e825855bec2abf58af085868a8a8a876040516123b89594939291906138d2565b60405180910390a3505050505050505050565b6001600160a01b038416158015906123eb57506001600160a01b0384163b155b6124285760405162461bcd60e51b815260206004820152600e60248201526d24b73b30b634b210383630bcb2b960911b60448201526064016111b1565b8434146124675760405162461bcd60e51b815260206004820152600d60248201526c496e76616c69642076616c756560981b60448201526064016111b1565b600b54851080159061247b5750600c548511155b6124bc5760405162461bcd60e51b8152602060048201526012602482015271125b9d985b1a590818995d08185b5bdd5b9d60721b60448201526064016111b1565b6101f48111156124fe5760405162461bcd60e51b815260206004820152600d60248201526c4e6f746520746f6f206c6f6e6760981b60448201526064016111b1565b6001600160a01b03831615806125395750836001600160a01b0316836001600160a01b03161415801561253957506001600160a01b0383163b155b6125735760405162461bcd60e51b815260206004820152600b60248201526a24b73b30b634b2103932b360a91b60448201526064016111b1565b6011546001600160a01b03166125b95760405162461bcd60e51b815260206004820152600b60248201526a159491881b9bdd081cd95d60aa1b60448201526064016111b1565b6002805460010190819055604080516080810182526001600160a01b0387168152602081018890529081016000815260006020918201819052838152601c8252604090819020835181546001600160a01b0319166001600160a01b039091161781559183015160018084019190915590830151600280840180549293909260ff191691849081111561264d5761264d6131a1565b0217905550606091909101516003909101556008546000906127109061267390896135b9565b61267d91906135d0565b905060006127106008600101548961269591906135b9565b61269f91906135d0565b905060006127106008600501548a6126b791906135b9565b6126c191906135d0565b9050600081836126d1868d6135e4565b6126db91906135e4565b6126e591906135e4565b905082600260040160008282546126fc91906135f7565b9091555050600780548391906000906127169084906135f7565b9091555050600580548291906000906127309084906135f7565b9091555060009050612743868a8c612775565b905061274f8682612d13565b5050505050505050505050565b60075460009082111561277157600754610f8c565b5090565b60125460009081906001600160a01b0316612794576000915050610fe4565b601254604051634a9fefc760e01b81526001600160a01b0385811660048301526000928392839290911690634a9fefc79060240160606040518083038186803b15801561281e5760405162461bcd60e51b81526020600482015260256024820152600080516020613958833981519152604482019081526420636f646560d81b6064830152608482fd5b505afa158015612832573d6000803e3d6000fd5b505050506040513d601f19601f82011682018060405250810190612856919061360a565b919450925090506001600160a01b03831615801561287b57506001600160a01b038116155b801561288f57506001600160a01b03871615155b15612a1c5760125460405163bbddaca360e01b81526001600160a01b03888116600483015289811660248301529091169063bbddaca390604401602060405180830381600087803b1580156129215760405162461bcd60e51b81526020600482015260256024820152600080516020613958833981519152604482019081526420636f646560d81b6064830152608482fd5b505af1158015612935573d6000803e3d6000fd5b505050506040513d601f19601f820116820180604052508101906129599190613840565b50601254604051634a9fefc760e01b81526001600160a01b03888116600483015290911690634a9fefc79060240160606040518083038186803b1580156129dd5760405162461bcd60e51b81526020600482015260256024820152600080516020613958833981519152604482019081526420636f646560d81b6064830152608482fd5b505afa1580156129f1573d6000803e3d6000fd5b505050506040513d601f19601f82011682018060405250810190612a15919061360a565b5090935091505b600854600003612a33576000945050505050610fe4565b6000888152601c60205260408120600181015460085491929161271091612a59916135b9565b612a6391906135d0565b90506001600160a01b03851615801590612a7e575060145415155b15612bb05760145460009061271090612a9790846135b9565b612aa191906135d0565b90506000866001600160a01b03168260405160006040518083038185875af1925050503d8060008114612af0576040519150601f19603f3d011682016040523d82523d6000602084013e612af5565b606091505b5050905080612b465760405162461bcd60e51b815260206004820152601860248201527f526566657272616c207472616e73666572206661696c6564000000000000000060448201526064016111b1565b612b5082896135f7565b9750866001600160a01b03168a6001600160a01b03168d7fddeda83d41934a8fda6300be94b9dc267458691ee488df53062cdd94652641ee876001015486604051612ba5929190918252602082015260400190565b60405180910390a450505b6001600160a01b03841615801590612bc9575060155415155b15612d055760155460009061271090612be290846135b9565b612bec91906135d0565b90506000856001600160a01b03168260405160006040518083038185875af1925050503d8060008114612c3b576040519150601f19603f3d011682016040523d82523d6000602084013e612c40565b606091505b5050905080612c9b5760405162461bcd60e51b815260206004820152602160248201527f526566657272616c207375706572696f72207472616e73666572206661696c656044820152601960fa1b60648201526084016111b1565b612ca582896135f7565b9750856001600160a01b03168a6001600160a01b03168d7fddeda83d41934a8fda6300be94b9dc267458691ee488df53062cdd94652641ee876001015486604051612cfa929190918252602082015260400190565b60405180910390a450505b509398975050505050505050565b600854600003612d21575050565b6000828152601c60205260408120600854600182015491929161271091612d47916135b9565b612d5191906135d0565b9050600061271060136003015483612d6991906135b9565b612d7391906135d0565b9050600061271060136000015484612d8b91906135b9565b612d9591906135d0565b9050612da185846135e4565b92508215612e3357818310158015612dcc5750601954612dcc9087906001600160a01b031684612e3b565b15612dde57612ddb82846135e4565b92505b808310158015612e015750601854612e019087906001600160a01b031683612e3b565b15612e1357612e1081846135e4565b92505b8215612e3357601a54612e319087906001600160a01b031685612e3b565b505b505050505050565b60006001600160a01b0383161580612e51575081155b15612e5e57506000610fe4565b6000836001600160a01b03168360405160006040518083038185875af1925050503d8060008114612eab576040519150601f19603f3d011682016040523d82523d6000602084013e612eb0565b606091505b5050905080612ef75760405162461bcd60e51b8152602060048201526013602482015272119959481d1c985b9cd9995c8819985a5b1959606a1b60448201526064016111b1565b836001600160a01b0316857fab5d6bc525addf3dd899ddc72dd91cf3862ff6b876a97ef651614887119a5d0c85604051612f3391815260200190565b60405180910390a3506001949350505050565b82805482825590600052602060002090600701600890048101928215612fe55791602002820160005b83821115612fb357835183826101000a81548163ffffffff021916908363ffffffff1602179055509260200192600401602081600301049283019260010302612f6f565b8015612fe35782816101000a81549063ffffffff0219169055600401602081600301049283019260010302612fb3565b505b506127719291505b808211156127715760008155600101612fed565b60405162461bcd60e51b815260206004820152602260248201527f414249206465636f64696e673a207475706c65206461746120746f6f2073686f6044820152611c9d60f21b6064820152608481fd5b60405162461bcd60e51b815260206004820152602260248201527f414249206465636f64696e673a20696e76616c6964207475706c65206f666673604482015261195d60f21b6064820152608481fd5b63ffffffff8116811461197657600080fd5b8035600481106130c257600080fd5b919050565b801515811461197657600080fd5b600080600080600060a086880312156130f0576130f0613001565b85356130fb816130a1565b9450613109602087016130b3565b935060408601359250606086013591506080860135613127816130c7565b809150509295509295909350565b60006060828403121561314a5761314a613001565b50919050565b6001600160a01b038116811461197657600080fd5b60006020828403121561317a5761317a613001565b8135610fe481613150565b60006020828403121561319a5761319a613001565b5035919050565b634e487b7160e01b600052602160045260246000fd5b6001600160a01b03851681526020810184905260808101600384106131de576131de6131a1565b60408201939093526060015292915050565b6000806040838503121561320657613206613001565b823561321181613150565b91506020830135613221816130c7565b809150509250929050565b6000610140828403121561314a5761314a613001565b60a0810160048710613256576132566131a1565b958152602081019490945260408401929092526060830152151560809091015290565b6000806040838503121561328f5761328f613001565b50508035926020909101359150565b600080600080608085870312156132b7576132b7613001565b6132c0856130b3565b9350602085013592506040850135915060608501356132de816130c7565b939692955090935050565b60405162461bcd60e51b815260206004820152602b60248201527f414249206465636f64696e673a20696e76616c69642063616c6c64617461206160448201526a1c9c985e481bd9999cd95d60aa1b6064820152608481fd5b60405162461bcd60e51b815260206004820152602b60248201527f414249206465636f64696e673a20696e76616c69642063616c6c64617461206160448201526a727261792073747269646560a81b6064820152608481fd5b60008060008060008060008060006101008a8c0312156133bd576133bd613001565b6133c68a6130b3565b985060208a0135975060408a0135965060608a0135955060808a01356133eb816130c7565b945060a08a01356133fb81613150565b935060c08a013561340b81613150565b925060e08a013567ffffffffffffffff8082111561342b5761342b613051565b818c0191508c601f830112613442576134426132e9565b8135818111156134a55760405162461bcd60e51b815260206004820152602b60248201527f414249206465636f64696e673a20696e76616c69642063616c6c64617461206160448201526a0e4e4c2f240d8cadccee8d60ab1b6064820152608481fd5b8d60208285010111156134ba576134ba613342565b6020830194508093505050509295985092959850929598565b600060a0828403121561314a5761314a613001565b60006040828403121561314a5761314a613001565b634e487b7160e01b600052601260045260246000fd5b600063ffffffff8084168061352a5761352a6134fd565b92169190910692915050565b80546001600160a01b0319166001600160a01b0392909216919091179055565b813561356181613150565b61356b8183613536565b50602082013561357a81613150565b6135878160018401613536565b50604082013561359681613150565b610f4e8160028401613536565b634e487b7160e01b600052601160045260246000fd5b8082028115828204841417610f8c57610f8c6135a3565b6000826135df576135df6134fd565b500490565b81810381811115610f8c57610f8c6135a3565b80820180821115610f8c57610f8c6135a3565b60008060006060848603121561362257613622613001565b835161362d81613150565b602085015190935061363e81613150565b604085015190925061364f81613150565b809150509250925092565b6000813560ff81168114610f8c57600080fd5b813581556020820135600182015560408201356002820155606082013560038201556080820135600482015560a0820135600582015560c0820135600682015560e08201356007820155600881016136dc6136cb610100850161365a565b825460ff191660ff91909116178255565b610f4e6136ec610120850161365a565b825461ff00191660089190911b61ff0016178255565b634e487b7160e01b600052604160045260246000fd5b80516130c2816130a1565b6000602080838503121561373957613739613001565b825167ffffffffffffffff8082111561375457613754613051565b818501915085601f83011261376b5761376b6132e9565b81518181111561377d5761377d613702565b8060051b604051601f19603f830116810181811085821117156137a2576137a2613702565b6040529182528482019250838101850191888311156137c3576137c3613342565b938501935b828510156137e8576137d985613718565b845293850193928501926137c8565b98975050505050505050565b634e487b7160e01b600052603260045260246000fd5b83815260406020820152816040820152818360608301376000818301606090810191909152601f909201601f1916010192915050565b60006020828403121561385557613855613001565b8151610fe4816130c7565b813561386b81613150565b6138758183613536565b50602082013561388481613150565b610f4e8160018401613536565b600060ff821660ff81036138a7576138a76135a3565b60010192915050565b600060ff8316806138c3576138c36134fd565b8060ff84160691505092915050565b60a0808252865190820181905260009060209060c0840190828a01845b8281101561391157815163ffffffff16845292840192908401906001016138ef565b50505096151590830152506040810193909352606083019190915260809091015291905056fe45746865722073656e7420746f206e6f6e2d70617961626c652066756e63746954617267657420636f6e747261637420646f6573206e6f7420636f6e7461696ea2646970667358221220518089fc1da5ab5eaab0d292faf50567a9b803b8ed389cdb311feec4dc3c8ce664736f6c63430008140033",
  "linkReferences": {},
  "deployedLinkReferences": {}
}