{
  "_format": "hh-sol-artifact-1",
  "contractName": "BetGameStaking",
  "sourceName": "contracts/stake/BetGameStaking.sol",
  "abi": [
    {
      "inputs": [
        {
          "internalType": "address",
          "name": "_game",
          "type": "address"
        }
      ],
      "stateMutability": "nonpayable",
      "type": "constructor"
    },
    {
      "inputs": [],
      "name": "EnforcedPause",
      "type": "error"
    },
    {
      "inputs": [],
      "name": "ExpectedPause",
      "type": "error"
    },
    {
      "inputs": [
        {
          "internalType": "address",
          "name": "owner",
          "type": "address"
        }
      ],
      "name": "OwnableInvalidOwner",
      "type": "error"
    },
    {
      "inputs": [
        {
          "internalType": "address",
          "name": "account",
          "type": "address"
        }
      ],
      "name": "OwnableUnauthorizedAccount",
      "type": "error"
    },
    {
      "inputs": [],
      "name": "ReentrancyGuardReentrantCall",
      "type": "error"
    },
    {
      "anonymous": false,
      "inputs": [
        {
          "indexed": true,
          "internalType": "address",
          "name": "user",
          "type": "address"
        },
        {
          "indexed": false,
          "internalType": "bool",
          "name": "autoCompound",
          "type": "bool"
        }
      ],
      "name": "AutoCompoundSet",
      "type": "event"
    },
    {
      "anonymous": false,
      "inputs": [
        {
          "indexed": true,
          "internalType": "address",
          "name": "sender",
          "type": "address"
        },
        {
          "indexed": false,
          "internalType": "uint256",
          "name": "amount",
          "type": "uint256"
        }
      ],
      "name": "Deposit",
      "type": "event"
    },
    {
      "anonymous": false,
      "inputs": [
        {
          "indexed": true,
          "internalType": "address",
          "name": "user",
          "type": "address"
        },
        {
          "indexed": false,
          "internalType": "uint256",
          "name": "amount",
          "type": "uint256"
        }
      ],
      "name": "EarlyUnstakeFeeDistributed",
      "type": "event"
    },
    {
      "anonymous": false,
      "inputs": [
        {
          "indexed": true,
          "internalType": "address",
          "name": "owner",
          "type": "address"
        },
        {
          "indexed": false,
          "internalType": "uint256",
          "name": "amount",
          "type": "uint256"
        }
      ],
      "name": "EmergencyWithdraw",
      "type": "event"
    },
    {
      "anonymous": false,
      "inputs": [
        {
          "indexed": true,
          "internalType": "address",
          "name": "game",
          "type": "address"
        },
        {
          "indexed": true,
          "internalType": "address",
          "name": "user",
          "type": "address"
        },
        {
          "indexed": false,
          "internalType": "uint256",
          "name": "amount",
          "type": "uint256"
        }
      ],
      "name": "FundsProvidedToBetGame",
      "type": "event"
    },
    {
      "anonymous": false,
      "inputs": [
        {
          "indexed": false,
          "internalType": "uint256",
          "name": "newLockPeriod",
          "type": "uint256"
        }
      ],
      "name": "LockPeriodUpdated",
      "type": "event"
    },
    {
      "anonymous": false,
      "inputs": [
        {
          "indexed": false,
          "internalType": "uint256",
          "name": "newMaxStakeAmount",
          "type": "uint256"
        }
      ],
      "name": "MaxStakeAmountUpdated",
      "type": "event"
    },
    {
      "anonymous": false,
      "inputs": [
        {
          "indexed": true,
          "internalType": "address",
          "name": "previousOwner",
          "type": "address"
        },
        {
          "indexed": true,
          "internalType": "address",
          "name": "newOwner",
          "type": "address"
        }
      ],
      "name": "OwnershipTransferred",
      "type": "event"
    },
    {
      "anonymous": false,
      "inputs": [
        {
          "indexed": false,
          "internalType": "address",
          "name": "account",
          "type": "address"
        }
      ],
      "name": "Paused",
      "type": "event"
    },
    {
      "anonymous": false,
      "inputs": [
        {
          "indexed": true,
          "internalType": "address",
          "name": "user",
          "type": "address"
        },
        {
          "indexed": false,
          "internalType": "uint256",
          "name": "reward",
          "type": "uint256"
        },
        {
          "indexed": false,
          "internalType": "uint256",
          "name": "newStakeAmount",
          "type": "uint256"
        }
      ],
      "name": "RewardCompounded",
      "type": "event"
    },
    {
      "anonymous": false,
      "inputs": [
        {
          "indexed": true,
          "internalType": "address",
          "name": "user",
          "type": "address"
        },
        {
          "indexed": false,
          "internalType": "uint256",
          "name": "reward",
          "type": "uint256"
        }
      ],
      "name": "RewardPaid",
      "type": "event"
    },
    {
      "anonymous": false,
      "inputs": [
        {
          "indexed": false,
          "internalType": "uint256",
          "name": "baseRate",
          "type": "uint256"
        },
        {
          "indexed": false,
          "internalType": "uint256",
          "name": "maxRate",
          "type": "uint256"
        },
        {
          "indexed": false,
          "internalType": "uint256",
          "name": "threshold",
          "type": "uint256"
        }
      ],
      "name": "RewardRatesUpdated",
      "type": "event"
    },
    {
      "anonymous": false,
      "inputs": [
        {
          "indexed": false,
          "internalType": "uint256",
          "name": "period",
          "type": "uint256"
        }
      ],
      "name": "RewardReleasePeriodUpdated",
      "type": "event"
    },
    {
      "anonymous": false,
      "inputs": [
        {
          "indexed": false,
          "internalType": "uint256",
          "name": "amount",
          "type": "uint256"
        },
        {
          "indexed": false,
          "internalType": "uint256",
          "name": "newAccumulatedRewardsPerShare",
          "type": "uint256"
        }
      ],
      "name": "RewardsDistributed",
      "type": "event"
    },
    {
      "anonymous": false,
      "inputs": [
        {
          "indexed": true,
          "internalType": "address",
          "name": "game",
          "type": "address"
        },
        {
          "indexed": false,
          "internalType": "bool",
          "name": "enable",
          "type": "bool"
        }
      ],
      "name": "SetGames",
      "type": "event"
    },
    {
      "anonymous": false,
      "inputs": [
        {
          "indexed": true,
          "internalType": "address",
          "name": "user",
          "type": "address"
        },
        {
          "indexed": false,
          "internalType": "uint256",
          "name": "amount",
          "type": "uint256"
        }
      ],
      "name": "Staked",
      "type": "event"
    },
    {
      "anonymous": false,
      "inputs": [
        {
          "indexed": false,
          "internalType": "address",
          "name": "account",
          "type": "address"
        }
      ],
      "name": "Unpaused",
      "type": "event"
    },
    {
      "anonymous": false,
      "inputs": [
        {
          "indexed": true,
          "internalType": "address",
          "name": "user",
          "type": "address"
        },
        {
          "indexed": false,
          "internalType": "uint256",
          "name": "amount",
          "type": "uint256"
        },
        {
          "indexed": false,
          "internalType": "uint256",
          "name": "fee",
          "type": "uint256"
        },
        {
          "indexed": false,
          "internalType": "uint256",
          "name": "reward",
          "type": "uint256"
        }
      ],
      "name": "Unstaked",
      "type": "event"
    },
    {
      "inputs": [],
      "name": "EARLY_UNSTAKE_FEE",
      "outputs": [
        {
          "internalType": "uint256",
          "name": "",
          "type": "uint256"
        }
      ],
      "stateMutability": "view",
      "type": "function"
    },
    {
      "inputs": [],
      "name": "RATE_PRECISION",
      "outputs": [
        {
          "internalType": "uint256",
          "name": "",
          "type": "uint256"
        }
      ],
      "stateMutability": "view",
      "type": "function"
    },
    {
      "inputs": [],
      "name": "REWARD_PRECISION",
      "outputs": [
        {
          "internalType": "uint256",
          "name": "",
          "type": "uint256"
        }
      ],
      "stateMutability": "view",
      "type": "function"
    },
    {
      "inputs": [],
      "name": "addRewards",
      "outputs": [],
      "stateMutability": "payable",
      "type": "function"
    },
    {
      "inputs": [],
      "name": "baseRewardRate",
      "outputs": [
        {
          "internalType": "uint256",
          "name": "",
          "type": "uint256"
        }
      ],
      "stateMutability": "view",
      "type": "function"
    },
    {
      "inputs": [
        {
          "internalType": "address",
          "name": "",
          "type": "address"
        }
      ],
      "name": "betGames",
      "outputs": [
        {
          "internalType": "bool",
          "name": "",
          "type": "bool"
        }
      ],
      "stateMutability": "view",
      "type": "function"
    },
    {
      "inputs": [
        {
          "internalType": "uint256",
          "name": "amount",
          "type": "uint256"
        }
      ],
      "name": "calculateRewardRate",
      "outputs": [
        {
          "internalType": "uint256",
          "name": "",
          "type": "uint256"
        }
      ],
      "stateMutability": "view",
      "type": "function"
    },
    {
      "inputs": [
        {
          "internalType": "address",
          "name": "player",
          "type": "address"
        },
        {
          "internalType": "uint256",
          "name": "amount",
          "type": "uint256"
        }
      ],
      "name": "claimFunds",
      "outputs": [],
      "stateMutability": "nonpayable",
      "type": "function"
    },
    {
      "inputs": [],
      "name": "claimRewards",
      "outputs": [],
      "stateMutability": "nonpayable",
      "type": "function"
    },
    {
      "inputs": [],
      "name": "deposit",
      "outputs": [],
      "stateMutability": "payable",
      "type": "function"
    },
    {
      "inputs": [
        {
          "internalType": "uint256",
          "name": "amount",
          "type": "uint256"
        }
      ],
      "name": "emergencyWithdraw",
      "outputs": [],
      "stateMutability": "nonpayable",
      "type": "function"
    },
    {
      "inputs": [],
      "name": "getAPY",
      "outputs": [
        {
          "internalType": "uint256",
          "name": "",
          "type": "uint256"
        }
      ],
      "stateMutability": "view",
      "type": "function"
    },
    {
      "inputs": [
        {
          "internalType": "address",
          "name": "user",
          "type": "address"
        }
      ],
      "name": "getPendingRewards",
      "outputs": [
        {
          "internalType": "uint256",
          "name": "",
          "type": "uint256"
        }
      ],
      "stateMutability": "view",
      "type": "function"
    },
    {
      "inputs": [],
      "name": "lockPeriod",
      "outputs": [
        {
          "internalType": "uint256",
          "name": "",
          "type": "uint256"
        }
      ],
      "stateMutability": "view",
      "type": "function"
    },
    {
      "inputs": [],
      "name": "maxRewardRate",
      "outputs": [
        {
          "internalType": "uint256",
          "name": "",
          "type": "uint256"
        }
      ],
      "stateMutability": "view",
      "type": "function"
    },
    {
      "inputs": [],
      "name": "maxRewardThreshold",
      "outputs": [
        {
          "internalType": "uint256",
          "name": "",
          "type": "uint256"
        }
      ],
      "stateMutability": "view",
      "type": "function"
    },
    {
      "inputs": [],
      "name": "maxStakeAmount",
      "outputs": [
        {
          "internalType": "uint256",
          "name": "",
          "type": "uint256"
        }
      ],
      "stateMutability": "view",
      "type": "function"
    },
    {
      "inputs": [],
      "name": "owner",
      "outputs": [
        {
          "internalType": "address",
          "name": "",
          "type": "address"
        }
      ],
      "stateMutability": "view",
      "type": "function"
    },
    {
      "inputs": [],
      "name": "pause",
      "outputs": [],
      "stateMutability": "nonpayable",
      "type": "function"
    },
    {
      "inputs": [],
      "name": "paused",
      "outputs": [
        {
          "internalType": "bool",
          "name": "",
          "type": "bool"
        }
      ],
      "stateMutability": "view",
      "type": "function"
    },
    {
      "inputs": [],
      "name": "pool",
      "outputs": [
        {
          "internalType": "uint256",
          "name": "accumulatedRewardsPerShare",
          "type": "uint256"
        },
        {
          "internalType": "uint256",
          "name": "lastUpdateTimestamp",
          "type": "uint256"
        },
        {
          "internalType": "uint256",
          "name": "totalStaked",
          "type": "uint256"
        },
        {
          "internalType": "uint256",
          "name": "totalWeightedStake",
          "type": "uint256"
        },
        {
          "internalType": "uint256",
          "name": "totalRewardsReceived",
          "type": "uint256"
        },
        {
          "internalType": "uint256",
          "name": "totalRewardsDistributed",
          "type": "uint256"
        }
      ],
      "stateMutability": "view",
      "type": "function"
    },
    {
      "inputs": [],
      "name": "renounceOwnership",
      "outputs": [],
      "stateMutability": "nonpayable",
      "type": "function"
    },
    {
      "inputs": [],
      "name": "rewardReleasePeriod",
      "outputs": [
        {
          "internalType": "uint256",
          "name": "",
          "type": "uint256"
        }
      ],
      "stateMutability": "view",
      "type": "function"
    },
    {
      "inputs": [
        {
          "internalType": "bool",
          "name": "_autoCompound",
          "type": "bool"
        }
      ],
      "name": "setAutoCompound",
      "outputs": [],
      "stateMutability": "nonpayable",
      "type": "function"
    },
    {
      "inputs": [
        {
          "internalType": "address",
          "name": "_game",
          "type": "address"
        },
        {
          "internalType": "bool",
          "name": "_enable",
          "type": "bool"
        }
      ],
      "name": "setGames",
      "outputs": [],
      "stateMutability": "nonpayable",
      "type": "function"
    },
    {
      "inputs": [
        {
          "internalType": "uint256",
          "name": "_lockPeriod",
          "type": "uint256"
        }
      ],
      "name": "setLockPeriod",
      "outputs": [],
      "stateMutability": "nonpayable",
      "type": "function"
    },
    {
      "inputs": [
        {
          "internalType": "uint256",
          "name": "_maxStakeAmount",
          "type": "uint256"
        }
      ],
      "name": "setMaxStakeAmount",
      "outputs": [],
      "stateMutability": "nonpayable",
      "type": "function"
    },
    {
      "inputs": [
        {
          "internalType": "uint256",
          "name": "_baseRate",
          "type": "uint256"
        },
        {
          "internalType": "uint256",
          "name": "_maxRate",
          "type": "uint256"
        },
        {
          "internalType": "uint256",
          "name": "_threshold",
          "type": "uint256"
        }
      ],
      "name": "setRewardRates",
      "outputs": [],
      "stateMutability": "nonpayable",
      "type": "function"
    },
    {
      "inputs": [
        {
          "internalType": "uint256",
          "name": "_period",
          "type": "uint256"
        }
      ],
      "name": "setRewardReleasePeriod",
      "outputs": [],
      "stateMutability": "nonpayable",
      "type": "function"
    },
    {
      "inputs": [],
      "name": "stake",
      "outputs": [],
      "stateMutability": "payable",
      "type": "function"
    },
    {
      "inputs": [
        {
          "internalType": "address",
          "name": "",
          "type": "address"
        }
      ],
      "name": "stakes",
      "outputs": [
        {
          "internalType": "uint256",
          "name": "amount",
          "type": "uint256"
        },
        {
          "internalType": "uint256",
          "name": "weightedAmount",
          "type": "uint256"
        },
        {
          "internalType": "uint256",
          "name": "rewardDebt",
          "type": "uint256"
        },
        {
          "internalType": "uint256",
          "name": "lastUpdateTimestamp",
          "type": "uint256"
        },
        {
          "internalType": "bool",
          "name": "autoCompound",
          "type": "bool"
        }
      ],
      "stateMutability": "view",
      "type": "function"
    },
    {
      "inputs": [
        {
          "internalType": "address",
          "name": "newOwner",
          "type": "address"
        }
      ],
      "name": "transferOwnership",
      "outputs": [],
      "stateMutability": "nonpayable",
      "type": "function"
    },
    {
      "inputs": [],
      "name": "unpause",
      "outputs": [],
      "stateMutability": "nonpayable",
      "type": "function"
    },
    {
      "inputs": [],
      "name": "unstake",
      "outputs": [],
      "stateMutability": "nonpayable",
      "type": "function"
    },
    {
      "stateMutability": "payable",
      "type": "receive"
    }
  ],
  "bytecode": "0x608060405262093a80600255683635c9adc5dea000006003556064600455609660055568056bc75e2d6310000060065562127500600755348015620000905760405162461bcd60e51b815260206004820152602260248201527f45746865722073656e7420746f206e6f6e2d70617961626c652066756e637469604482019081526137b760f11b6064830152608482fd5b506040516200256f3803806200256f833981016040819052620000b39162000178565b60016000553380620000df57604051631e4fbdf760e01b81526000600482015260240160405180910390fd5b620000ea8162000126565b506001805460ff60a01b191681556001600160a01b039091166000908152600f60205260409020805460ff1916909117905542600955620001f5565b600180546001600160a01b038381166001600160a01b0319831681179093556040519116919082907f8be0079c531659141344cd1fd0a4f28419497f9722a3daafe3b4186f6b6457e090600090a35050565b600060208284031215620001d65760405162461bcd60e51b815260206004820152602260248201527f414249206465636f64696e673a207475706c65206461746120746f6f2073686f6044820152611c9d60f21b6064820152608481fd5b81516001600160a01b0381168114620001ee57600080fd5b9392505050565b61236a80620002056000396000f3fe6080604052600436106101fd5760003560e01c8063779972da1161010d578063a70c1966116100a0578063d2cbf7ad1161006f578063d2cbf7ad14610bf5578063dcc2a55e14610c45578063ed2b40ea14610ca0578063f2fde38b14610cfb578063f6ed201714610d565761020c565b8063a70c196614610ae0578063a809cefa14610b31578063afbf344014610b9c578063d0e30db014610bed5761020c565b806386593454116100dc57806386593454146109765780638da5cb5b146109d1578063a2f2278714610a34578063a335355014610a8f5761020c565b8063779972da146108155780637a2105b7146108705780638141cbde146108cb5780638456cb59146109265761020c565b806339efdf6b116101905780633fd8b02f1161015f5780633fd8b02f146106625780635312ea8e146106b35780635c975abb1461070e5780635d80ca3214610774578063715018a6146107c55761020c565b806339efdf6b146105625780633a4b66f1146105b35780633d6aa5e1146105bb5780633f4ba83a146106125761020c565b80631e32ba04116101cc5780631e32ba04146104165780632b3ba681146104715780632def6620146104c2578063372500ab146105125761020c565b80630d40ffc71461026557806314d6aed0146102c957806316934fc4146102d157806316f0115b146103835761020c565b3661020c5761020a610db1565b005b60405162461bcd60e51b815260206004820152602960248201527f556e6b6e6f776e207369676e617475726520616e64206e6f2066616c6c62616360448201908152681ac81919599a5b995960ba1b6064830152608482fd5b3480156102ac5760405162461bcd60e51b81526020600482015260226024820152600080516020612315833981519152604482019081526137b760f11b6064830152608482fd5b506102b660055481565b6040519081526020015b60405180910390f35b61020a610db1565b3480156103185760405162461bcd60e51b81526020600482015260226024820152600080516020612315833981519152604482019081526137b760f11b6064830152608482fd5b506103596103273660046121a5565b600e60205260009081526040902080546001820154600283015460038401546004909401549293919290919060ff1685565b6040805195865260208601949094529284019190915260608301521515608082015260a0016102c0565b3480156103ca5760405162461bcd60e51b81526020600482015260226024820152600080516020612315833981519152604482019081526137b760f11b6064830152608482fd5b50600854600954600a54600b54600c54600d546103e995949392919086565b604080519687526020870195909552938501929092526060840152608083015260a082015260c0016102c0565b34801561045d5760405162461bcd60e51b81526020600482015260226024820152600080516020612315833981519152604482019081526137b760f11b6064830152608482fd5b5061020a61046c3660046121d3565b610ee2565b3480156104b85760405162461bcd60e51b81526020600482015260226024820152600080516020612315833981519152604482019081526137b760f11b6064830152608482fd5b506102b661271081565b3480156105095760405162461bcd60e51b81526020600482015260226024820152600080516020612315833981519152604482019081526137b760f11b6064830152608482fd5b5061020a610f4a565b3480156105595760405162461bcd60e51b81526020600482015260226024820152600080516020612315833981519152604482019081526137b760f11b6064830152608482fd5b5061020a61118d565b3480156105a95760405162461bcd60e51b81526020600482015260226024820152600080516020612315833981519152604482019081526137b760f11b6064830152608482fd5b506102b66101f481565b61020a611330565b3480156106025760405162461bcd60e51b81526020600482015260226024820152600080516020612315833981519152604482019081526137b760f11b6064830152608482fd5b506102b6670de0b6b3a764000081565b3480156106595760405162461bcd60e51b81526020600482015260226024820152600080516020612315833981519152604482019081526137b760f11b6064830152608482fd5b5061020a61156f565b3480156106a95760405162461bcd60e51b81526020600482015260226024820152600080516020612315833981519152604482019081526137b760f11b6064830152608482fd5b506102b660025481565b3480156106fa5760405162461bcd60e51b81526020600482015260226024820152600080516020612315833981519152604482019081526137b760f11b6064830152608482fd5b5061020a610709366004612209565b61157f565b3480156107555760405162461bcd60e51b81526020600482015260226024820152600080516020612315833981519152604482019081526137b760f11b6064830152608482fd5b50600154600160a01b900460ff165b60405190151581526020016102c0565b3480156107bb5760405162461bcd60e51b81526020600482015260226024820152600080516020612315833981519152604482019081526137b760f11b6064830152608482fd5b506102b660035481565b34801561080c5760405162461bcd60e51b81526020600482015260226024820152600080516020612315833981519152604482019081526137b760f11b6064830152608482fd5b5061020a61163a565b34801561085c5760405162461bcd60e51b81526020600482015260226024820152600080516020612315833981519152604482019081526137b760f11b6064830152608482fd5b5061020a61086b366004612209565b61164c565b3480156108b75760405162461bcd60e51b81526020600482015260226024820152600080516020612315833981519152604482019081526137b760f11b6064830152608482fd5b5061020a6108c6366004612225565b611690565b3480156109125760405162461bcd60e51b81526020600482015260226024820152600080516020612315833981519152604482019081526137b760f11b6064830152608482fd5b5061020a610921366004612209565b6117d7565b34801561096d5760405162461bcd60e51b81526020600482015260226024820152600080516020612315833981519152604482019081526137b760f11b6064830152608482fd5b5061020a61186f565b3480156109bd5760405162461bcd60e51b81526020600482015260226024820152600080516020612315833981519152604482019081526137b760f11b6064830152608482fd5b5061020a6109cc366004612254565b61187f565b348015610a185760405162461bcd60e51b81526020600482015260226024820152600080516020612315833981519152604482019081526137b760f11b6064830152608482fd5b506001546040516001600160a01b0390911681526020016102c0565b348015610a7b5760405162461bcd60e51b81526020600482015260226024820152600080516020612315833981519152604482019081526137b760f11b6064830152608482fd5b506102b6610a8a366004612209565b611a02565b348015610ad65760405162461bcd60e51b81526020600482015260226024820152600080516020612315833981519152604482019081526137b760f11b6064830152608482fd5b506102b660065481565b348015610b275760405162461bcd60e51b81526020600482015260226024820152600080516020612315833981519152604482019081526137b760f11b6064830152608482fd5b506102b660075481565b348015610b785760405162461bcd60e51b81526020600482015260226024820152600080516020612315833981519152604482019081526137b760f11b6064830152608482fd5b50610764610b873660046121a5565b600f6020526000908152604090205460ff1681565b348015610be35760405162461bcd60e51b81526020600482015260226024820152600080516020612315833981519152604482019081526137b760f11b6064830152608482fd5b506102b660045481565b61020a611a50565b348015610c3c5760405162461bcd60e51b81526020600482015260226024820152600080516020612315833981519152604482019081526137b760f11b6064830152608482fd5b506102b6611af5565b348015610c8c5760405162461bcd60e51b81526020600482015260226024820152600080516020612315833981519152604482019081526137b760f11b6064830152608482fd5b5061020a610c9b366004612209565b611b68565b348015610ce75760405162461bcd60e51b81526020600482015260226024820152600080516020612315833981519152604482019081526137b760f11b6064830152608482fd5b5061020a610cf6366004612272565b611ba5565b348015610d425760405162461bcd60e51b81526020600482015260226024820152600080516020612315833981519152604482019081526137b760f11b6064830152608482fd5b5061020a610d513660046121a5565b611cba565b348015610d9d5760405162461bcd60e51b81526020600482015260226024820152600080516020612315833981519152604482019081526137b760f11b6064830152608482fd5b506102b6610dac3660046121a5565b611cf8565b336000908152600f602052604090205460ff16151560011480610dde57506001546001600160a01b031633145b610e245760405162461bcd60e51b815260206004820152601260248201527113db9b1e4819d85b594818dbdb9d1c9858dd60721b60448201526064015b60405180910390fd5b60003411610e805760405162461bcd60e51b8152602060048201526024808201527f52657761726420616d6f756e74206d75737420626520677265617465722074686044820152630616e20360e41b6064820152608401610e1b565b610e88611d03565b3460086004016000828254610e9d91906122b5565b90915550506008546040805134815260208101929092527f29e98ba00d07f171959c4ddcd2f3020debc7c52cf537a034d7e664340d098c6c91015b60405180910390a1565b610eea611dce565b6001600160a01b0382166000818152600f6020908152604091829020805460ff191685151590811790915591519182527f3854f6c43800c5556a0765af4a91a350d4d7b055df55d2674d9341c5a9aedde191015b60405180910390a25050565b610f52611dfb565b336000908152600e602052604090208054610fa65760405162461bcd60e51b81526020600482015260146024820152734e6f207374616b6520746f20776974686472617760601b6044820152606401610e1b565b610fae611d03565b6000610fb933611e25565b825460025460038501549293509091600091610fd4916122b5565b42101561105257612710610fea6101f4846122c8565b610ff491906122df565b90506110008183612301565b9150806008600401600082825461101791906122b5565b909155505060405181815233907fa51535272d452169b31ccd433cf776165e3b4e78f0c72a3fd5233eed06f32ff99060200160405180910390a25b600061105e84846122b5565b9050804710156110b05760405162461bcd60e51b815260206004820152601d60248201527f496e73756666696369656e7420636f6e74726163742062616c616e63650000006044820152606401610e1b565b6001850154600b54116110c45760006110d6565b6001850154600b546110d69190612301565b600b558454600a54116110ea5760006110f9565b8454600a546110f99190612301565b600a55336000818152600e6020526040812081815560018101829055600281018290556003810191909155600401805460ff191690556111399082611f1c565b604080518481526020810184905290810185905233907f204fccf0d92ed8d48f204adb39b2e81e92bad0dedb93f5716ca9478cfb57de009060600160405180910390a2505050505061118b6001600055565b565b611195611dfb565b61119d611d03565b60006111a833611e25565b9050600081116111f05760405162461bcd60e51b81526020600482015260136024820152724e6f207265776172647320746f20636c61696d60681b6044820152606401610e1b565b336000908152600e60205260409020600481015460ff16156112b457805460009061121c9084906122b5565b9050600061122982611fbc565b905082600101548160086003015461124191906122b5565b61124b9190612301565b600b55600a80548591906000906112639084906122b5565b909155505081835560018301819055604080518581526020810184905233917f713df1dd9e3a2f94b02f31d13a23fac9151b529a400d2960d29be7e67b09f7cf910160405180910390a250506112f4565b6112be3383611f1c565b60405182815233907fe2403640ba68fed3a2f88b7557551d1993f84b99bb10ff833f0cf8db0c5e04869060200160405180910390a25b4260038201556008546001820154670de0b6b3a764000091611315916122c8565b61131f91906122df565b6002909101555061118b6001600055565b611338611dfb565b611340611fe9565b6000341161139c5760405162461bcd60e51b815260206004820152602360248201527f5374616b6520616d6f756e74206d75737420626520677265617465722074686160448201526206e20360ec1b6064820152608401610e1b565b600354336000908152600e60205260409020546113ba9034906122b5565b11156114085760405162461bcd60e51b815260206004820152601860248201527f45786365656473206d6178207374616b6520616d6f756e7400000000000000006044820152606401610e1b565b611410611d03565b336000908152600e602052604081205461142b9034906122b5565b9050600061143882611fbc565b336000908152600e60205260409020549091501561148957600061145b33611e25565b336000908152600e60205260408120600201805492935083929091906114829084906122b5565b9091555050505b346008600201600082825461149e91906122b5565b9091555050336000908152600e6020526040902060010154600b546114c49083906122b5565b6114ce9190612301565b600b55336000908152600e602052604090208281556001810182905542600390910155600854670de0b6b3a76400009061150890836122c8565b61151291906122df565b336000818152600e6020526040908190206002019290925590517f9e71bc8eea02a63969f509818f2dafb9254532904319f9dbda79b67bd34a5f3d9061155b9034815260200190565b60405180910390a2505061118b6001600055565b611577611dce565b61118b612014565b611587611dce565b478111156115ce5760405162461bcd60e51b8152602060048201526014602482015273496e73756666696369656e742062616c616e636560601b6044820152606401610e1b565b6115e96115e36001546001600160a01b031690565b82611f1c565b6001546001600160a01b03166001600160a01b03167f5fafa99d0643513820be26656b45130b01e1c03062e1266bf36f88cbd3bd96958260405161162f91815260200190565b60405180910390a250565b611642611dce565b61118b6000612064565b611654611dce565b60028190556040518181527f8249ec545e68f6f1e1230133ca48c704d831a7f8e635ded80f3dd9e99b09bb2f906020015b60405180910390a150565b611698611dce565b818311156116e85760405162461bcd60e51b815260206004820152601d60248201527f426173652072617465206d757374206265203c3d206d617820726174650000006044820152606401610e1b565b6103e882111561173a5760405162461bcd60e51b815260206004820181905260248201527f4d617820726174652063616e6e6f742065786365656420313025206461696c796044820152606401610e1b565b600081116117825760405162461bcd60e51b815260206004820152601560248201527405468726573686f6c64206d757374206265203e203605c1b6044820152606401610e1b565b60048390556005829055600681905560408051848152602081018490529081018290527fa4db43d5d1427f29f22bb5a0b1345e07386d1092109a1aab4820afab45cd4df99060600160405180910390a1505050565b6117df611dce565b62093a8081101580156117f5575062278d008111155b61183a5760405162461bcd60e51b8152602060048201526016602482015275125b9d985b1a59081c995b19585cd9481c195c9a5bd960521b6044820152606401610e1b565b60078190556040518181527f0ba8f00ecdac99cf0ad14582810bd5b30d2b6b50e24b565e99ea378b64c6991790602001611685565b611877611dce565b61118b6120b6565b611887611d03565b600061189233611e25565b9050801561196c57811561194457336000908152600e6020526040812080548392906118bf9084906122b5565b9091555050336000908152600e60205260409020546118dd90611fbc565b336000908152600e6020526040812060010191909155600a80548392906119059084906122b5565b9091555050336000908152600e60205260409020600101546119279080612301565b600b80546000906119399084906122b5565b9091555061196c9050565b336000908152600e6020526040812060020180548392906119669084906122b5565b90915550505b336000908152600e6020526040902060048101805460ff1916841515179055426003820155600854600190910154670de0b6b3a7640000916119ad916122c8565b6119b791906122df565b336000818152600e6020526040908190206002019290925590517f340976c63b0d2b8167206dc5fd284bd24d2b0526ac89867a32450568b6e6d98690610f3e90851515815260200190565b60006006548210611a1557505060055490565b60065482600454600554611a299190612301565b611a3391906122c8565b611a3d91906122df565b600454611a4a91906122b5565b92915050565b611a58611dfb565b60003411611ab65760405162461bcd60e51b815260206004820152602560248201527f4465706f73697420616d6f756e74206d75737420626520677265617465722074604482015264068616e20360dc1b6064820152608401610e1b565b60405134815233907fe1fffcc4923d04b559f4d29a8bfc6cda04eb5b0d3c460751c2402c5c5cc9109c9060200160405180910390a261118b6001600055565b600b546000908103611b075750600090565b600d54600c54600091611b1991612301565b600b549091508190600090611b30612710846122c8565b611b3a91906122df565b905060006007546301e13380611b5091906122df565b90506000611b5e82846122c8565b9695505050505050565b611b70611dce565b60038190556040518181527f54eb4b63d48d1cd0b132ac5f8945d5e7fa77a2238e2bb533ef3ccb95e7be5d2c90602001611685565b336000908152600f602052604090205460ff16151560011480611bd257506001546001600160a01b031633145b611c135760405162461bcd60e51b815260206004820152601260248201527113db9b1e4819d85b594818dbdb9d1c9858dd60721b6044820152606401610e1b565b611c1b611dfb565b80471015611c625760405162461bcd60e51b8152602060048201526014602482015273496e73756666696369656e742062616c616e636560601b6044820152606401610e1b565b611c6c8282611f1c565b6040518181526001600160a01b0383169033907f700a2fef1f2073804552dac90a59584882cf63e366f1194e45e5e28015ecd2e79060200160405180910390a3611cb66001600055565b5050565b611cc2611dce565b6001600160a01b038116611cec57604051631e4fbdf760e01b815260006004820152602401610e1b565b611cf581612064565b50565b6000611a4a82611e25565b600b54600003611d135742600955565b600d54600c54600091611d2591612301565b905080600003611d36575042600955565b600954600090611d469042612301565b90506000611d6c836007548486611d5d91906122c8565b611d6791906122df565b6120f9565b90508015611dc557600b54611d89670de0b6b3a7640000836122c8565b611d9391906122df565b60088054600090611da59084906122b5565b9091555050600d8054829190600090611dbf9084906122b5565b90915550505b50504260095550565b6001546001600160a01b0316331461118b5760405163118cdaa760e01b8152336004820152602401610e1b565b600260005403611e1e57604051633ee5aeb560e01b815260040160405180910390fd5b6002600055565b6001600160a01b0381166000908152600e6020526040812080548203611e4e5750600092915050565b600854600d54600c54600091611e6391612301565b600b5490915015801590611e775750600081115b15611ed457600954600090611e8c9042612301565b90506000611ea3836007548486611d5d91906122c8565b600b54909150611ebb670de0b6b3a7640000836122c8565b611ec591906122df565b611ecf90856122b5565b935050505b6000670de0b6b3a7640000838560010154611eef91906122c8565b611ef991906122df565b905083600201548111611f0d576000611b5e565b6002840154611b5e9082612301565b6000826001600160a01b03168260405160006040518083038185875af1925050503d8060008114611f69576040519150601f19603f3d011682016040523d82523d6000602084013e611f6e565b606091505b5050905080611fb75760405162461bcd60e51b8152602060048201526015602482015274119d5b991cc81d1c985b9cd9995c8819985a5b1959605a1b6044820152606401610e1b565b505050565b600080611fc883611a02565b600454909150611fd882856122c8565b611fe291906122df565b9392505050565b600154600160a01b900460ff161561118b5760405163d93c066560e01b815260040160405180910390fd5b61201c61210f565b6001805460ff60a01b191690557f5db9ee0a495bf2e6ff9c91a7834c1ba4fdd244a5e8aa4e537bd38aeae4b073aa335b6040516001600160a01b039091168152602001610ed8565b600180546001600160a01b038381166001600160a01b0319831681179093556040519116919082907f8be0079c531659141344cd1fd0a4f28419497f9722a3daafe3b4186f6b6457e090600090a35050565b6120be611fe9565b6001805460ff60a01b1916600160a01b1790557f62e78cea01bee320cd4e420270b5ea74000d11b0c9f74754ebdbfc544b05a25861204c3390565b60008183106121085781611fe2565b5090919050565b600154600160a01b900460ff1661118b57604051638dfc202b60e01b815260040160405180910390fd5b60405162461bcd60e51b815260206004820152602260248201527f414249206465636f64696e673a207475706c65206461746120746f6f2073686f6044820152611c9d60f21b6064820152608481fd5b80356001600160a01b03811681146121a057600080fd5b919050565b6000602082840312156121ba576121ba612139565b611fe282612189565b803580151581146121a057600080fd5b600080604083850312156121e9576121e9612139565b6121f283612189565b9150612200602084016121c3565b90509250929050565b60006020828403121561221e5761221e612139565b5035919050565b60008060006060848603121561223d5761223d612139565b505081359360208301359350604090920135919050565b60006020828403121561226957612269612139565b611fe2826121c3565b6000806040838503121561228857612288612139565b61229183612189565b946020939093013593505050565b634e487b7160e01b600052601160045260246000fd5b80820180821115611a4a57611a4a61229f565b8082028115828204841417611a4a57611a4a61229f565b6000826122fc57634e487b7160e01b600052601260045260246000fd5b500490565b81810381811115611a4a57611a4a61229f56fe45746865722073656e7420746f206e6f6e2d70617961626c652066756e637469a264697066735822122028af465916790170250568299ca5b5c84718edb4295f9c557f6d6d9d521e0d9164736f6c63430008140033",
  "linkReferences": {},
  "deployedLinkReferences": {}
}