{
  "_format": "hh-sol-artifact-1",
  "contractName": "RaffleContract",
  "sourceName": "contracts/raffles/RaffleContract.sol",
  "abi": [
    {
      "inputs": [],
      "stateMutability": "nonpayable",
      "type": "constructor"
    },
    {
      "inputs": [],
      "name": "EnforcedPause",
      "type": "error"
    },
    {
      "inputs": [],
      "name": "ExpectedPause",
      "type": "error"
    },
    {
      "inputs": [
        {
          "internalType": "address",
          "name": "owner",
          "type": "address"
        }
      ],
      "name": "OwnableInvalidOwner",
      "type": "error"
    },
    {
      "inputs": [
        {
          "internalType": "address",
          "name": "account",
          "type": "address"
        }
      ],
      "name": "OwnableUnauthorizedAccount",
      "type": "error"
    },
    {
      "inputs": [],
      "name": "ReentrancyGuardReentrantCall",
      "type": "error"
    },
    {
      "anonymous": false,
      "inputs": [
        {
          "indexed": true,
          "internalType": "uint256",
          "name": "raffleId",
          "type": "uint256"
        },
        {
          "indexed": true,
          "internalType": "address",
          "name": "user",
          "type": "address"
        },
        {
          "indexed": false,
          "internalType": "uint256",
          "name": "ticketId",
          "type": "uint256"
        },
        {
          "indexed": false,
          "internalType": "uint256",
          "name": "num",
          "type": "uint256"
        },
        {
          "indexed": false,
          "internalType": "uint256",
          "name": "currentSize",
          "type": "uint256"
        },
        {
          "indexed": false,
          "internalType": "string",
          "name": "note",
          "type": "string"
        }
      ],
      "name": "BuyTicket",
      "type": "event"
    },
    {
      "anonymous": false,
      "inputs": [
        {
          "indexed": true,
          "internalType": "uint256",
          "name": "betId",
          "type": "uint256"
        },
        {
          "indexed": true,
          "internalType": "address",
          "name": "addr",
          "type": "address"
        },
        {
          "indexed": false,
          "internalType": "uint256",
          "name": "amount",
          "type": "uint256"
        }
      ],
      "name": "DistributeFee",
      "type": "event"
    },
    {
      "anonymous": false,
      "inputs": [
        {
          "indexed": true,
          "internalType": "address",
          "name": "previousOwner",
          "type": "address"
        },
        {
          "indexed": true,
          "internalType": "address",
          "name": "newOwner",
          "type": "address"
        }
      ],
      "name": "OwnershipTransferred",
      "type": "event"
    },
    {
      "anonymous": false,
      "inputs": [
        {
          "indexed": false,
          "internalType": "address",
          "name": "account",
          "type": "address"
        }
      ],
      "name": "Paused",
      "type": "event"
    },
    {
      "anonymous": false,
      "inputs": [
        {
          "indexed": true,
          "internalType": "uint256",
          "name": "raffleId",
          "type": "uint256"
        },
        {
          "indexed": true,
          "internalType": "address",
          "name": "caller",
          "type": "address"
        },
        {
          "indexed": false,
          "internalType": "uint256",
          "name": "amountRaised",
          "type": "uint256"
        }
      ],
      "name": "RaffleCancelled",
      "type": "event"
    },
    {
      "anonymous": false,
      "inputs": [
        {
          "indexed": true,
          "internalType": "uint256",
          "name": "raffleId",
          "type": "uint256"
        },
        {
          "indexed": true,
          "internalType": "address",
          "name": "caller",
          "type": "address"
        },
        {
          "indexed": false,
          "internalType": "uint256",
          "name": "amountRaised",
          "type": "uint256"
        }
      ],
      "name": "RaffleClosed",
      "type": "event"
    },
    {
      "anonymous": false,
      "inputs": [
        {
          "indexed": true,
          "internalType": "uint256",
          "name": "raffleId",
          "type": "uint256"
        },
        {
          "indexed": true,
          "internalType": "address",
          "name": "seller",
          "type": "address"
        },
        {
          "indexed": false,
          "internalType": "uint256",
          "name": "endTime",
          "type": "uint256"
        },
        {
          "indexed": false,
          "internalType": "string",
          "name": "note",
          "type": "string"
        }
      ],
      "name": "RaffleCreated",
      "type": "event"
    },
    {
      "anonymous": false,
      "inputs": [
        {
          "indexed": true,
          "internalType": "uint256",
          "name": "raffleId",
          "type": "uint256"
        },
        {
          "indexed": true,
          "internalType": "address",
          "name": "caller",
          "type": "address"
        },
        {
          "indexed": true,
          "internalType": "address",
          "name": "winner",
          "type": "address"
        },
        {
          "indexed": false,
          "internalType": "uint256",
          "name": "amountRaised",
          "type": "uint256"
        },
        {
          "indexed": false,
          "internalType": "uint256",
          "name": "ticketsCount",
          "type": "uint256"
        },
        {
          "indexed": false,
          "internalType": "uint256",
          "name": "randomNumber",
          "type": "uint256"
        }
      ],
      "name": "RaffleEnded",
      "type": "event"
    },
    {
      "anonymous": false,
      "inputs": [
        {
          "indexed": true,
          "internalType": "uint256",
          "name": "raffleId",
          "type": "uint256"
        },
        {
          "indexed": true,
          "internalType": "address",
          "name": "user",
          "type": "address"
        },
        {
          "indexed": true,
          "internalType": "address",
          "name": "referrer",
          "type": "address"
        },
        {
          "indexed": false,
          "internalType": "uint256",
          "name": "value",
          "type": "uint256"
        },
        {
          "indexed": false,
          "internalType": "uint256",
          "name": "amount",
          "type": "uint256"
        }
      ],
      "name": "ReferralReward",
      "type": "event"
    },
    {
      "anonymous": false,
      "inputs": [
        {
          "indexed": true,
          "internalType": "uint256",
          "name": "raffleId",
          "type": "uint256"
        },
        {
          "indexed": true,
          "internalType": "address",
          "name": "seller",
          "type": "address"
        },
        {
          "indexed": false,
          "internalType": "uint256",
          "name": "amount",
          "type": "uint256"
        }
      ],
      "name": "TransferFund",
      "type": "event"
    },
    {
      "anonymous": false,
      "inputs": [
        {
          "indexed": true,
          "internalType": "uint256",
          "name": "raffleId",
          "type": "uint256"
        },
        {
          "indexed": true,
          "internalType": "address",
          "name": "to",
          "type": "address"
        },
        {
          "components": [
            {
              "internalType": "enum PRIZE_TYPE",
              "name": "prizeType",
              "type": "uint8"
            },
            {
              "internalType": "address",
              "name": "token",
              "type": "address"
            },
            {
              "internalType": "uint256",
              "name": "amount",
              "type": "uint256"
            },
            {
              "internalType": "uint256",
              "name": "tokenId",
              "type": "uint256"
            }
          ],
          "indexed": false,
          "internalType": "struct Prize",
          "name": "prize",
          "type": "tuple"
        }
      ],
      "name": "TransferPrize",
      "type": "event"
    },
    {
      "anonymous": false,
      "inputs": [
        {
          "indexed": false,
          "internalType": "uint256",
          "name": "raffleId",
          "type": "uint256"
        },
        {
          "indexed": false,
          "internalType": "address",
          "name": "from",
          "type": "address"
        },
        {
          "indexed": false,
          "internalType": "address",
          "name": "to",
          "type": "address"
        },
        {
          "indexed": false,
          "internalType": "uint256[]",
          "name": "ticketIds",
          "type": "uint256[]"
        }
      ],
      "name": "TransferTickets",
      "type": "event"
    },
    {
      "anonymous": false,
      "inputs": [
        {
          "indexed": false,
          "internalType": "address",
          "name": "account",
          "type": "address"
        }
      ],
      "name": "Unpaused",
      "type": "event"
    },
    {
      "inputs": [],
      "name": "Pause",
      "outputs": [],
      "stateMutability": "nonpayable",
      "type": "function"
    },
    {
      "inputs": [],
      "name": "Unpause",
      "outputs": [],
      "stateMutability": "nonpayable",
      "type": "function"
    },
    {
      "inputs": [
        {
          "internalType": "address",
          "name": "",
          "type": "address"
        }
      ],
      "name": "addressVerify",
      "outputs": [
        {
          "internalType": "bool",
          "name": "",
          "type": "bool"
        }
      ],
      "stateMutability": "view",
      "type": "function"
    },
    {
      "inputs": [
        {
          "internalType": "uint256",
          "name": "raffleId",
          "type": "uint256"
        },
        {
          "internalType": "uint256",
          "name": "num",
          "type": "uint256"
        },
        {
          "internalType": "address",
          "name": "ref",
          "type": "address"
        },
        {
          "internalType": "address",
          "name": "to",
          "type": "address"
        },
        {
          "internalType": "string",
          "name": "note",
          "type": "string"
        }
      ],
      "name": "buy",
      "outputs": [],
      "stateMutability": "payable",
      "type": "function"
    },
    {
      "inputs": [
        {
          "internalType": "uint256",
          "name": "raffleId",
          "type": "uint256"
        }
      ],
      "name": "cancel",
      "outputs": [],
      "stateMutability": "nonpayable",
      "type": "function"
    },
    {
      "inputs": [
        {
          "internalType": "uint256",
          "name": "raffleId",
          "type": "uint256"
        },
        {
          "internalType": "address",
          "name": "user",
          "type": "address"
        }
      ],
      "name": "checkEligibility",
      "outputs": [
        {
          "internalType": "bool",
          "name": "",
          "type": "bool"
        }
      ],
      "stateMutability": "view",
      "type": "function"
    },
    {
      "inputs": [
        {
          "internalType": "uint256",
          "name": "id",
          "type": "uint256"
        },
        {
          "internalType": "uint256",
          "name": "ticketId",
          "type": "uint256"
        }
      ],
      "name": "claimReward",
      "outputs": [],
      "stateMutability": "nonpayable",
      "type": "function"
    },
    {
      "inputs": [
        {
          "internalType": "uint256",
          "name": "raffleId",
          "type": "uint256"
        }
      ],
      "name": "close",
      "outputs": [],
      "stateMutability": "nonpayable",
      "type": "function"
    },
    {
      "inputs": [
        {
          "internalType": "bool",
          "name": "hasFree",
          "type": "bool"
        },
        {
          "internalType": "uint256",
          "name": "endTime",
          "type": "uint256"
        },
        {
          "internalType": "uint256",
          "name": "maxPerUser",
          "type": "uint256"
        },
        {
          "internalType": "uint256",
          "name": "price",
          "type": "uint256"
        },
        {
          "components": [
            {
              "internalType": "enum PRIZE_TYPE",
              "name": "prizeType",
              "type": "uint8"
            },
            {
              "internalType": "address",
              "name": "token",
              "type": "address"
            },
            {
              "internalType": "uint256",
              "name": "amount",
              "type": "uint256"
            },
            {
              "internalType": "uint256",
              "name": "tokenId",
              "type": "uint256"
            }
          ],
          "internalType": "struct Prize",
          "name": "prize",
          "type": "tuple"
        },
        {
          "components": [
            {
              "internalType": "address",
              "name": "token",
              "type": "address"
            },
            {
              "internalType": "uint256",
              "name": "tokenId",
              "type": "uint256"
            },
            {
              "internalType": "uint256",
              "name": "amount",
              "type": "uint256"
            }
          ],
          "internalType": "struct Eligibility[]",
          "name": "eligibility",
          "type": "tuple[]"
        },
        {
          "internalType": "string",
          "name": "note",
          "type": "string"
        }
      ],
      "name": "create",
      "outputs": [
        {
          "internalType": "uint256",
          "name": "",
          "type": "uint256"
        }
      ],
      "stateMutability": "payable",
      "type": "function"
    },
    {
      "inputs": [
        {
          "internalType": "uint256",
          "name": "",
          "type": "uint256"
        },
        {
          "internalType": "uint256",
          "name": "",
          "type": "uint256"
        }
      ],
      "name": "eligibilities",
      "outputs": [
        {
          "internalType": "address",
          "name": "token",
          "type": "address"
        },
        {
          "internalType": "uint256",
          "name": "tokenId",
          "type": "uint256"
        },
        {
          "internalType": "uint256",
          "name": "amount",
          "type": "uint256"
        }
      ],
      "stateMutability": "view",
      "type": "function"
    },
    {
      "inputs": [],
      "name": "feeAddress",
      "outputs": [
        {
          "internalType": "address",
          "name": "staking",
          "type": "address"
        },
        {
          "internalType": "address",
          "name": "charity",
          "type": "address"
        },
        {
          "internalType": "address",
          "name": "platform",
          "type": "address"
        }
      ],
      "stateMutability": "view",
      "type": "function"
    },
    {
      "inputs": [],
      "name": "feeDistribution",
      "outputs": [
        {
          "internalType": "uint256",
          "name": "staking",
          "type": "uint256"
        },
        {
          "internalType": "uint256",
          "name": "referralLv1",
          "type": "uint256"
        },
        {
          "internalType": "uint256",
          "name": "referralLv2",
          "type": "uint256"
        },
        {
          "internalType": "uint256",
          "name": "charity",
          "type": "uint256"
        },
        {
          "internalType": "uint256",
          "name": "platform",
          "type": "uint256"
        }
      ],
      "stateMutability": "view",
      "type": "function"
    },
    {
      "inputs": [
        {
          "internalType": "uint256",
          "name": "raffleId",
          "type": "uint256"
        },
        {
          "internalType": "uint256",
          "name": "_random",
          "type": "uint256"
        }
      ],
      "name": "findWinnerFromRandom",
      "outputs": [
        {
          "internalType": "address",
          "name": "",
          "type": "address"
        }
      ],
      "stateMutability": "view",
      "type": "function"
    },
    {
      "inputs": [],
      "name": "gameInfo",
      "outputs": [
        {
          "internalType": "contract IVRF",
          "name": "VRF",
          "type": "address"
        },
        {
          "internalType": "contract IReferral",
          "name": "REFERRAL",
          "type": "address"
        },
        {
          "internalType": "uint256",
          "name": "currentId",
          "type": "uint256"
        },
        {
          "internalType": "uint256",
          "name": "protocolFee",
          "type": "uint256"
        }
      ],
      "stateMutability": "view",
      "type": "function"
    },
    {
      "inputs": [
        {
          "internalType": "address",
          "name": "user",
          "type": "address"
        }
      ],
      "name": "getReferrer",
      "outputs": [
        {
          "internalType": "address",
          "name": "",
          "type": "address"
        },
        {
          "internalType": "address",
          "name": "",
          "type": "address"
        },
        {
          "internalType": "address",
          "name": "",
          "type": "address"
        }
      ],
      "stateMutability": "view",
      "type": "function"
    },
    {
      "inputs": [
        {
          "internalType": "uint256",
          "name": "raffleId",
          "type": "uint256"
        }
      ],
      "name": "getWinNumber",
      "outputs": [
        {
          "internalType": "uint32",
          "name": "",
          "type": "uint32"
        }
      ],
      "stateMutability": "view",
      "type": "function"
    },
    {
      "inputs": [
        {
          "internalType": "address",
          "name": "",
          "type": "address"
        },
        {
          "internalType": "address",
          "name": "",
          "type": "address"
        },
        {
          "internalType": "uint256[]",
          "name": "",
          "type": "uint256[]"
        },
        {
          "internalType": "uint256[]",
          "name": "",
          "type": "uint256[]"
        },
        {
          "internalType": "bytes",
          "name": "",
          "type": "bytes"
        }
      ],
      "name": "onERC1155BatchReceived",
      "outputs": [
        {
          "internalType": "bytes4",
          "name": "",
          "type": "bytes4"
        }
      ],
      "stateMutability": "nonpayable",
      "type": "function"
    },
    {
      "inputs": [
        {
          "internalType": "address",
          "name": "",
          "type": "address"
        },
        {
          "internalType": "address",
          "name": "",
          "type": "address"
        },
        {
          "internalType": "uint256",
          "name": "",
          "type": "uint256"
        },
        {
          "internalType": "uint256",
          "name": "",
          "type": "uint256"
        },
        {
          "internalType": "bytes",
          "name": "",
          "type": "bytes"
        }
      ],
      "name": "onERC1155Received",
      "outputs": [
        {
          "internalType": "bytes4",
          "name": "",
          "type": "bytes4"
        }
      ],
      "stateMutability": "nonpayable",
      "type": "function"
    },
    {
      "inputs": [
        {
          "internalType": "address",
          "name": "",
          "type": "address"
        },
        {
          "internalType": "address",
          "name": "",
          "type": "address"
        },
        {
          "internalType": "uint256",
          "name": "",
          "type": "uint256"
        },
        {
          "internalType": "bytes",
          "name": "",
          "type": "bytes"
        }
      ],
      "name": "onERC721Received",
      "outputs": [
        {
          "internalType": "bytes4",
          "name": "",
          "type": "bytes4"
        }
      ],
      "stateMutability": "nonpayable",
      "type": "function"
    },
    {
      "inputs": [
        {
          "internalType": "address",
          "name": "",
          "type": "address"
        }
      ],
      "name": "operators",
      "outputs": [
        {
          "internalType": "bool",
          "name": "",
          "type": "bool"
        }
      ],
      "stateMutability": "view",
      "type": "function"
    },
    {
      "inputs": [],
      "name": "owner",
      "outputs": [
        {
          "internalType": "address",
          "name": "",
          "type": "address"
        }
      ],
      "stateMutability": "view",
      "type": "function"
    },
    {
      "inputs": [],
      "name": "paused",
      "outputs": [
        {
          "internalType": "bool",
          "name": "",
          "type": "bool"
        }
      ],
      "stateMutability": "view",
      "type": "function"
    },
    {
      "inputs": [
        {
          "internalType": "uint256",
          "name": "",
          "type": "uint256"
        }
      ],
      "name": "prizes",
      "outputs": [
        {
          "internalType": "enum PRIZE_TYPE",
          "name": "prizeType",
          "type": "uint8"
        },
        {
          "internalType": "address",
          "name": "token",
          "type": "address"
        },
        {
          "internalType": "uint256",
          "name": "amount",
          "type": "uint256"
        },
        {
          "internalType": "uint256",
          "name": "tokenId",
          "type": "uint256"
        }
      ],
      "stateMutability": "view",
      "type": "function"
    },
    {
      "inputs": [
        {
          "internalType": "uint256",
          "name": "",
          "type": "uint256"
        }
      ],
      "name": "raffles",
      "outputs": [
        {
          "internalType": "enum STATUS",
          "name": "status",
          "type": "uint8"
        },
        {
          "internalType": "bool",
          "name": "hasFree",
          "type": "bool"
        },
        {
          "internalType": "uint256",
          "name": "platformFee",
          "type": "uint256"
        },
        {
          "internalType": "uint256",
          "name": "endTime",
          "type": "uint256"
        },
        {
          "internalType": "uint256",
          "name": "maxPerUser",
          "type": "uint256"
        },
        {
          "internalType": "uint256",
          "name": "price",
          "type": "uint256"
        },
        {
          "internalType": "uint256",
          "name": "ticketsCount",
          "type": "uint256"
        },
        {
          "internalType": "uint256",
          "name": "amountRaised",
          "type": "uint256"
        },
        {
          "internalType": "uint256",
          "name": "amountCollected",
          "type": "uint256"
        },
        {
          "internalType": "uint256",
          "name": "randomNumber",
          "type": "uint256"
        },
        {
          "internalType": "uint256",
          "name": "eligibility",
          "type": "uint256"
        },
        {
          "internalType": "address",
          "name": "seller",
          "type": "address"
        },
        {
          "internalType": "address",
          "name": "winner",
          "type": "address"
        }
      ],
      "stateMutability": "view",
      "type": "function"
    },
    {
      "inputs": [
        {
          "internalType": "uint256",
          "name": "id",
          "type": "uint256"
        }
      ],
      "name": "redeem",
      "outputs": [],
      "stateMutability": "nonpayable",
      "type": "function"
    },
    {
      "inputs": [],
      "name": "renounceOwnership",
      "outputs": [],
      "stateMutability": "nonpayable",
      "type": "function"
    },
    {
      "inputs": [
        {
          "components": [
            {
              "internalType": "address",
              "name": "staking",
              "type": "address"
            },
            {
              "internalType": "address",
              "name": "charity",
              "type": "address"
            },
            {
              "internalType": "address",
              "name": "platform",
              "type": "address"
            }
          ],
          "internalType": "struct FeeAddress",
          "name": "_addrs",
          "type": "tuple"
        }
      ],
      "name": "setFeeAddress",
      "outputs": [],
      "stateMutability": "nonpayable",
      "type": "function"
    },
    {
      "inputs": [
        {
          "components": [
            {
              "internalType": "uint256",
              "name": "staking",
              "type": "uint256"
            },
            {
              "internalType": "uint256",
              "name": "referralLv1",
              "type": "uint256"
            },
            {
              "internalType": "uint256",
              "name": "referralLv2",
              "type": "uint256"
            },
            {
              "internalType": "uint256",
              "name": "charity",
              "type": "uint256"
            },
            {
              "internalType": "uint256",
              "name": "platform",
              "type": "uint256"
            }
          ],
          "internalType": "struct FeeDistribution",
          "name": "_fees",
          "type": "tuple"
        }
      ],
      "name": "setFeeDistribution",
      "outputs": [],
      "stateMutability": "nonpayable",
      "type": "function"
    },
    {
      "inputs": [
        {
          "internalType": "address",
          "name": "_vrf",
          "type": "address"
        },
        {
          "internalType": "address",
          "name": "ref",
          "type": "address"
        }
      ],
      "name": "setInterface",
      "outputs": [],
      "stateMutability": "nonpayable",
      "type": "function"
    },
    {
      "inputs": [
        {
          "internalType": "address",
          "name": "_addr",
          "type": "address"
        },
        {
          "internalType": "bool",
          "name": "_enable",
          "type": "bool"
        }
      ],
      "name": "setOperator",
      "outputs": [],
      "stateMutability": "nonpayable",
      "type": "function"
    },
    {
      "inputs": [
        {
          "internalType": "uint256",
          "name": "_fee",
          "type": "uint256"
        }
      ],
      "name": "setProtocolFee",
      "outputs": [],
      "stateMutability": "nonpayable",
      "type": "function"
    },
    {
      "inputs": [
        {
          "internalType": "address[]",
          "name": "_addrs",
          "type": "address[]"
        },
        {
          "internalType": "bool",
          "name": "enable",
          "type": "bool"
        }
      ],
      "name": "setVerifyAddress",
      "outputs": [],
      "stateMutability": "nonpayable",
      "type": "function"
    },
    {
      "inputs": [
        {
          "internalType": "bytes4",
          "name": "interfaceId",
          "type": "bytes4"
        }
      ],
      "name": "supportsInterface",
      "outputs": [
        {
          "internalType": "bool",
          "name": "",
          "type": "bool"
        }
      ],
      "stateMutability": "view",
      "type": "function"
    },
    {
      "inputs": [
        {
          "internalType": "uint256",
          "name": "",
          "type": "uint256"
        },
        {
          "internalType": "uint256",
          "name": "",
          "type": "uint256"
        }
      ],
      "name": "tickets",
      "outputs": [
        {
          "internalType": "address",
          "name": "user",
          "type": "address"
        },
        {
          "internalType": "uint256",
          "name": "id",
          "type": "uint256"
        },
        {
          "internalType": "uint256",
          "name": "start",
          "type": "uint256"
        },
        {
          "internalType": "uint256",
          "name": "end",
          "type": "uint256"
        }
      ],
      "stateMutability": "view",
      "type": "function"
    },
    {
      "inputs": [
        {
          "internalType": "address",
          "name": "newOwner",
          "type": "address"
        }
      ],
      "name": "transferOwnership",
      "outputs": [],
      "stateMutability": "nonpayable",
      "type": "function"
    },
    {
      "inputs": [
        {
          "internalType": "uint256",
          "name": "raffleId",
          "type": "uint256"
        },
        {
          "internalType": "address",
          "name": "to",
          "type": "address"
        },
        {
          "internalType": "uint256[]",
          "name": "ids",
          "type": "uint256[]"
        }
      ],
      "name": "transferTickets",
      "outputs": [],
      "stateMutability": "nonpayable",
      "type": "function"
    },
    {
      "inputs": [
        {
          "internalType": "uint256",
          "name": "",
          "type": "uint256"
        },
        {
          "internalType": "address",
          "name": "",
          "type": "address"
        }
      ],
      "name": "userStates",
      "outputs": [
        {
          "internalType": "uint256",
          "name": "counts",
          "type": "uint256"
        },
        {
          "internalType": "bool",
          "name": "gotFree",
          "type": "bool"
        }
      ],
      "stateMutability": "view",
      "type": "function"
    },
    {
      "inputs": [
        {
          "internalType": "uint256",
          "name": "amount",
          "type": "uint256"
        }
      ],
      "name": "withdraw",
      "outputs": [],
      "stateMutability": "nonpayable",
      "type": "function"
    }
  ],
  "bytecode": "0x60806040523480156200005e5760405162461bcd60e51b815260206004820152602260248201527f45746865722073656e7420746f206e6f6e2d70617961626c652066756e637469604482019081526137b760f11b6064830152608482fd5b50600160005533806200008b57604051631e4fbdf760e01b81526000600482015260240160405180910390fd5b6200009681620000e7565b506001805460ff60a01b19168155336000908152600860205260409020805460ff19169091179055610258600c55610fa0600d55610960600e556064600f556101f4601055610bb860115562000139565b600180546001600160a01b038381166001600160a01b0319831681179093556040519116919082907f8be0079c531659141344cd1fd0a4f28419497f9722a3daafe3b4186f6b6457e090600090a35050565b615c3b80620001496000396000f3fe6080604052600436106102255760003560e01c8063721354c111610123578063aef0792d116100ab578063eccb3a4f1161006f578063eccb3a4f1461100d578063ee39040f146110a7578063f23a6e6114611112578063f2fde38b14611179578063f46666ba146111d457610225565b8063aef0792d14610e3a578063bc197c8114610e5b578063db006a7514610ec2578063db73bfce14610f1d578063ddd96b1e14610fb257610225565b806387a3fe4c116100f257806387a3fe4c14610c115780638da5cb5b14610c91578063a018fa3d14610cea578063a374e43f14610d5a578063a3a8896814610ddf57610225565b8063721354c114610a795780637805862f14610b0b578063787dce3d14610b5b57806386bb8f3714610bb657610225565b806340e58ee5116101b15780635d4bc0ce116101755780635d4bc0ce146108345780636264e6151461090b57806367c536021461097e5780636985a022146109d9578063715018a614610a2957610225565b806340e58ee51461063757806341275358146106925780634a9fefc714610724578063558a72971461077f5780635c975abb146107da57610225565b806313e7c9d8116101f857806313e7c9d81461040d578063149095ad14610478578063150b7a02146104d35780632479b177146105525780632e1a7d4d146105dc57610225565b806301ffc9a71461028a57806302d8f2b5146102fa5780630aebeb4e146103575780631324fa23146103b2575b60405162461bcd60e51b815260206004820152603560248201527f436f6e747261637420646f6573206e6f7420686176652066616c6c6261636b2060448201908152746e6f7220726563656976652066756e6374696f6e7360581b6064830152608482fd5b3480156102d15760405162461bcd60e51b81526020600482015260226024820152600080516020615bc6833981519152604482019081526137b760f11b6064830152608482fd5b506102e56102e0366004614d07565b6111e7565b60405190151581526020015b60405180910390f35b3480156103415760405162461bcd60e51b81526020600482015260226024820152600080516020615bc6833981519152604482019081526137b760f11b6064830152608482fd5b50610355610350366004614d49565b61121e565b005b34801561039e5760405162461bcd60e51b81526020600482015260226024820152600080516020615bc6833981519152604482019081526137b760f11b6064830152608482fd5b506103556103ad366004614d85565b611254565b3480156103f95760405162461bcd60e51b81526020600482015260226024820152600080516020615bc6833981519152604482019081526137b760f11b6064830152608482fd5b50610355610408366004614da1565b611545565b3480156104545760405162461bcd60e51b81526020600482015260226024820152600080516020615bc6833981519152604482019081526137b760f11b6064830152608482fd5b506102e5610463366004614dbc565b60086020526000908152604090205460ff1681565b3480156104bf5760405162461bcd60e51b81526020600482015260226024820152600080516020615bc6833981519152604482019081526137b760f11b6064830152608482fd5b506103556104ce366004614f42565b61155f565b34801561051a5760405162461bcd60e51b81526020600482015260226024820152600080516020615bc6833981519152604482019081526137b760f11b6064830152608482fd5b506105396105293660046150a4565b630a85bd0160e11b949350505050565b6040516001600160e01b031990911681526020016102f1565b3480156105995760405162461bcd60e51b81526020600482015260226024820152600080516020615bc6833981519152604482019081526137b760f11b6064830152608482fd5b50600d54600e54600f546010546011546105b4949392919085565b604080519586526020860194909452928401919091526060830152608082015260a0016102f1565b3480156106235760405162461bcd60e51b81526020600482015260226024820152600080516020615bc6833981519152604482019081526137b760f11b6064830152608482fd5b50610355610632366004614d85565b611625565b34801561067e5760405162461bcd60e51b81526020600482015260226024820152600080516020615bc6833981519152604482019081526137b760f11b6064830152608482fd5b5061035561068d366004614d85565b61165e565b3480156106d95760405162461bcd60e51b81526020600482015260226024820152600080516020615bc6833981519152604482019081526137b760f11b6064830152608482fd5b506012546013546014546106fa926001600160a01b03908116928116911683565b604080516001600160a01b03948516815292841660208401529216918101919091526060016102f1565b34801561076b5760405162461bcd60e51b81526020600482015260226024820152600080516020615bc6833981519152604482019081526137b760f11b6064830152608482fd5b506106fa61077a366004614dbc565b6117c0565b3480156107c65760405162461bcd60e51b81526020600482015260226024820152600080516020615bc6833981519152604482019081526137b760f11b6064830152608482fd5b506103556107d5366004615115565b61188f565b3480156108215760405162461bcd60e51b81526020600482015260226024820152600080516020615bc6833981519152604482019081526137b760f11b6064830152608482fd5b50600154600160a01b900460ff166102e5565b34801561087b5760405162461bcd60e51b81526020600482015260226024820152600080516020615bc6833981519152604482019081526137b760f11b6064830152608482fd5b506108f261088a366004614d85565b600260208190526000918252604090912080546001820154928201546003830154600484015460058501546006860154600787015460088801546009890154600a8a0154600b909a015460ff808b169c610100909b04169a6001600160a01b0390811691168d565b6040516102f19d9c9b9a9998979695949392919061515c565b3480156109525760405162461bcd60e51b81526020600482015260226024820152600080516020615bc6833981519152604482019081526137b760f11b6064830152608482fd5b506109666109613660046151ed565b611901565b6040516001600160a01b0390911681526020016102f1565b3480156109c55760405162461bcd60e51b81526020600482015260226024820152600080516020615bc6833981519152604482019081526137b760f11b6064830152608482fd5b506103556109d4366004615212565b6119e9565b348015610a205760405162461bcd60e51b81526020600482015260226024820152600080516020615bc6833981519152604482019081526137b760f11b6064830152608482fd5b50610355611d74565b348015610a705760405162461bcd60e51b81526020600482015260226024820152600080516020615bc6833981519152604482019081526137b760f11b6064830152608482fd5b50610355611d86565b348015610ac05760405162461bcd60e51b81526020600482015260226024820152600080516020615bc6833981519152604482019081526137b760f11b6064830152608482fd5b50610af6610acf366004615273565b60066020908152600092835260408084209091529082529020805460019091015460ff1682565b604080519283529015156020830152016102f1565b348015610b525760405162461bcd60e51b81526020600482015260226024820152600080516020615bc6833981519152604482019081526137b760f11b6064830152608482fd5b50610355611d98565b348015610ba25760405162461bcd60e51b81526020600482015260226024820152600080516020615bc6833981519152604482019081526137b760f11b6064830152608482fd5b50610355610bb1366004614d85565b611da8565b348015610bfd5760405162461bcd60e51b81526020600482015260226024820152600080516020615bc6833981519152604482019081526137b760f11b6064830152608482fd5b50610355610c0c3660046151ed565b611def565b348015610c585760405162461bcd60e51b81526020600482015260226024820152600080516020615bc6833981519152604482019081526137b760f11b6064830152608482fd5b50610c6c610c673660046151ed565b611eea565b604080516001600160a01b0390941684526020840192909252908201526060016102f1565b348015610cd85760405162461bcd60e51b81526020600482015260226024820152600080516020615bc6833981519152604482019081526137b760f11b6064830152608482fd5b506001546001600160a01b0316610966565b348015610d315760405162461bcd60e51b81526020600482015260226024820152600080516020615bc6833981519152604482019081526137b760f11b6064830152608482fd5b50610d45610d40366004614d85565b611f36565b60405163ffffffff90911681526020016102f1565b348015610da15760405162461bcd60e51b81526020600482015260226024820152600080516020615bc6833981519152604482019081526137b760f11b6064830152608482fd5b50610db5610db03660046151ed565b6120eb565b604080516001600160a01b03909516855260208501939093529183015260608201526080016102f1565b348015610e265760405162461bcd60e51b81526020600482015260226024820152600080516020615bc6833981519152604482019081526137b760f11b6064830152608482fd5b506102e5610e35366004615273565b61213b565b610e4d610e48366004615332565b6121f4565b6040519081526020016102f1565b348015610ea25760405162461bcd60e51b81526020600482015260226024820152600080516020615bc6833981519152604482019081526137b760f11b6064830152608482fd5b50610539610eb13660046154df565b63bc197c8160e01b95945050505050565b348015610f095760405162461bcd60e51b81526020600482015260226024820152600080516020615bc6833981519152604482019081526137b760f11b6064830152608482fd5b50610355610f18366004614d85565b6123ce565b348015610f645760405162461bcd60e51b81526020600482015260226024820152600080516020615bc6833981519152604482019081526137b760f11b6064830152608482fd5b50600954600a54600b54600c54610f87936001600160a01b039081169316919084565b604080516001600160a01b0395861681529490931660208501529183015260608201526080016102f1565b348015610ff95760405162461bcd60e51b81526020600482015260226024820152600080516020615bc6833981519152604482019081526137b760f11b6064830152608482fd5b50610355611008366004615598565b6124c5565b3480156110545760405162461bcd60e51b81526020600482015260226024820152600080516020615bc6833981519152604482019081526137b760f11b6064830152608482fd5b50611097611063366004614d85565b60036020526000908152604090208054600182015460029092015460ff8216926101009092046001600160a01b0316919084565b6040516102f194939291906155c1565b3480156110ee5760405162461bcd60e51b81526020600482015260226024820152600080516020615bc6833981519152604482019081526137b760f11b6064830152608482fd5b506102e56110fd366004614dbc565b60076020526000908152604090205460ff1681565b3480156111595760405162461bcd60e51b81526020600482015260226024820152600080516020615bc6833981519152604482019081526137b760f11b6064830152608482fd5b506105396111683660046155f3565b63f23a6e6160e01b95945050505050565b3480156111c05760405162461bcd60e51b81526020600482015260226024820152600080516020615bc6833981519152604482019081526137b760f11b6064830152608482fd5b506103556111cf366004614dbc565b6124f3565b6103556111e2366004615661565b61252e565b60006001600160e01b03198216630271189760e51b148061121857506301ffc9a760e01b6001600160e01b03198316145b92915050565b611226612732565b600980546001600160a01b039384166001600160a01b031991821617909155600a8054929093169116179055565b61125c61275f565b60008181526002602052604090206001815460ff16600481111561128257611282615146565b146112a85760405162461bcd60e51b815260040161129f906156e2565b60405180910390fd5b806002015442116112e75760405162461bcd60e51b8152602060048201526009602482015268139bdd08195b99195960ba1b604482015260640161129f565b60068101541580156112fb57506005810154155b1561137357600a8101546001600160a01b0316331461134a5760405162461bcd60e51b815260206004820152600b60248201526a27b7363c9039b2b63632b960a91b604482015260640161129f565b805460ff19166004178155600a81015461136e9083906001600160a01b0316612789565b6114ef565b805460ff191660021781556009546001600160a01b03166113cd5760405162461bcd60e51b815260206004820152601460248201527319d85b59525b999bcb959491881b9bdd081cd95d60621b604482015260640161129f565b6009546005820154604051632634d7b160e01b8152600481018590526024810191909152600160448201526000916001600160a01b031690632634d7b190606401602060405180830381600087803b1580156114665760405162461bcd60e51b81526020600482015260256024820152600080516020615be6833981519152604482019081526420636f646560d81b6064830152608482fd5b505af115801561147a573d6000803e3d6000fd5b505050506040513d601f19601f8201168201806040525081019061149e9190615704565b9050806114ed5760405162461bcd60e51b815260206004820152601b60248201527f67616d65496e666f2e5652462072657175657374206661696c65640000000000604482015260640161129f565b505b336001600160a01b0316827f01a926fa2616000e6327ac9e572ba7cf7502105fad46314ed25718cd28ba8000836006015460405161152f91815260200190565b60405180910390a3506115426001600055565b50565b61154d612732565b80601261155a8282615744565b505050565b3360009081526008602052604090205460ff166115ae5760405162461bcd60e51b815260206004820152600d60248201526c27b7363c9037b832b930ba37b960991b604482015260640161129f565b60005b8281101561161f5781600760008686858181106115d0576115d0615791565b90506020020160208101906115e59190614dbc565b6001600160a01b031681526020810191909152604001600020805460ff191691151591909117905580611617816157bd565b9150506115b1565b50505050565b61162d612732565b604051339082156108fc029083906000818181858888f1935050505015801561165a573d6000803e3d6000fd5b5050565b61166661275f565b60008181526002602052604090206001815460ff16600481111561168c5761168c615146565b146116a95760405162461bcd60e51b815260040161129f906156e2565b600a8101546001600160a01b03163314806116d357503360009081526008602052604090205460ff165b61170d5760405162461bcd60e51b815260206004820152600b60248201526a27b7363c9039b2b63632b960a91b604482015260640161129f565b600681015415801561172157506005810154155b61175c5760405162461bcd60e51b815260206004820152600c60248201526b151a58dad95d1cc81cdbdb1960a21b604482015260640161129f565b805460ff19166004178155600a8101546117809083906001600160a01b0316612789565b336001600160a01b0316827f0871ac1366305b60203984de1a540b8d88dbfba481bb2083cfe20b642ae47f65836006015460405161152f91815260200190565b600a54604051634a9fefc760e01b81526001600160a01b0383811660048301526000928392839290911690634a9fefc79060240160606040518083038186803b15801561184a5760405162461bcd60e51b81526020600482015260256024820152600080516020615be6833981519152604482019081526420636f646560d81b6064830152608482fd5b505afa15801561185e573d6000803e3d6000fd5b505050506040513d601f19601f8201168201806040525081019061188291906157d6565b9250925092509193909250565b611897612732565b6001600160a01b0382166118d65760405162461bcd60e51b81526020600482015260066024820152652b9030b2323960d11b604482015260640161129f565b6001600160a01b03919091166000908152600860205260409020805460ff1916911515919091179055565b60008082116119435760405162461bcd60e51b815260206004820152600e60248201526d496e76616c69642072616e646f6d60901b604482015260640161129f565b60008381526005602052604090205461198b5760405162461bcd60e51b815260206004820152600a6024820152694e6f207469636b65747360b01b604482015260640161129f565b60008381526005602052604081206119a390846129cf565b6000858152600560205260409020805491925090829081106119c7576119c7615791565b60009182526020909120600490910201546001600160a01b0316949350505050565b6119f161275f565b60008481526002602052604090206001815460ff166004811115611a1757611a17615146565b14611a345760405162461bcd60e51b815260040161129f906156e2565b8060020154421115611a725760405162461bcd60e51b8152602060048201526007602482015266115e1c1a5c995960ca1b604482015260640161129f565b6001600160a01b03841615801590611a9357506001600160a01b0384163314155b611ac85760405162461bcd60e51b815260040161129f906020808252600490820152635720746f60e01b604082015260600190565b60005b82811015611d29576000848483818110611ae757611ae7615791565b60008a815260056020908152604082209202939093013593509050611b0d60018461581b565b81548110611b1d57611b1d615791565b6000918252602090912060049091020180549091506001600160a01b03163314611b775760405162461bcd60e51b815260206004820152600b60248201526a4e6f7420796f757220746b60a81b604482015260640161129f565b81816001015414611bb35760405162461bcd60e51b815260040161129f9060208082526004908201526315c81a5960e21b604082015260600190565b600082600114611c0c576000898152600560205260409020611bd660028561581b565b81548110611be657611be6615791565b9060005260206000209060040201600301548260030154611c07919061581b565b611c12565b81600301545b600386015490915015611c9557600385015460008a81526006602090815260408083206001600160a01b038d168452909152902054611c5290839061582e565b1115611c955760405162461bcd60e51b815260206004820152601260248201527122bc31b2b2b2399036b0bc2832b92ab9b2b960711b604482015260640161129f565b600089815260066020908152604080832033845290915281208054839290611cbe90849061581b565b909155505060008981526006602090815260408083206001600160a01b038c16845290915281208054839290611cf590849061582e565b909155505081546001600160a01b0319166001600160a01b0389161790915550819050611d21816157bd565b915050611acb565b507fc9b870b180ff15afb81d8ae644c674c966eb30b86235e2fbb136bc64b8e3e9808533868686604051611d61959493929190615841565b60405180910390a15061161f6001600055565b611d7c612732565b611d84612aa2565b565b611d8e612732565b611d846000612b02565b611da0612732565b611d84612b54565b611db0612732565b611388811115611dea5760405162461bcd60e51b8152602060048201526005602482015264572066656560d81b604482015260640161129f565b600c55565b611df761275f565b600080611e048484612b90565b6000868152600260205260409020600b810180546001600160a01b0385166001600160a01b03199091168117909155815460ff1916600317825563ffffffff8316600883015592945090925090611e5c908690612789565b611e798582600701548360060154611e74919061581b565b612ffe565b600b8101546006820154600583015460408051928352602083019190915263ffffffff851682820152516001600160a01b0390921691339188917f279718d70a9249ca672cdcdc0ef48fa934e325a8cbd02451ad397329251c29f69181900360600190a450505061165a6001600055565b60046020528160005260406000208181548110611f0657600080fd5b60009182526020909120600390910201805460018201546002909201546001600160a01b03909116935090915083565b60095460405163231fdc6360e11b81526004810183905260009182916001600160a01b039091169063463fb8c69060240160006040518083038186803b158015611fbd5760405162461bcd60e51b81526020600482015260256024820152600080516020615be6833981519152604482019081526420636f646560d81b6064830152608482fd5b505afa158015611fd1573d6000803e3d6000fd5b505050506040513d6000823e601f3d908101601f19168201604052611ff991908101906158e5565b9050805160011461200b5760006120e4565b60095460405163231fdc6360e11b8152600481018590526001600160a01b039091169063463fb8c69060240160006040518083038186803b15801561208d5760405162461bcd60e51b81526020600482015260256024820152600080516020615be6833981519152604482019081526420636f646560d81b6064830152608482fd5b505afa1580156120a1573d6000803e3d6000fd5b505050506040513d6000823e601f3d908101601f191682016040526120c991908101906158e5565b6000815181106120db576120db615791565b60200260200101515b9392505050565b6005602052816000526040600020818154811061210757600080fd5b600091825260209091206004909102018054600182015460028301546003909301546001600160a01b039092169450925084565b6000828152600460205260408120815b81548110156121e9576121d68483838154811061216a5761216a615791565b600091825260209091206003909102015484546001600160a01b039091169085908590811061219b5761219b615791565b9060005260206000209060030201600201548585815481106121bf576121bf615791565b9060005260206000209060030201600101546131b0565b50806121e1816157bd565b91505061214b565b506001949350505050565b60006121fe61275f565b6122066134d9565b612214898989898787613504565b600b8054906000612224836157bd565b9091555050600b5460008181526002602052604090208054600190829060ff19168280021790555080548c15156101000261ff0019909116178155600c546001820155600281018b905560038082018b9055600482018a9055600a820180546001600160a01b031916331790556009820187905560008381526020919091526040902088906122b382826159a1565b90505060005b868110156123645760008888838181106122d5576122d5615791565b9050606002018036038101906122eb9190615a16565b90506122f6816135f9565b600084815260046020908152604080832080546001808201835591855293839020855160039095020180546001600160a01b0319166001600160a01b03909516949094178455918401519183019190915591909101516002909101558061235c816157bd565b9150506122b9565b5061236e8861373d565b336001600160a01b0316827f84696661ac361122e2bdbdc9751a27979d268697e6b119418ce17c9538343aa68d88886040516123ac93929190615aa3565b60405180910390a35090506123c16001600055565b9998505050505050505050565b6123d661275f565b6000806123e4836000612b90565b6000858152600260205260409020600b810180546001600160a01b0385166001600160a01b03199091168117909155815460ff1916600317825563ffffffff831660088301559294509092509061243c908590612789565b6124548482600701548360060154611e74919061581b565b600b8101546006820154600583015460408051928352602083019190915263ffffffff851682820152516001600160a01b0390921691339187917f279718d70a9249ca672cdcdc0ef48fa934e325a8cbd02451ad397329251c29f69181900360600190a45050506115426001600055565b6124cd612732565b8035600d556020810135600e556040810135600f55606081013560105560800135601155565b6124fb612732565b6001600160a01b03811661252557604051631e4fbdf760e01b81526000600482015260240161129f565b61154281612b02565b61253661275f565b60006001600160a01b0384161561254d578361254f565b335b600088815260026020526040902090915061256d88888885346138e8565b60008881526005602052604081205461258790600161582e565b905060008260050154600161259c919061582e565b905060008984600501546125b0919061582e565b905060006040518060800160405280876001600160a01b03168152602001858152602001848152602001838152509050600560008d815260200190815260200160002081908060018154018082558091505060019003906000526020600020906004020160009091909190915060008201518160000160006101000a8154816001600160a01b0302191690836001600160a01b0316021790555060208201518160010155604082015181600201556060820151816003015550503485600601600082825401925050819055503485600701600082825401925050819055508a856005016000828254019250508190555060006126ae8d8c3334613c61565b9050808660070160008282546126c4919061581b565b92505081905550866001600160a01b03168d7f1a98d225d684d57f184c3faee648accd611d81cc61faae811d9c4b823ceb62ec878f8a600501548e8e604051612711959493929190615abd565b60405180910390a35050505050505061272a6001600055565b505050505050565b6001546001600160a01b03163314611d845760405163118cdaa760e01b815233600482015260240161129f565b60026000540361278257604051633ee5aeb560e01b815260040160405180910390fd5b6002600055565b60008281526003602052604090206002815460ff1660028111156127af576127af615146565b036127e0576127e08160000160019054906101000a90046001600160a01b03163084846002015485600101546141ee565b6001815460ff1660028111156127f8576127f8615146565b036128cc578054600182015460405163a9059cbb60e01b81526001600160a01b0385811660048301526024820192909252610100909204169063a9059cbb90604401602060405180830381600087803b1580156128925760405162461bcd60e51b81526020600482015260256024820152600080516020615be6833981519152604482019081526420636f646560d81b6064830152608482fd5b505af11580156128a6573d6000803e3d6000fd5b505050506040513d601f19601f820116820180604052508101906128ca9190615704565b505b6000815460ff1660028111156128e4576128e4615146565b036129885760018101546040516000916001600160a01b038516918381818185875af1925050503d8060008114612937576040519150601f19603f3d011682016040523d82523d6000602084013e61293c565b606091505b50509050806129865760405162461bcd60e51b815260206004820152601660248201527513985d1a5d99481d1c985b9cd9995c8819985a5b195960521b604482015260640161129f565b505b816001600160a01b0316837f45e9644028a064ef5e79e7bd49e2e4a01c157d7db0338919a2d675e94217d544836040516129c29190615ae3565b60405180910390a3505050565b815460009081036129e257506000611218565b82546000905b80821015612a455760006129fc83836143b5565b905084868281548110612a1157612a11615791565b9060005260206000209060040201600301541115612a3157809150612a3f565b612a3c81600161582e565b92505b506129e8565b600082118015612a8157508385612a5d60018561581b565b81548110612a6d57612a6d615791565b906000526020600020906004020160030154145b15612a9a57612a9160018361581b565b92505050611218565b509050611218565b612aaa6134d9565b6001805460ff60a01b1916600160a01b1790557f62e78cea01bee320cd4e420270b5ea74000d11b0c9f74754ebdbfc544b05a258612ae53390565b6040516001600160a01b03909116815260200160405180910390a1565b600180546001600160a01b038381166001600160a01b0319831681179093556040519116919082907f8be0079c531659141344cd1fd0a4f28419497f9722a3daafe3b4186f6b6457e090600090a35050565b612b5c6143d0565b6001805460ff60a01b191690557f5db9ee0a495bf2e6ff9c91a7834c1ba4fdd244a5e8aa4e537bd38aeae4b073aa33612ae5565b600082815260026020819052604082208291815460ff166004811115612bb857612bb8615146565b14612bf15760405162461bcd60e51b81526020600482015260096024820152684e6f7420636c6f736560b81b604482015260640161129f565b6009546001600160a01b0316612c405760405162461bcd60e51b815260206004820152601460248201527319d85b59525b999bcb959491881b9bdd081cd95d60621b604482015260640161129f565b60095460405163231fdc6360e11b8152600481018790526000916001600160a01b03169063463fb8c69060240160006040518083038186803b158015612cc35760405162461bcd60e51b81526020600482015260256024820152600080516020615be6833981519152604482019081526420636f646560d81b6064830152608482fd5b505afa158015612cd7573d6000803e3d6000fd5b505050506040513d6000823e601f3d908101601f19168201604052612cff91908101906158e5565b90508051600114612d495760405162461bcd60e51b8152602060048201526014602482015273496e76616c69642064726177206e756d6265727360601b604482015260640161129f565b60095460405163231fdc6360e11b8152600481018890526000916001600160a01b03169063463fb8c69060240160006040518083038186803b158015612dcc5760405162461bcd60e51b81526020600482015260256024820152600080516020615be6833981519152604482019081526420636f646560d81b6064830152608482fd5b505afa158015612de0573d6000803e3d6000fd5b505050506040513d6000823e601f3d908101601f19168201604052612e0891908101906158e5565b600081518110612e1a57612e1a615791565b6020026020010151905060008163ffffffff16118015612e44575082600501548163ffffffff1611155b612e885760405162461bcd60e51b815260206004820152601560248201527424b73b30b634b2103930b73237b690373ab6b132b960591b604482015260640161129f565b85600003612f1b57612ea0878263ffffffff16611901565b600b840180546001600160a01b0319166001600160a01b03929092169182179055612f005760405162461bcd60e51b815260206004820152601060248201526f15da5b9b995c881b9bdd08199bdd5b9960821b604482015260640161129f565b600b909201546001600160a01b03169350909150612ff79050565b6000878152600560205260408120612f3460018961581b565b81548110612f4457612f44615791565b600091825260209182902060408051608081018252600490930290910180546001600160a01b0316835260018101549383019390935260028301549082018190526003909201546060820152915063ffffffff831611801590612fb1575080606001518263ffffffff1611155b612fea5760405162461bcd60e51b815260206004820152600a6024820152692737ba103bb4b73732b960b11b604482015260640161129f565b5194509250612ff7915050565b9250929050565b60008281526002602052604081206006810154600182015491929091612710906130289084615b21565b6130329190615b38565b90506000613040828461581b565b90506000612710600d60030154846130589190615b21565b6130629190615b38565b90506000612710600d600001548561307a9190615b21565b6130849190615b38565b9050613090878561581b565b93508184101580156130b557506013546130b59089906001600160a01b0316846143fa565b156130c7576130c4828561581b565b93505b8084101580156130ea57506012546130ea9089906001600160a01b0316836143fa565b156130fc576130f9818561581b565b93505b831561311c5760145461311a9089906001600160a01b0316866143fa565b505b82156131a657600a8601546040516001600160a01b039091169084156108fc029085906000818181858888f1935050505015801561315e573d6000803e3d6000fd5b50600a8601546040518481526001600160a01b039091169089907f4cf0b39d0bda927c75a0a6caec130961cf685d95ddaee0dab5fb70b3ad5a058b9060200160405180910390a35b5050505050505050565b60006131bb846144f8565b156132c757604080516001600160a01b038781166024830152604480830186905283518084039091018152606490920183526020820180516001600160e01b0316627eeac760e11b179052915160009283929088169161321b9190615b5a565b600060405180830381855afa9150503d8060008114613256576040519150601f19603f3d011682016040523d82523d6000602084013e61325b565b606091505b50915091508180156132805750848180602001905181019061327d9190615b89565b10155b6132c05760405162461bcd60e51b8152602060048201526011602482015270496e73756666696369656e74203131353560781b604482015260640161129f565b50506121e9565b6132d0846145bc565b156133d157604080516001600160a01b0387811660248084019190915283518084039091018152604490920183526020820180516001600160e01b03166370a0823160e01b179052915160009283929088169161332d9190615b5a565b600060405180830381855afa9150503d8060008114613368576040519150601f19603f3d011682016040523d82523d6000602084013e61336d565b606091505b50915091508180156133925750848180602001905181019061338f9190615b89565b10155b6132c05760405162461bcd60e51b815260206004820152601060248201526f496e73756666696369656e742037323160801b604482015260640161129f565b604080516001600160a01b0387811660248084019190915283518084039091018152604490920183526020820180516001600160e01b03166370a0823160e01b17905291516000928392908816916134299190615b5a565b600060405180830381855afa9150503d8060008114613464576040519150601f19603f3d011682016040523d82523d6000602084013e613469565b606091505b509150915081801561348e5750848180602001905181019061348b9190615b89565b10155b6134cc5760405162461bcd60e51b815260206004820152600f60248201526e0496e73756666696369656e7420323608c1b604482015260640161129f565b5050506001949350505050565b600154600160a01b900460ff1615611d845760405163d93c066560e01b815260040160405180910390fd5b60b4613510428861581b565b11801561352857506276a700613526428861581b565b105b6135605760405162461bcd60e51b81526020600482015260096024820152685720656e6454696d6560b81b604482015260640161129f565b60008411806135785750831580156135785750846001145b6135ae5760405162461bcd60e51b81526020600482015260076024820152665720707269636560c81b604482015260640161129f565b6101f48111156135f05760405162461bcd60e51b815260206004820152600d60248201526c4e6f746520746f6f206c6f6e6760981b604482015260640161129f565b61272a836145f2565b80516001600160a01b03166136435760405162461bcd60e51b815260206004820152601060248201526f22b634b3b4b1103d32b9379030b2323960811b604482015260640161129f565b805161364e906144f8565b156136a4576000816020015111801561366b575060008160400151115b6115425760405162461bcd60e51b815260206004820152600a602482015269115b1a59da5888185b5d60b21b604482015260640161129f565b80516136af906145bc565b806136c0575080516136c090614a7a565b156137065760008160400151116115425760405162461bcd60e51b815260206004820152600a602482015269115b1a59da5888185b5d60b21b604482015260640161129f565b60405162461bcd60e51b815260206004820152600c60248201526b22b634b3b4b1103a37b5b2b760a11b604482015260640161129f565b600061374c6020830183615ba5565b600281111561375d5761375d615146565b0361379f578060400135341461379f5760405162461bcd60e51b8152602060048201526007602482015266572076616c756560c81b604482015260640161129f565b60016137ae6020830183615ba5565b60028111156137bf576137bf615146565b0361389f576137d46040820160208301614dbc565b604080516323b872dd60e01b81523360048201523060248201529083013560448201526001600160a01b0391909116906323b872dd90606401602060405180830381600087803b1580156138655760405162461bcd60e51b81526020600482015260256024820152600080516020615be6833981519152604482019081526420636f646560d81b6064830152608482fd5b505af1158015613879573d6000803e3d6000fd5b505050506040513d601f19601f8201168201806040525081019061389d9190615704565b505b60026138ae6020830183615ba5565b60028111156138bf576138bf615146565b03611542576115426138d76040830160208401614dbc565b3330846060013585604001356141ee565b60008581526002602052604090206001815460ff16600481111561390e5761390e615146565b1461392b5760405162461bcd60e51b815260040161129f906156e2565b80600201544211156139695760405162461bcd60e51b8152602060048201526007602482015266115e1c1a5c995960ca1b604482015260640161129f565b600a8101546001600160a01b03908116908416036139bc5760405162461bcd60e51b815260206004820152601060248201526f2737ba1030b63637bb9039b2b63632b960811b604482015260640161129f565b81600003613ade57846001146139fc5760405162461bcd60e51b815260206004820152600560248201526457206e756d60d81b604482015260640161129f565b8054610100900460ff16613a3f5760405162461bcd60e51b815260206004820152600a6024820152694e6f206672656520746b60b01b604482015260640161129f565b60008681526006602090815260408083206001600160a01b038716845290915290206001015460ff1615613aa75760405162461bcd60e51b815260206004820152600f60248201526e45786365656473206672656520746b60881b604482015260640161129f565b60008681526006602090815260408083206001600160a01b038716845290915290206001908101805460ff19169091179055613b31565b81816004015486613aef9190615b21565b14613b315760405162461bcd60e51b8152602060048201526012602482015271496e73756666696369656e742066756e647360701b604482015260640161129f565b600381015415613bb157600381015460008781526006602090815260408083206001600160a01b0388168452909152902054613b6e90879061582e565b1115613bb15760405162461bcd60e51b815260206004820152601260248201527122bc31b2b2b2399036b0bc2832b92ab9b2b960711b604482015260640161129f565b60008681526006602090815260408083206001600160a01b038716845290915281208054879290613be390849061582e565b90915550506001600160a01b0384161580613c1a57506001600160a01b0384163314801590613c1a57506001600160a01b0384163b155b613c4e5760405162461bcd60e51b81526020600482015260056024820152642b903932b360d91b604482015260640161129f565b613c58868461213b565b50505050505050565b600a5460009081906001600160a01b0316156141e557600a54604051634a9fefc760e01b81526001600160a01b0386811660048301526000928392839290911690634a9fefc79060240160606040518083038186803b158015613d015760405162461bcd60e51b81526020600482015260256024820152600080516020615be6833981519152604482019081526420636f646560d81b6064830152608482fd5b505afa158015613d15573d6000803e3d6000fd5b505050506040513d601f19601f82011682018060405250810190613d3991906157d6565b919450925090506001600160a01b038316158015613d5e57506001600160a01b038116155b8015613d7257506001600160a01b03881615155b15613eff57600a5460405163bbddaca360e01b81526001600160a01b0389811660048301528a811660248301529091169063bbddaca390604401602060405180830381600087803b158015613e045760405162461bcd60e51b81526020600482015260256024820152600080516020615be6833981519152604482019081526420636f646560d81b6064830152608482fd5b505af1158015613e18573d6000803e3d6000fd5b505050506040513d601f19601f82011682018060405250810190613e3c9190615704565b50600a54604051634a9fefc760e01b81526001600160a01b03898116600483015290911690634a9fefc79060240160606040518083038186803b158015613ec05760405162461bcd60e51b81526020600482015260256024820152600080516020615be6833981519152604482019081526420636f646560d81b6064830152608482fd5b505afa158015613ed4573d6000803e3d6000fd5b505050506040513d601f19601f82011682018060405250810190613ef891906157d6565b5090935091505b6000898152600260205260409020600181015415801590613f205750600087115b156141e0576000612710888360010154613f3a9190615b21565b613f449190615b38565b90506001600160a01b03851615801590613f5f5750600e5415155b1561408d57600e5460009061271090613f789084615b21565b613f829190615b38565b9050613f8e818861582e565b96506000866001600160a01b03168260405160006040518083038185875af1925050503d8060008114613fdd576040519150601f19603f3d011682016040523d82523d6000602084013e613fe2565b606091505b50509050806140335760405162461bcd60e51b815260206004820152601860248201527f526566657272616c207472616e73666572206661696c65640000000000000000604482015260640161129f565b866001600160a01b03168b6001600160a01b03168e7fddeda83d41934a8fda6300be94b9dc267458691ee488df53062cdd94652641ee8d86604051614082929190918252602082015260400190565b60405180910390a450505b6001600160a01b038416158015906140a65750600f5415155b156141de57600f54600090612710906140bf9084615b21565b6140c99190615b38565b90506140d5818861582e565b96506000866001600160a01b03168260405160006040518083038185875af1925050503d8060008114614124576040519150601f19603f3d011682016040523d82523d6000602084013e614129565b606091505b50509050806141845760405162461bcd60e51b815260206004820152602160248201527f526566657272616c207375706572696f72207472616e73666572206661696c656044820152601960fa1b606482015260840161129f565b856001600160a01b03168b6001600160a01b03168e7fddeda83d41934a8fda6300be94b9dc267458691ee488df53062cdd94652641ee8d866040516141d3929190918252602082015260400190565b60405180910390a450505b505b505050505b95945050505050565b836001600160a01b0316856001600160a01b0316141580156142225750826001600160a01b0316846001600160a01b031614155b61425a5760405162461bcd60e51b815260206004820152600960248201526857206164647265737360b81b604482015260640161129f565b614263856145bc565b15614316576040516323b872dd60e01b81526001600160a01b0385811660048301528481166024830152604482018490528616906323b872dd906064015b600060405180830381600087803b1580156142f95760405162461bcd60e51b81526020600482015260256024820152600080516020615be6833981519152604482019081526420636f646560d81b6064830152608482fd5b505af115801561430d573d6000803e3d6000fd5b505050506143ae565b61431f856144f8565b1561437657604051637921219560e11b81526001600160a01b0385811660048301528481166024830152604482018490526064820183905260a06084830152600060a483015286169063f242432a9060c4016142a1565b60405162461bcd60e51b815260206004820152600d60248201526c155b9cdd5c1c1bdc9d08139195609a1b604482015260640161129f565b5050505050565b60006143c46002848418615b38565b6120e49084841661582e565b600154600160a01b900460ff16611d8457604051638dfc202b60e01b815260040160405180910390fd5b60006001600160a01b038316156144ee576000836001600160a01b03168360405160006040518083038185875af1925050503d8060008114614458576040519150601f19603f3d011682016040523d82523d6000602084013e61445d565b606091505b50509050806144a05760405162461bcd60e51b815260206004820152600f60248201526e119959481cd95b990819985a5b1959608a1b604482015260640161129f565b836001600160a01b0316857fab5d6bc525addf3dd899ddc72dd91cf3862ff6b876a97ef651614887119a5d0c856040516144dc91815260200190565b60405180910390a360019150506120e4565b5060009392505050565b6040516301ffc9a760e01b8152636cdb3d1360e11b60048201526000906001600160a01b038316906301ffc9a7906024015b60206040518083038186803b1580156145805760405162461bcd60e51b81526020600482015260256024820152600080516020615be6833981519152604482019081526420636f646560d81b6064830152608482fd5b505afa9250505080156145b0575060408051601f3d908101601f191682019092526145ad91810190615704565b60015b61121857506000919050565b6040516301ffc9a760e01b81526380ac58cd60e01b60048201526000906001600160a01b038316906301ffc9a79060240161452a565b60008160400135116146345760405162461bcd60e51b815260206004820152600b60248201526a15c81c1c9a5e9948185b5d60aa1b604482015260640161129f565b60006146436020830183615ba5565b600281111561465457614654615146565b0361469b57806040013534146146965760405162461bcd60e51b8152602060048201526007602482015266572076616c756560c81b604482015260640161129f565b61472e565b60006146ad6040830160208401614dbc565b6001600160a01b0316141580156146f15750600760006146d36040840160208501614dbc565b6001600160a01b0316815260208101919091526040016000205460ff165b61472e5760405162461bcd60e51b815260206004820152600e60248201526d556e6c6973746564207072697a6560901b604482015260640161129f565b600161473d6020830183615ba5565b600281111561474e5761474e615146565b036149c95761476b6147666040830160208401614dbc565b614a7a565b6147a15760405162461bcd60e51b81526020600482015260076024820152662b903a37b5b2b760c91b604482015260640161129f565b604081018035906147b59060208401614dbc565b6040516370a0823160e01b81523360048201526001600160a01b0391909116906370a082319060240160206040518083038186803b1580156148345760405162461bcd60e51b81526020600482015260256024820152600080516020615be6833981519152604482019081526420636f646560d81b6064830152608482fd5b505afa158015614848573d6000803e3d6000fd5b505050506040513d601f19601f8201168201806040525081019061486c9190615b89565b10156148b15760405162461bcd60e51b8152602060048201526014602482015273496e73756666696369656e742062616c616e636560601b604482015260640161129f565b604081018035906148c59060208401614dbc565b604051636eb1769f60e11b81523360048201523060248201526001600160a01b03919091169063dd62ed3e9060440160206040518083038186803b15801561494a5760405162461bcd60e51b81526020600482015260256024820152600080516020615be6833981519152604482019081526420636f646560d81b6064830152608482fd5b505afa15801561495e573d6000803e3d6000fd5b505050506040513d601f19601f820116820180604052508101906149829190615b89565b10156149c95760405162461bcd60e51b8152602060048201526016602482015275496e73756666696369656e7420616c6c6f77616e636560501b604482015260640161129f565b60026149d86020830183615ba5565b60028111156149e9576149e9615146565b0361154257614a06614a016040830160208401614dbc565b614c4d565b614a3a5760405162461bcd60e51b815260206004820152600560248201526415c81b999d60da1b604482015260640161129f565b60008160600135116115425760405162461bcd60e51b815260206004820152600960248201526815c81d1bdad95b925960ba1b604482015260640161129f565b60408051600481526024810182526020810180516001600160e01b03166318160ddd60e01b179052905160009182916001600160a01b03851691614abd91615b5a565b600060405180830381855afa9150503d8060008114614af8576040519150601f19603f3d011682016040523d82523d6000602084013e614afd565b606091505b5050604080516000602480830182905283518084039091018152604490920183526020820180516001600160e01b03166370a0823160e01b179052915192935090916001600160a01b03861691614b5391615b5a565b600060405180830381855afa9150503d8060008114614b8e576040519150601f19603f3d011682016040523d82523d6000602084013e614b93565b606091505b505060408051600060248201819052604480830182905283518084039091018152606490920183526020820180516001600160e01b0316636eb1769f60e11b179052915192935090916001600160a01b03871691614bf091615b5a565b600060405180830381855afa9150503d8060008114614c2b576040519150601f19603f3d011682016040523d82523d6000602084013e614c30565b606091505b50509050828015614c3e5750815b80156141e55750949350505050565b6000614c58826145bc565b806112185750611218826144f8565b60405162461bcd60e51b815260206004820152602260248201527f414249206465636f64696e673a207475706c65206461746120746f6f2073686f6044820152611c9d60f21b6064820152608481fd5b60405162461bcd60e51b815260206004820152602260248201527f414249206465636f64696e673a20696e76616c6964207475706c65206f666673604482015261195d60f21b6064820152608481fd5b600060208284031215614d1c57614d1c614c67565b81356001600160e01b0319811681146120e457600080fd5b6001600160a01b038116811461154257600080fd5b60008060408385031215614d5f57614d5f614c67565b8235614d6a81614d34565b91506020830135614d7a81614d34565b809150509250929050565b600060208284031215614d9a57614d9a614c67565b5035919050565b600060608284031215614db657614db6614c67565b50919050565b600060208284031215614dd157614dd1614c67565b81356120e481614d34565b60405162461bcd60e51b815260206004820152602b60248201527f414249206465636f64696e673a20696e76616c69642063616c6c64617461206160448201526a1c9c985e481bd9999cd95d60aa1b6064820152608481fd5b60405162461bcd60e51b815260206004820152602b60248201527f414249206465636f64696e673a20696e76616c69642063616c6c64617461206160448201526a0e4e4c2f240d8cadccee8d60ab1b6064820152608481fd5b60405162461bcd60e51b815260206004820152602b60248201527f414249206465636f64696e673a20696e76616c69642063616c6c64617461206160448201526a727261792073747269646560a81b6064820152608481fd5b60008083601f840112614efc57614efc614ddc565b5081356001600160401b03811115614f1657614f16614e35565b6020830191508360208260051b8501011115612ff757612ff7614e8e565b801515811461154257600080fd5b600080600060408486031215614f5a57614f5a614c67565b83356001600160401b03811115614f7357614f73614cb7565b614f7f86828701614ee7565b9094509250506020840135614f9381614f34565b809150509250925092565b634e487b7160e01b600052604160045260246000fd5b604051601f8201601f191681016001600160401b0381118282101715614fdc57614fdc614f9e565b604052919050565b600082601f830112614ff857614ff8614ddc565b813560206001600160401b0382111561501357615013614f9e565b615025601f8301601f19168201614fb4565b82815285828487010111156150895760405162461bcd60e51b815260048101839052602760248201527f414249206465636f64696e673a20696e76616c69642062797465206172726179604482015266040d8cadccee8d60cb1b6064820152608481fd5b82828601838301376000928101909101919091529392505050565b600080600080608085870312156150bd576150bd614c67565b84356150c881614d34565b935060208501356150d881614d34565b92506040850135915060608501356001600160401b038111156150fd576150fd614cb7565b61510987828801614fe4565b91505092959194509250565b6000806040838503121561512b5761512b614c67565b823561513681614d34565b91506020830135614d7a81614f34565b634e487b7160e01b600052602160045260246000fd5b6101a0810160058f1061517157615171615146565b8e82528d151560208301528c60408301528b60608301528a60808301528960a08301528860c08301528760e08301528661010083015285610120830152846101408301526151cb6101608301856001600160a01b03169052565b6001600160a01b0383166101808301529e9d5050505050505050505050505050565b6000806040838503121561520357615203614c67565b50508035926020909101359150565b6000806000806060858703121561522b5761522b614c67565b84359350602085013561523d81614d34565b925060408501356001600160401b0381111561525b5761525b614cb7565b61526787828801614ee7565b95989497509550505050565b6000806040838503121561528957615289614c67565b823591506020830135614d7a81614d34565b60008083601f8401126152b0576152b0614ddc565b5081356001600160401b038111156152ca576152ca614e35565b602083019150836020606083028501011115612ff757612ff7614e8e565b60008083601f8401126152fd576152fd614ddc565b5081356001600160401b0381111561531757615317614e35565b602083019150836020828501011115612ff757612ff7614e8e565b6000806000806000806000806000898b0361014081121561535557615355614c67565b8a3561536081614f34565b995060208b0135985060408b0135975060608b013596506080607f19820112156153d95760405162461bcd60e51b815260206004820152602760248201527f414249206465636f64696e673a207374727563742063616c6c6461746120746f6044820152661bc81cda1bdc9d60ca1b6064820152608481fd5b5060808a0194506101008a01356001600160401b03808211156153fe576153fe614cb7565b61540a8d838e0161529b565b90965094506101208c013591508082111561542757615427614cb7565b506154348c828d016152e8565b915080935050809150509295985092959850929598565b60006001600160401b0382111561546457615464614f9e565b5060051b60200190565b600082601f83011261548257615482614ddc565b813560206154976154928361544b565b614fb4565b82815260059290921b840181019181810190868411156154b9576154b9614e8e565b8286015b848110156154d457803583529183019183016154bd565b509695505050505050565b600080600080600060a086880312156154fa576154fa614c67565b853561550581614d34565b9450602086013561551581614d34565b935060408601356001600160401b038082111561553457615534614cb7565b61554089838a0161546e565b9450606088013591508082111561555957615559614cb7565b61556589838a0161546e565b9350608088013591508082111561557e5761557e614cb7565b5061558b88828901614fe4565b9150509295509295909350565b600060a08284031215614db657614db6614c67565b600381106155bd576155bd615146565b9052565b608081016155cf82876155ad565b6001600160a01b039490941660208201526040810192909252606090910152919050565b600080600080600060a0868803121561560e5761560e614c67565b853561561981614d34565b9450602086013561562981614d34565b9350604086013592506060860135915060808601356001600160401b0381111561565557615655614cb7565b61558b88828901614fe4565b60008060008060008060a0878903121561567d5761567d614c67565b8635955060208701359450604087013561569681614d34565b935060608701356156a681614d34565b925060808701356001600160401b038111156156c4576156c4614cb7565b6156d089828a016152e8565b979a9699509497509295939492505050565b6020808252600890820152672737ba1037b832b760c11b604082015260600190565b60006020828403121561571957615719614c67565b81516120e481614f34565b80546001600160a01b0319166001600160a01b0392909216919091179055565b813561574f81614d34565b6157598183615724565b50602082013561576881614d34565b6157758160018401615724565b50604082013561578481614d34565b61155a8160028401615724565b634e487b7160e01b600052603260045260246000fd5b634e487b7160e01b600052601160045260246000fd5b6000600182016157cf576157cf6157a7565b5060010190565b6000806000606084860312156157ee576157ee614c67565b83516157f981614d34565b602085015190935061580a81614d34565b6040850151909250614f9381614d34565b81810381811115611218576112186157a7565b80820180821115611218576112186157a7565b8581526001600160a01b03858116602083015284166040820152608060608201819052810182905260006001600160fb1b038311156158c95760405162461bcd60e51b815260206004820152602160248201527f41424920656e636f64696e673a206172726179206461746120746f6f206c6f6e6044820152606760f81b6064820152608481fd5b8260051b808560a08501379190910160a0019695505050505050565b600060208083850312156158fb576158fb614c67565b82516001600160401b0381111561591457615914614cb7565b8301601f8101851361592857615928614ddc565b80516159366154928261544b565b81815260059190911b8201830190838101908783111561595857615958614e8e565b928401925b8284101561598957835163ffffffff8116811461597a5760008081fd5b8252928401929084019061595d565b979650505050505050565b6003811061154257600080fd5b81356159ac81615994565b600381106159bc576159bc615146565b815460ff821691508160ff19821617835560208401356159db81614d34565b6001600160a81b03199190911690911760089190911b610100600160a81b031617815560408201356001820155606090910135600290910155565b600060608284031215615a2b57615a2b614c67565b604051606081018181106001600160401b0382111715615a4d57615a4d614f9e565b6040528235615a5b81614d34565b8152602083810135908201526040928301359281019290925250919050565b81835281816020850137506000828201602090810191909152601f909101601f19169091010190565b8381526040602082015260006141e5604083018486615a7a565b858152846020820152836040820152608060608201526000615989608083018486615a7a565b81546080820190615af78360ff83166155ad565b60081c6001600160a01b031660208301526001830154604083015260029092015460609091015290565b8082028115828204841417611218576112186157a7565b600082615b5557634e487b7160e01b600052601260045260246000fd5b500490565b6000825160005b81811015615b7b5760208186018101518583015201615b61565b506000920191825250919050565b600060208284031215615b9e57615b9e614c67565b5051919050565b600060208284031215615bba57615bba614c67565b81356120e48161599456fe45746865722073656e7420746f206e6f6e2d70617961626c652066756e63746954617267657420636f6e747261637420646f6573206e6f7420636f6e7461696ea264697066735822122028da86f0b59fe432a61a374a9e065061a0c7998c095fb0e888e0c45fe7d90b0664736f6c63430008140033",
  "linkReferences": {},
  "deployedLinkReferences": {}
}