{
  "_format": "hh-sol-artifact-1",
  "contractName": "BetGameStaking",
  "sourceName": "contracts/stake/BetGameStaking.sol",
  "abi": [
    {
      "inputs": [
        {
          "internalType": "address",
          "name": "_game",
          "type": "address"
        }
      ],
      "stateMutability": "nonpayable",
      "type": "constructor"
    },
    {
      "inputs": [],
      "name": "EnforcedPause",
      "type": "error"
    },
    {
      "inputs": [],
      "name": "ExpectedPause",
      "type": "error"
    },
    {
      "inputs": [
        {
          "internalType": "address",
          "name": "owner",
          "type": "address"
        }
      ],
      "name": "OwnableInvalidOwner",
      "type": "error"
    },
    {
      "inputs": [
        {
          "internalType": "address",
          "name": "account",
          "type": "address"
        }
      ],
      "name": "OwnableUnauthorizedAccount",
      "type": "error"
    },
    {
      "inputs": [],
      "name": "ReentrancyGuardReentrantCall",
      "type": "error"
    },
    {
      "anonymous": false,
      "inputs": [
        {
          "indexed": true,
          "internalType": "address",
          "name": "user",
          "type": "address"
        },
        {
          "indexed": false,
          "internalType": "bool",
          "name": "autoCompound",
          "type": "bool"
        }
      ],
      "name": "AutoCompoundSet",
      "type": "event"
    },
    {
      "anonymous": false,
      "inputs": [
        {
          "indexed": true,
          "internalType": "address",
          "name": "sender",
          "type": "address"
        },
        {
          "indexed": false,
          "internalType": "uint256",
          "name": "amount",
          "type": "uint256"
        }
      ],
      "name": "Deposit",
      "type": "event"
    },
    {
      "anonymous": false,
      "inputs": [
        {
          "indexed": true,
          "internalType": "address",
          "name": "user",
          "type": "address"
        },
        {
          "indexed": false,
          "internalType": "uint256",
          "name": "amount",
          "type": "uint256"
        }
      ],
      "name": "EarlyUnstakeFeeDistributed",
      "type": "event"
    },
    {
      "anonymous": false,
      "inputs": [
        {
          "indexed": true,
          "internalType": "address",
          "name": "owner",
          "type": "address"
        },
        {
          "indexed": false,
          "internalType": "uint256",
          "name": "amount",
          "type": "uint256"
        }
      ],
      "name": "EmergencyWithdraw",
      "type": "event"
    },
    {
      "anonymous": false,
      "inputs": [
        {
          "indexed": true,
          "internalType": "address",
          "name": "game",
          "type": "address"
        },
        {
          "indexed": true,
          "internalType": "address",
          "name": "user",
          "type": "address"
        },
        {
          "indexed": false,
          "internalType": "uint256",
          "name": "amount",
          "type": "uint256"
        }
      ],
      "name": "FundsProvidedToBetGame",
      "type": "event"
    },
    {
      "anonymous": false,
      "inputs": [
        {
          "indexed": false,
          "internalType": "uint256",
          "name": "newLockPeriod",
          "type": "uint256"
        }
      ],
      "name": "LockPeriodUpdated",
      "type": "event"
    },
    {
      "anonymous": false,
      "inputs": [
        {
          "indexed": false,
          "internalType": "uint256",
          "name": "newMaxStakeAmount",
          "type": "uint256"
        }
      ],
      "name": "MaxStakeAmountUpdated",
      "type": "event"
    },
    {
      "anonymous": false,
      "inputs": [
        {
          "indexed": true,
          "internalType": "address",
          "name": "previousOwner",
          "type": "address"
        },
        {
          "indexed": true,
          "internalType": "address",
          "name": "newOwner",
          "type": "address"
        }
      ],
      "name": "OwnershipTransferred",
      "type": "event"
    },
    {
      "anonymous": false,
      "inputs": [
        {
          "indexed": false,
          "internalType": "address",
          "name": "account",
          "type": "address"
        }
      ],
      "name": "Paused",
      "type": "event"
    },
    {
      "anonymous": false,
      "inputs": [
        {
          "indexed": true,
          "internalType": "address",
          "name": "user",
          "type": "address"
        },
        {
          "indexed": false,
          "internalType": "uint256",
          "name": "reward",
          "type": "uint256"
        },
        {
          "indexed": false,
          "internalType": "uint256",
          "name": "newStakeAmount",
          "type": "uint256"
        }
      ],
      "name": "RewardCompounded",
      "type": "event"
    },
    {
      "anonymous": false,
      "inputs": [
        {
          "indexed": true,
          "internalType": "address",
          "name": "user",
          "type": "address"
        },
        {
          "indexed": false,
          "internalType": "uint256",
          "name": "reward",
          "type": "uint256"
        }
      ],
      "name": "RewardPaid",
      "type": "event"
    },
    {
      "anonymous": false,
      "inputs": [
        {
          "indexed": false,
          "internalType": "uint256",
          "name": "baseRate",
          "type": "uint256"
        },
        {
          "indexed": false,
          "internalType": "uint256",
          "name": "maxRate",
          "type": "uint256"
        },
        {
          "indexed": false,
          "internalType": "uint256",
          "name": "threshold",
          "type": "uint256"
        }
      ],
      "name": "RewardRatesUpdated",
      "type": "event"
    },
    {
      "anonymous": false,
      "inputs": [
        {
          "indexed": false,
          "internalType": "uint256",
          "name": "period",
          "type": "uint256"
        }
      ],
      "name": "RewardReleasePeriodUpdated",
      "type": "event"
    },
    {
      "anonymous": false,
      "inputs": [
        {
          "indexed": false,
          "internalType": "uint256",
          "name": "amount",
          "type": "uint256"
        },
        {
          "indexed": false,
          "internalType": "uint256",
          "name": "newAccumulatedRewardsPerShare",
          "type": "uint256"
        }
      ],
      "name": "RewardsDistributed",
      "type": "event"
    },
    {
      "anonymous": false,
      "inputs": [
        {
          "indexed": true,
          "internalType": "address",
          "name": "game",
          "type": "address"
        },
        {
          "indexed": false,
          "internalType": "bool",
          "name": "enable",
          "type": "bool"
        }
      ],
      "name": "SetGames",
      "type": "event"
    },
    {
      "anonymous": false,
      "inputs": [
        {
          "indexed": true,
          "internalType": "address",
          "name": "user",
          "type": "address"
        },
        {
          "indexed": false,
          "internalType": "uint256",
          "name": "amount",
          "type": "uint256"
        }
      ],
      "name": "Staked",
      "type": "event"
    },
    {
      "anonymous": false,
      "inputs": [
        {
          "indexed": false,
          "internalType": "address",
          "name": "account",
          "type": "address"
        }
      ],
      "name": "Unpaused",
      "type": "event"
    },
    {
      "anonymous": false,
      "inputs": [
        {
          "indexed": true,
          "internalType": "address",
          "name": "user",
          "type": "address"
        },
        {
          "indexed": false,
          "internalType": "uint256",
          "name": "amount",
          "type": "uint256"
        },
        {
          "indexed": false,
          "internalType": "uint256",
          "name": "fee",
          "type": "uint256"
        },
        {
          "indexed": false,
          "internalType": "uint256",
          "name": "reward",
          "type": "uint256"
        }
      ],
      "name": "Unstaked",
      "type": "event"
    },
    {
      "inputs": [],
      "name": "EARLY_UNSTAKE_FEE",
      "outputs": [
        {
          "internalType": "uint256",
          "name": "",
          "type": "uint256"
        }
      ],
      "stateMutability": "view",
      "type": "function"
    },
    {
      "inputs": [],
      "name": "PRECISION",
      "outputs": [
        {
          "internalType": "uint256",
          "name": "",
          "type": "uint256"
        }
      ],
      "stateMutability": "view",
      "type": "function"
    },
    {
      "inputs": [],
      "name": "addRewards",
      "outputs": [],
      "stateMutability": "payable",
      "type": "function"
    },
    {
      "inputs": [],
      "name": "baseRewardRate",
      "outputs": [
        {
          "internalType": "uint256",
          "name": "",
          "type": "uint256"
        }
      ],
      "stateMutability": "view",
      "type": "function"
    },
    {
      "inputs": [
        {
          "internalType": "address",
          "name": "",
          "type": "address"
        }
      ],
      "name": "betGames",
      "outputs": [
        {
          "internalType": "bool",
          "name": "",
          "type": "bool"
        }
      ],
      "stateMutability": "view",
      "type": "function"
    },
    {
      "inputs": [
        {
          "internalType": "uint256",
          "name": "amount",
          "type": "uint256"
        }
      ],
      "name": "calculateRewardRate",
      "outputs": [
        {
          "internalType": "uint256",
          "name": "",
          "type": "uint256"
        }
      ],
      "stateMutability": "view",
      "type": "function"
    },
    {
      "inputs": [
        {
          "internalType": "address",
          "name": "player",
          "type": "address"
        },
        {
          "internalType": "uint256",
          "name": "amount",
          "type": "uint256"
        }
      ],
      "name": "claimFunds",
      "outputs": [],
      "stateMutability": "nonpayable",
      "type": "function"
    },
    {
      "inputs": [],
      "name": "claimRewards",
      "outputs": [],
      "stateMutability": "nonpayable",
      "type": "function"
    },
    {
      "inputs": [],
      "name": "deposit",
      "outputs": [],
      "stateMutability": "payable",
      "type": "function"
    },
    {
      "inputs": [
        {
          "internalType": "uint256",
          "name": "amount",
          "type": "uint256"
        }
      ],
      "name": "emergencyWithdraw",
      "outputs": [],
      "stateMutability": "nonpayable",
      "type": "function"
    },
    {
      "inputs": [],
      "name": "getAPR",
      "outputs": [
        {
          "internalType": "uint256",
          "name": "",
          "type": "uint256"
        }
      ],
      "stateMutability": "view",
      "type": "function"
    },
    {
      "inputs": [
        {
          "internalType": "address",
          "name": "user",
          "type": "address"
        }
      ],
      "name": "getPendingRewards",
      "outputs": [
        {
          "internalType": "uint256",
          "name": "",
          "type": "uint256"
        }
      ],
      "stateMutability": "view",
      "type": "function"
    },
    {
      "inputs": [],
      "name": "lockPeriod",
      "outputs": [
        {
          "internalType": "uint256",
          "name": "",
          "type": "uint256"
        }
      ],
      "stateMutability": "view",
      "type": "function"
    },
    {
      "inputs": [],
      "name": "maxRewardRate",
      "outputs": [
        {
          "internalType": "uint256",
          "name": "",
          "type": "uint256"
        }
      ],
      "stateMutability": "view",
      "type": "function"
    },
    {
      "inputs": [],
      "name": "maxRewardThreshold",
      "outputs": [
        {
          "internalType": "uint256",
          "name": "",
          "type": "uint256"
        }
      ],
      "stateMutability": "view",
      "type": "function"
    },
    {
      "inputs": [],
      "name": "maxStakeAmount",
      "outputs": [
        {
          "internalType": "uint256",
          "name": "",
          "type": "uint256"
        }
      ],
      "stateMutability": "view",
      "type": "function"
    },
    {
      "inputs": [],
      "name": "owner",
      "outputs": [
        {
          "internalType": "address",
          "name": "",
          "type": "address"
        }
      ],
      "stateMutability": "view",
      "type": "function"
    },
    {
      "inputs": [],
      "name": "pause",
      "outputs": [],
      "stateMutability": "nonpayable",
      "type": "function"
    },
    {
      "inputs": [],
      "name": "paused",
      "outputs": [
        {
          "internalType": "bool",
          "name": "",
          "type": "bool"
        }
      ],
      "stateMutability": "view",
      "type": "function"
    },
    {
      "inputs": [],
      "name": "pool",
      "outputs": [
        {
          "internalType": "uint256",
          "name": "accumulatedRewardsPerShare",
          "type": "uint256"
        },
        {
          "internalType": "uint256",
          "name": "lastUpdateTimestamp",
          "type": "uint256"
        },
        {
          "internalType": "uint256",
          "name": "totalStaked",
          "type": "uint256"
        },
        {
          "internalType": "uint256",
          "name": "totalWeightedStake",
          "type": "uint256"
        },
        {
          "internalType": "uint256",
          "name": "totalRewardsReceived",
          "type": "uint256"
        },
        {
          "internalType": "uint256",
          "name": "totalRewardsDistributed",
          "type": "uint256"
        }
      ],
      "stateMutability": "view",
      "type": "function"
    },
    {
      "inputs": [],
      "name": "renounceOwnership",
      "outputs": [],
      "stateMutability": "nonpayable",
      "type": "function"
    },
    {
      "inputs": [],
      "name": "rewardReleasePeriod",
      "outputs": [
        {
          "internalType": "uint256",
          "name": "",
          "type": "uint256"
        }
      ],
      "stateMutability": "view",
      "type": "function"
    },
    {
      "inputs": [
        {
          "internalType": "bool",
          "name": "_autoCompound",
          "type": "bool"
        }
      ],
      "name": "setAutoCompound",
      "outputs": [],
      "stateMutability": "nonpayable",
      "type": "function"
    },
    {
      "inputs": [
        {
          "internalType": "address",
          "name": "_game",
          "type": "address"
        },
        {
          "internalType": "bool",
          "name": "_enable",
          "type": "bool"
        }
      ],
      "name": "setGames",
      "outputs": [],
      "stateMutability": "nonpayable",
      "type": "function"
    },
    {
      "inputs": [
        {
          "internalType": "uint256",
          "name": "_lockPeriod",
          "type": "uint256"
        }
      ],
      "name": "setLockPeriod",
      "outputs": [],
      "stateMutability": "nonpayable",
      "type": "function"
    },
    {
      "inputs": [
        {
          "internalType": "uint256",
          "name": "_maxStakeAmount",
          "type": "uint256"
        }
      ],
      "name": "setMaxStakeAmount",
      "outputs": [],
      "stateMutability": "nonpayable",
      "type": "function"
    },
    {
      "inputs": [
        {
          "internalType": "uint256",
          "name": "_baseRate",
          "type": "uint256"
        },
        {
          "internalType": "uint256",
          "name": "_maxRate",
          "type": "uint256"
        },
        {
          "internalType": "uint256",
          "name": "_threshold",
          "type": "uint256"
        }
      ],
      "name": "setRewardRates",
      "outputs": [],
      "stateMutability": "nonpayable",
      "type": "function"
    },
    {
      "inputs": [
        {
          "internalType": "uint256",
          "name": "_period",
          "type": "uint256"
        }
      ],
      "name": "setRewardReleasePeriod",
      "outputs": [],
      "stateMutability": "nonpayable",
      "type": "function"
    },
    {
      "inputs": [],
      "name": "stake",
      "outputs": [],
      "stateMutability": "payable",
      "type": "function"
    },
    {
      "inputs": [
        {
          "internalType": "address",
          "name": "",
          "type": "address"
        }
      ],
      "name": "stakes",
      "outputs": [
        {
          "internalType": "uint256",
          "name": "amount",
          "type": "uint256"
        },
        {
          "internalType": "uint256",
          "name": "weightedAmount",
          "type": "uint256"
        },
        {
          "internalType": "uint256",
          "name": "rewardDebt",
          "type": "uint256"
        },
        {
          "internalType": "uint256",
          "name": "lastUpdateTimestamp",
          "type": "uint256"
        },
        {
          "internalType": "bool",
          "name": "autoCompound",
          "type": "bool"
        }
      ],
      "stateMutability": "view",
      "type": "function"
    },
    {
      "inputs": [
        {
          "internalType": "address",
          "name": "newOwner",
          "type": "address"
        }
      ],
      "name": "transferOwnership",
      "outputs": [],
      "stateMutability": "nonpayable",
      "type": "function"
    },
    {
      "inputs": [],
      "name": "unpause",
      "outputs": [],
      "stateMutability": "nonpayable",
      "type": "function"
    },
    {
      "inputs": [],
      "name": "unstake",
      "outputs": [],
      "stateMutability": "nonpayable",
      "type": "function"
    },
    {
      "stateMutability": "payable",
      "type": "receive"
    }
  ],
  "bytecode": "0x608060405262093a80600255683635c9adc5dea000006003556064600455609660055568056bc75e2d6310000060065562127500600755348015620000905760405162461bcd60e51b815260206004820152602260248201527f45746865722073656e7420746f206e6f6e2d70617961626c652066756e637469604482019081526137b760f11b6064830152608482fd5b50604051620025c1380380620025c1833981016040819052620000b39162000178565b60016000553380620000df57604051631e4fbdf760e01b81526000600482015260240160405180910390fd5b620000ea8162000126565b506001805460ff60a01b191681556001600160a01b039091166000908152600f60205260409020805460ff1916909117905542600955620001f5565b600180546001600160a01b038381166001600160a01b0319831681179093556040519116919082907f8be0079c531659141344cd1fd0a4f28419497f9722a3daafe3b4186f6b6457e090600090a35050565b600060208284031215620001d65760405162461bcd60e51b815260206004820152602260248201527f414249206465636f64696e673a207475706c65206461746120746f6f2073686f6044820152611c9d60f21b6064820152608481fd5b81516001600160a01b0381168114620001ee57600080fd5b9392505050565b6123bc80620002056000396000f3fe6080604052600436106101f25760003560e01c80637a2105b71161010d578063a809cefa116100a0578063d0e30db01161006f578063d0e30db014610be1578063dcc2a55e14610be9578063ed2b40ea14610c44578063f2fde38b14610c9f578063f6ed201714610cfa57610201565b8063a809cefa14610a7e578063aaf5eb6814610ae9578063afbf344014610b40578063c89d5b8b14610b9157610201565b80638da5cb5b116100dc5780638da5cb5b1461091e578063a2f2278714610981578063a3353550146109dc578063a70c196614610a2d57610201565b80637a2105b7146107bd5780638141cbde146108185780638456cb591461087357806386593454146108c357610201565b80633a4b66f1116101855780635c975abb116101545780635c975abb1461065b5780635d80ca32146106c1578063715018a614610712578063779972da1461076257610201565b80633a4b66f1146105575780633f4ba83a1461055f5780633fd8b02f146105af5780635312ea8e1461060057610201565b80631e32ba04116101c15780631e32ba041461040b5780632def662014610466578063372500ab146104b657806339efdf6b1461050657610201565b80630d40ffc71461025a57806314d6aed0146102be57806316934fc4146102c657806316f0115b1461037857610201565b36610201576101ff610d55565b005b60405162461bcd60e51b815260206004820152602960248201527f556e6b6e6f776e207369676e617475726520616e64206e6f2066616c6c62616360448201908152681ac81919599a5b995960ba1b6064830152608482fd5b3480156102a15760405162461bcd60e51b81526020600482015260226024820152600080516020612367833981519152604482019081526137b760f11b6064830152608482fd5b506102ab60055481565b6040519081526020015b60405180910390f35b6101ff610d55565b34801561030d5760405162461bcd60e51b81526020600482015260226024820152600080516020612367833981519152604482019081526137b760f11b6064830152608482fd5b5061034e61031c3660046121f7565b600e60205260009081526040902080546001820154600283015460038401546004909401549293919290919060ff1685565b6040805195865260208601949094529284019190915260608301521515608082015260a0016102b5565b3480156103bf5760405162461bcd60e51b81526020600482015260226024820152600080516020612367833981519152604482019081526137b760f11b6064830152608482fd5b50600854600954600a54600b54600c54600d546103de95949392919086565b604080519687526020870195909552938501929092526060840152608083015260a082015260c0016102b5565b3480156104525760405162461bcd60e51b81526020600482015260226024820152600080516020612367833981519152604482019081526137b760f11b6064830152608482fd5b506101ff610461366004612225565b610e86565b3480156104ad5760405162461bcd60e51b81526020600482015260226024820152600080516020612367833981519152604482019081526137b760f11b6064830152608482fd5b506101ff610eee565b3480156104fd5760405162461bcd60e51b81526020600482015260226024820152600080516020612367833981519152604482019081526137b760f11b6064830152608482fd5b506101ff611131565b34801561054d5760405162461bcd60e51b81526020600482015260226024820152600080516020612367833981519152604482019081526137b760f11b6064830152608482fd5b506102ab6101f481565b6101ff611324565b3480156105a65760405162461bcd60e51b81526020600482015260226024820152600080516020612367833981519152604482019081526137b760f11b6064830152608482fd5b506101ff611563565b3480156105f65760405162461bcd60e51b81526020600482015260226024820152600080516020612367833981519152604482019081526137b760f11b6064830152608482fd5b506102ab60025481565b3480156106475760405162461bcd60e51b81526020600482015260226024820152600080516020612367833981519152604482019081526137b760f11b6064830152608482fd5b506101ff61065636600461225b565b611573565b3480156106a25760405162461bcd60e51b81526020600482015260226024820152600080516020612367833981519152604482019081526137b760f11b6064830152608482fd5b50600154600160a01b900460ff165b60405190151581526020016102b5565b3480156107085760405162461bcd60e51b81526020600482015260226024820152600080516020612367833981519152604482019081526137b760f11b6064830152608482fd5b506102ab60035481565b3480156107595760405162461bcd60e51b81526020600482015260226024820152600080516020612367833981519152604482019081526137b760f11b6064830152608482fd5b506101ff61162e565b3480156107a95760405162461bcd60e51b81526020600482015260226024820152600080516020612367833981519152604482019081526137b760f11b6064830152608482fd5b506101ff6107b836600461225b565b611640565b3480156108045760405162461bcd60e51b81526020600482015260226024820152600080516020612367833981519152604482019081526137b760f11b6064830152608482fd5b506101ff610813366004612277565b611684565b34801561085f5760405162461bcd60e51b81526020600482015260226024820152600080516020612367833981519152604482019081526137b760f11b6064830152608482fd5b506101ff61086e36600461225b565b6117cb565b3480156108ba5760405162461bcd60e51b81526020600482015260226024820152600080516020612367833981519152604482019081526137b760f11b6064830152608482fd5b506101ff611863565b34801561090a5760405162461bcd60e51b81526020600482015260226024820152600080516020612367833981519152604482019081526137b760f11b6064830152608482fd5b506101ff6109193660046122a6565b611873565b3480156109655760405162461bcd60e51b81526020600482015260226024820152600080516020612367833981519152604482019081526137b760f11b6064830152608482fd5b506001546040516001600160a01b0390911681526020016102b5565b3480156109c85760405162461bcd60e51b81526020600482015260226024820152600080516020612367833981519152604482019081526137b760f11b6064830152608482fd5b506102ab6109d736600461225b565b611a0c565b348015610a235760405162461bcd60e51b81526020600482015260226024820152600080516020612367833981519152604482019081526137b760f11b6064830152608482fd5b506102ab60065481565b348015610a745760405162461bcd60e51b81526020600482015260226024820152600080516020612367833981519152604482019081526137b760f11b6064830152608482fd5b506102ab60075481565b348015610ac55760405162461bcd60e51b81526020600482015260226024820152600080516020612367833981519152604482019081526137b760f11b6064830152608482fd5b506106b1610ad43660046121f7565b600f6020526000908152604090205460ff1681565b348015610b305760405162461bcd60e51b81526020600482015260226024820152600080516020612367833981519152604482019081526137b760f11b6064830152608482fd5b506102ab670de0b6b3a764000081565b348015610b875760405162461bcd60e51b81526020600482015260226024820152600080516020612367833981519152604482019081526137b760f11b6064830152608482fd5b506102ab60045481565b348015610bd85760405162461bcd60e51b81526020600482015260226024820152600080516020612367833981519152604482019081526137b760f11b6064830152608482fd5b506102ab611a5a565b6101ff611ae4565b348015610c305760405162461bcd60e51b81526020600482015260226024820152600080516020612367833981519152604482019081526137b760f11b6064830152608482fd5b506101ff610c3f36600461225b565b611b89565b348015610c8b5760405162461bcd60e51b81526020600482015260226024820152600080516020612367833981519152604482019081526137b760f11b6064830152608482fd5b506101ff610c9a3660046122c4565b611bc6565b348015610ce65760405162461bcd60e51b81526020600482015260226024820152600080516020612367833981519152604482019081526137b760f11b6064830152608482fd5b506101ff610cf53660046121f7565b611cdb565b348015610d415760405162461bcd60e51b81526020600482015260226024820152600080516020612367833981519152604482019081526137b760f11b6064830152608482fd5b506102ab610d503660046121f7565b611d19565b336000908152600f602052604090205460ff16151560011480610d8257506001546001600160a01b031633145b610dc85760405162461bcd60e51b815260206004820152601260248201527113db9b1e4819d85b594818dbdb9d1c9858dd60721b60448201526064015b60405180910390fd5b60003411610e245760405162461bcd60e51b8152602060048201526024808201527f52657761726420616d6f756e74206d75737420626520677265617465722074686044820152630616e20360e41b6064820152608401610dbf565b610e2c611d24565b3460086004016000828254610e419190612307565b90915550506008546040805134815260208101929092527f29e98ba00d07f171959c4ddcd2f3020debc7c52cf537a034d7e664340d098c6c91015b60405180910390a1565b610e8e611def565b6001600160a01b0382166000818152600f6020908152604091829020805460ff191685151590811790915591519182527f3854f6c43800c5556a0765af4a91a350d4d7b055df55d2674d9341c5a9aedde191015b60405180910390a25050565b610ef6611e1c565b336000908152600e602052604090208054610f4a5760405162461bcd60e51b81526020600482015260146024820152734e6f207374616b6520746f20776974686472617760601b6044820152606401610dbf565b610f52611d24565b6000610f5d33611e46565b825460025460038501549293509091600091610f7891612307565b421015610ff657612710610f8e6101f48461231a565b610f989190612331565b9050610fa48183612353565b91508060086004016000828254610fbb9190612307565b909155505060405181815233907fa51535272d452169b31ccd433cf776165e3b4e78f0c72a3fd5233eed06f32ff99060200160405180910390a25b60006110028484612307565b9050804710156110545760405162461bcd60e51b815260206004820152601d60248201527f496e73756666696369656e7420636f6e74726163742062616c616e63650000006044820152606401610dbf565b6001850154600b541161106857600061107a565b6001850154600b5461107a9190612353565b600b558454600a541161108e57600061109d565b8454600a5461109d9190612353565b600a55336000818152600e6020526040812081815560018101829055600281018290556003810191909155600401805460ff191690556110dd9082611f47565b604080518481526020810184905290810185905233907f204fccf0d92ed8d48f204adb39b2e81e92bad0dedb93f5716ca9478cfb57de009060600160405180910390a2505050505061112f6001600055565b565b611139611e1c565b611141611d24565b600061114c33611e46565b9050600081116111945760405162461bcd60e51b81526020600482015260136024820152724e6f207265776172647320746f20636c61696d60681b6044820152606401610dbf565b336000908152600e60205260409020600481015460ff16156112585780546000906111c0908490612307565b905060006111cd82611fe7565b90508260010154816008600301546111e59190612307565b6111ef9190612353565b600b55600a8054859190600090611207908490612307565b909155505081835560018301819055604080518581526020810184905233917f713df1dd9e3a2f94b02f31d13a23fac9151b529a400d2960d29be7e67b09f7cf910160405180910390a250506112e8565b814710156112a85760405162461bcd60e51b815260206004820152601d60248201527f496e73756666696369656e7420636f6e74726163742062616c616e63650000006044820152606401610dbf565b6112b23383611f47565b60405182815233907fe2403640ba68fed3a2f88b7557551d1993f84b99bb10ff833f0cf8db0c5e04869060200160405180910390a25b4260038201556008546001820154670de0b6b3a7640000916113099161231a565b6113139190612331565b6002909101555061112f6001600055565b61132c611e1c565b61133461203b565b600034116113905760405162461bcd60e51b815260206004820152602360248201527f5374616b6520616d6f756e74206d75737420626520677265617465722074686160448201526206e20360ec1b6064820152608401610dbf565b600354336000908152600e60205260409020546113ae903490612307565b11156113fc5760405162461bcd60e51b815260206004820152601860248201527f45786365656473206d6178207374616b6520616d6f756e7400000000000000006044820152606401610dbf565b611404611d24565b336000908152600e602052604081205461141f903490612307565b9050600061142c82611fe7565b336000908152600e60205260409020549091501561147d57600061144f33611e46565b336000908152600e6020526040812060020180549293508392909190611476908490612307565b9091555050505b34600860020160008282546114929190612307565b9091555050336000908152600e6020526040902060010154600b546114b8908390612307565b6114c29190612353565b600b55336000908152600e602052604090208281556001810182905542600390910155600854670de0b6b3a7640000906114fc908361231a565b6115069190612331565b336000818152600e6020526040908190206002019290925590517f9e71bc8eea02a63969f509818f2dafb9254532904319f9dbda79b67bd34a5f3d9061154f9034815260200190565b60405180910390a2505061112f6001600055565b61156b611def565b61112f612066565b61157b611def565b478111156115c25760405162461bcd60e51b8152602060048201526014602482015273496e73756666696369656e742062616c616e636560601b6044820152606401610dbf565b6115dd6115d76001546001600160a01b031690565b82611f47565b6001546001600160a01b03166001600160a01b03167f5fafa99d0643513820be26656b45130b01e1c03062e1266bf36f88cbd3bd96958260405161162391815260200190565b60405180910390a250565b611636611def565b61112f60006120b6565b611648611def565b60028190556040518181527f8249ec545e68f6f1e1230133ca48c704d831a7f8e635ded80f3dd9e99b09bb2f906020015b60405180910390a150565b61168c611def565b818311156116dc5760405162461bcd60e51b815260206004820152601d60248201527f426173652072617465206d757374206265203c3d206d617820726174650000006044820152606401610dbf565b6103e882111561172e5760405162461bcd60e51b815260206004820181905260248201527f4d617820726174652063616e6e6f742065786365656420313025206461696c796044820152606401610dbf565b600081116117765760405162461bcd60e51b815260206004820152601560248201527405468726573686f6c64206d757374206265203e203605c1b6044820152606401610dbf565b60048390556005829055600681905560408051848152602081018490529081018290527fa4db43d5d1427f29f22bb5a0b1345e07386d1092109a1aab4820afab45cd4df99060600160405180910390a1505050565b6117d3611def565b62093a8081101580156117e9575062278d008111155b61182e5760405162461bcd60e51b8152602060048201526016602482015275125b9d985b1a59081c995b19585cd9481c195c9a5bd960521b6044820152606401610dbf565b60078190556040518181527f0ba8f00ecdac99cf0ad14582810bd5b30d2b6b50e24b565e99ea378b64c6991790602001611679565b61186b611def565b61112f612108565b61187b611d24565b600061188633611e46565b9050801561197657336000908152600e6020526040902060010154821561194c57336000908152600e6020526040812080548492906118c6908490612307565b9091555050336000908152600e60205260409020546118e490611fe7565b336000908152600e6020526040812060010191909155600a805484929061190c908490612307565b9091555050336000908152600e602052604090206001015461192f908290612353565b600b8054600090611941908490612307565b909155506119749050565b336000908152600e60205260408120600201805484929061196e908490612307565b90915550505b505b336000908152600e6020526040902060048101805460ff1916841515179055426003820155600854600190910154670de0b6b3a7640000916119b79161231a565b6119c19190612331565b336000818152600e6020526040908190206002019290925590517f340976c63b0d2b8167206dc5fd284bd24d2b0526ac89867a32450568b6e6d98690610ee290851515815260200190565b60006006548210611a1f57505060055490565b60065482600454600554611a339190612353565b611a3d919061231a565b611a479190612331565b600454611a549190612307565b92915050565b600b546000908103611a6c5750600090565b600d54600c54600091611a7e91612353565b600b54909150600090611a99670de0b6b3a76400008461231a565b611aa39190612331565b905060006007546301e13380611ab99190612331565b90506000611ac7828461231a565b9050611adb670de0b6b3a764000082612331565b94505050505090565b611aec611e1c565b60003411611b4a5760405162461bcd60e51b815260206004820152602560248201527f4465706f73697420616d6f756e74206d75737420626520677265617465722074604482015264068616e20360dc1b6064820152608401610dbf565b60405134815233907fe1fffcc4923d04b559f4d29a8bfc6cda04eb5b0d3c460751c2402c5c5cc9109c9060200160405180910390a261112f6001600055565b611b91611def565b60038190556040518181527f54eb4b63d48d1cd0b132ac5f8945d5e7fa77a2238e2bb533ef3ccb95e7be5d2c90602001611679565b336000908152600f602052604090205460ff16151560011480611bf357506001546001600160a01b031633145b611c345760405162461bcd60e51b815260206004820152601260248201527113db9b1e4819d85b594818dbdb9d1c9858dd60721b6044820152606401610dbf565b611c3c611e1c565b80471015611c835760405162461bcd60e51b8152602060048201526014602482015273496e73756666696369656e742062616c616e636560601b6044820152606401610dbf565b611c8d8282611f47565b6040518181526001600160a01b0383169033907f700a2fef1f2073804552dac90a59584882cf63e366f1194e45e5e28015ecd2e79060200160405180910390a3611cd76001600055565b5050565b611ce3611def565b6001600160a01b038116611d0d57604051631e4fbdf760e01b815260006004820152602401610dbf565b611d16816120b6565b50565b6000611a5482611e46565b600b54600003611d345742600955565b600d54600c54600091611d4691612353565b905080600003611d57575042600955565b600954600090611d679042612353565b90506000611d8d836007548486611d7e919061231a565b611d889190612331565b61214b565b90508015611de657600b54611daa670de0b6b3a76400008361231a565b611db49190612331565b60088054600090611dc6908490612307565b9091555050600d8054829190600090611de0908490612307565b90915550505b50504260095550565b6001546001600160a01b0316331461112f5760405163118cdaa760e01b8152336004820152602401610dbf565b600260005403611e3f57604051633ee5aeb560e01b815260040160405180910390fd5b6002600055565b6001600160a01b0381166000908152600e6020526040812080548203611e6f5750600092915050565b600854600d54600c54600091611e8491612353565b600b5490915015801590611e985750600081115b15611ef557600954600090611ead9042612353565b90506000611ec4836007548486611d7e919061231a565b600b54909150611edc670de0b6b3a76400008361231a565b611ee69190612331565b611ef09085612307565b935050505b6000670de0b6b3a7640000838560010154611f10919061231a565b611f1a9190612331565b905083600201548111611f2e576000611f3d565b6002840154611f3d9082612353565b9695505050505050565b6000826001600160a01b03168260405160006040518083038185875af1925050503d8060008114611f94576040519150601f19603f3d011682016040523d82523d6000602084013e611f99565b606091505b5050905080611fe25760405162461bcd60e51b8152602060048201526015602482015274119d5b991cc81d1c985b9cd9995c8819985a5b1959605a1b6044820152606401610dbf565b505050565b600080611ff383611a0c565b9050670de0b6b3a7640000600454670de0b6b3a76400008386612016919061231a565b612020919061231a565b61202a9190612331565b6120349190612331565b9392505050565b600154600160a01b900460ff161561112f5760405163d93c066560e01b815260040160405180910390fd5b61206e612161565b6001805460ff60a01b191690557f5db9ee0a495bf2e6ff9c91a7834c1ba4fdd244a5e8aa4e537bd38aeae4b073aa335b6040516001600160a01b039091168152602001610e7c565b600180546001600160a01b038381166001600160a01b0319831681179093556040519116919082907f8be0079c531659141344cd1fd0a4f28419497f9722a3daafe3b4186f6b6457e090600090a35050565b61211061203b565b6001805460ff60a01b1916600160a01b1790557f62e78cea01bee320cd4e420270b5ea74000d11b0c9f74754ebdbfc544b05a25861209e3390565b600081831061215a5781612034565b5090919050565b600154600160a01b900460ff1661112f57604051638dfc202b60e01b815260040160405180910390fd5b60405162461bcd60e51b815260206004820152602260248201527f414249206465636f64696e673a207475706c65206461746120746f6f2073686f6044820152611c9d60f21b6064820152608481fd5b80356001600160a01b03811681146121f257600080fd5b919050565b60006020828403121561220c5761220c61218b565b612034826121db565b803580151581146121f257600080fd5b6000806040838503121561223b5761223b61218b565b612244836121db565b915061225260208401612215565b90509250929050565b6000602082840312156122705761227061218b565b5035919050565b60008060006060848603121561228f5761228f61218b565b505081359360208301359350604090920135919050565b6000602082840312156122bb576122bb61218b565b61203482612215565b600080604083850312156122da576122da61218b565b6122e3836121db565b946020939093013593505050565b634e487b7160e01b600052601160045260246000fd5b80820180821115611a5457611a546122f1565b8082028115828204841417611a5457611a546122f1565b60008261234e57634e487b7160e01b600052601260045260246000fd5b500490565b81810381811115611a5457611a546122f156fe45746865722073656e7420746f206e6f6e2d70617961626c652066756e637469a2646970667358221220069977369708f632e4c50c609d3eff80e9f7dee8db82c589017601b7d81d379d64736f6c63430008140033",
  "linkReferences": {},
  "deployedLinkReferences": {}
}