{
  "_format": "hh-sol-artifact-1",
  "contractName": "BinanceVRF",
  "sourceName": "contracts/vrfs/BinanceVRF.sol",
  "abi": [
    {
      "inputs": [
        {
          "internalType": "uint64",
          "name": "_subId",
          "type": "uint64"
        },
        {
          "internalType": "bytes32",
          "name": "_keyHash",
          "type": "bytes32"
        },
        {
          "internalType": "uint32",
          "name": "_callbackGasLimit",
          "type": "uint32"
        },
        {
          "internalType": "uint16",
          "name": "_requestConfirmations",
          "type": "uint16"
        },
        {
          "internalType": "address",
          "name": "_vrfCoordinator",
          "type": "address"
        },
        {
          "internalType": "address",
          "name": "_executor",
          "type": "address"
        }
      ],
      "stateMutability": "nonpayable",
      "type": "constructor"
    },
    {
      "inputs": [
        {
          "internalType": "address",
          "name": "owner",
          "type": "address"
        }
      ],
      "name": "OwnableInvalidOwner",
      "type": "error"
    },
    {
      "inputs": [
        {
          "internalType": "address",
          "name": "account",
          "type": "address"
        }
      ],
      "name": "OwnableUnauthorizedAccount",
      "type": "error"
    },
    {
      "anonymous": false,
      "inputs": [
        {
          "indexed": true,
          "internalType": "address",
          "name": "previousOwner",
          "type": "address"
        },
        {
          "indexed": true,
          "internalType": "address",
          "name": "newOwner",
          "type": "address"
        }
      ],
      "name": "OwnershipTransferred",
      "type": "event"
    },
    {
      "anonymous": false,
      "inputs": [
        {
          "indexed": false,
          "internalType": "uint256",
          "name": "id",
          "type": "uint256"
        },
        {
          "indexed": false,
          "internalType": "uint256",
          "name": "max",
          "type": "uint256"
        },
        {
          "indexed": false,
          "internalType": "uint32",
          "name": "num",
          "type": "uint32"
        },
        {
          "indexed": false,
          "internalType": "uint256",
          "name": "requestId",
          "type": "uint256"
        }
      ],
      "name": "ReqRandomNumber",
      "type": "event"
    },
    {
      "anonymous": false,
      "inputs": [
        {
          "indexed": false,
          "internalType": "uint256",
          "name": "id",
          "type": "uint256"
        },
        {
          "indexed": false,
          "internalType": "uint256",
          "name": "requestId",
          "type": "uint256"
        },
        {
          "indexed": false,
          "internalType": "uint256[]",
          "name": "randomness",
          "type": "uint256[]"
        },
        {
          "indexed": false,
          "internalType": "uint32[]",
          "name": "numbers",
          "type": "uint32[]"
        }
      ],
      "name": "RspRandomNumber",
      "type": "event"
    },
    {
      "inputs": [],
      "name": "EXECUTOR",
      "outputs": [
        {
          "internalType": "contract IRedeem",
          "name": "",
          "type": "address"
        }
      ],
      "stateMutability": "view",
      "type": "function"
    },
    {
      "inputs": [],
      "name": "autoRedeem",
      "outputs": [
        {
          "internalType": "bool",
          "name": "",
          "type": "bool"
        }
      ],
      "stateMutability": "view",
      "type": "function"
    },
    {
      "inputs": [
        {
          "internalType": "uint256",
          "name": "betId",
          "type": "uint256"
        },
        {
          "internalType": "uint256",
          "name": "seed",
          "type": "uint256"
        },
        {
          "internalType": "uint32",
          "name": "num",
          "type": "uint32"
        }
      ],
      "name": "callbackRandomWords",
      "outputs": [],
      "stateMutability": "nonpayable",
      "type": "function"
    },
    {
      "inputs": [],
      "name": "owner",
      "outputs": [
        {
          "internalType": "address",
          "name": "",
          "type": "address"
        }
      ],
      "stateMutability": "view",
      "type": "function"
    },
    {
      "inputs": [
        {
          "internalType": "uint256",
          "name": "",
          "type": "uint256"
        },
        {
          "internalType": "uint256",
          "name": "",
          "type": "uint256"
        }
      ],
      "name": "randomResults",
      "outputs": [
        {
          "internalType": "uint32",
          "name": "",
          "type": "uint32"
        }
      ],
      "stateMutability": "view",
      "type": "function"
    },
    {
      "inputs": [
        {
          "internalType": "uint256",
          "name": "requestId",
          "type": "uint256"
        },
        {
          "internalType": "uint256[]",
          "name": "randomWords",
          "type": "uint256[]"
        }
      ],
      "name": "rawFulfillRandomWords",
      "outputs": [],
      "stateMutability": "nonpayable",
      "type": "function"
    },
    {
      "inputs": [],
      "name": "renounceOwnership",
      "outputs": [],
      "stateMutability": "nonpayable",
      "type": "function"
    },
    {
      "inputs": [
        {
          "internalType": "uint256",
          "name": "betId",
          "type": "uint256"
        },
        {
          "internalType": "uint256",
          "name": "max",
          "type": "uint256"
        },
        {
          "internalType": "uint32",
          "name": "num",
          "type": "uint32"
        }
      ],
      "name": "reqRandomNumber",
      "outputs": [
        {
          "internalType": "bool",
          "name": "",
          "type": "bool"
        }
      ],
      "stateMutability": "nonpayable",
      "type": "function"
    },
    {
      "inputs": [
        {
          "internalType": "uint256",
          "name": "",
          "type": "uint256"
        }
      ],
      "name": "requestIds",
      "outputs": [
        {
          "internalType": "uint256",
          "name": "",
          "type": "uint256"
        }
      ],
      "stateMutability": "view",
      "type": "function"
    },
    {
      "inputs": [
        {
          "internalType": "uint256",
          "name": "",
          "type": "uint256"
        }
      ],
      "name": "requestToMaxNum",
      "outputs": [
        {
          "internalType": "uint256",
          "name": "",
          "type": "uint256"
        }
      ],
      "stateMutability": "view",
      "type": "function"
    },
    {
      "inputs": [
        {
          "internalType": "uint256",
          "name": "",
          "type": "uint256"
        }
      ],
      "name": "requestTobetId",
      "outputs": [
        {
          "internalType": "uint256",
          "name": "",
          "type": "uint256"
        }
      ],
      "stateMutability": "view",
      "type": "function"
    },
    {
      "inputs": [
        {
          "internalType": "bool",
          "name": "_auto",
          "type": "bool"
        }
      ],
      "name": "setAuto",
      "outputs": [],
      "stateMutability": "nonpayable",
      "type": "function"
    },
    {
      "inputs": [
        {
          "internalType": "bytes32",
          "name": "_keyHash",
          "type": "bytes32"
        }
      ],
      "name": "setKeyHash",
      "outputs": [],
      "stateMutability": "nonpayable",
      "type": "function"
    },
    {
      "inputs": [
        {
          "internalType": "uint16",
          "name": "_requestConfirmations",
          "type": "uint16"
        },
        {
          "internalType": "uint32",
          "name": "_callbackGasLimit",
          "type": "uint32"
        }
      ],
      "name": "setParams",
      "outputs": [],
      "stateMutability": "nonpayable",
      "type": "function"
    },
    {
      "inputs": [
        {
          "internalType": "uint64",
          "name": "_subId",
          "type": "uint64"
        }
      ],
      "name": "setSubId",
      "outputs": [],
      "stateMutability": "nonpayable",
      "type": "function"
    },
    {
      "inputs": [
        {
          "internalType": "address",
          "name": "newOwner",
          "type": "address"
        }
      ],
      "name": "transferOwnership",
      "outputs": [],
      "stateMutability": "nonpayable",
      "type": "function"
    },
    {
      "inputs": [
        {
          "internalType": "uint256",
          "name": "betId",
          "type": "uint256"
        }
      ],
      "name": "viewRandomResult",
      "outputs": [
        {
          "internalType": "uint32[]",
          "name": "",
          "type": "uint32[]"
        }
      ],
      "stateMutability": "view",
      "type": "function"
    }
  ],
  "bytecode": "0x60c06040526003805460ff60701b1916600160701b179055348015620000715760405162461bcd60e51b815260206004820152602260248201527f45746865722073656e7420746f206e6f6e2d70617961626c652066756e637469604482019081526137b760f11b6064830152608482fd5b50604051620018c7380380620018c78339810160408190526200009491620001f7565b6001600160a01b0382166080523380620000c857604051631e4fbdf760e01b81526000600482015260240160405180910390fd5b620000d38162000162565b50600180546001600160a01b039384166001600160a01b03199091161790556003805460029690965561ffff909316680100000000000000000261ffff60401b1963ffffffff9095166a010000000000000000000002600165ffffffff000160401b03199096166001600160401b03909716969096179490941792909216939093179092551660a052620002c8565b600080546001600160a01b038381166001600160a01b0319831681178455604051919092169283917f8be0079c531659141344cd1fd0a4f28419497f9722a3daafe3b4186f6b6457e09190a35050565b805163ffffffff81168114620001c757600080fd5b919050565b805161ffff81168114620001c757600080fd5b80516001600160a01b0381168114620001c757600080fd5b60008060008060008060c087890312156200025c5760405162461bcd60e51b815260206004820152602260248201527f414249206465636f64696e673a207475706c65206461746120746f6f2073686f6044820152611c9d60f21b6064820152608481fd5b86516001600160401b03811681146200027457600080fd5b602088015190965094506200028c60408801620001b2565b93506200029c60608801620001cc565b9250620002ac60808801620001df565b9150620002bc60a08801620001df565b90509295509295509295565b60805160a0516115b6620003116000396000818161024501528181610426015281816108c20152818161091c01528181610d5c0152610db60152600061039901526115b66000f3fe608060405234801561005d5760405162461bcd60e51b815260206004820152602260248201527f45746865722073656e7420746f206e6f6e2d70617961626c652066756e637469604482019081526137b760f11b6064830152608482fd5b50600436106101585760003560e01c80638796ba8c116100ef578063b9617ccf116100be578063b9617ccf1461030d578063cf129c7f14610320578063d76e83aa14610333578063f2fde38b1461035b578063f9a5d00d1461036e57610158565b80638796ba8c1461029b5780638da5cb5b146102c957806398544710146102da5780639b3571dc146102ed57610158565b8063463fb8c61161012b578063463fb8c614610220578063630dc7cb14610240578063715018a61461027f57806374b886fb1461028757610158565b80631fe543e3146101bd5780632634d7b1146101d25780633d9d596b146101fa5780633e2831fe1461020d575b60405162461bcd60e51b815260206004820152603560248201527f436f6e747261637420646f6573206e6f7420686176652066616c6c6261636b2060448201908152746e6f7220726563656976652066756e6374696f6e7360581b6064830152608482fd5b6101d06101cb366004610ff8565b61038e565b005b6101e56101e0366004611180565b610419565b60405190151581526020015b60405180910390f35b6101d0610208366004611180565b6106ac565b6101d061021b3660046111b8565b610a2e565b61023361022e3660046111ec565b610a5a565b6040516101f19190611208565b6102677f000000000000000000000000000000000000000000000000000000000000000081565b6040516001600160a01b0390911681526020016101f1565b6101d0610ae8565b6003546101e590600160701b900460ff1681565b6102bb6102a93660046111ec565b60076020526000908152604090205481565b6040519081526020016101f1565b6000546001600160a01b0316610267565b6101d06102e83660046111ec565b610afc565b6102bb6102fb3660046111ec565b60056020526000908152604090205481565b6101d061031b366004611252565b610b09565b6101d061032e366004611291565b610b5b565b6103466103413660046112b6565b610b81565b60405163ffffffff90911681526020016101f1565b6101d06103693660046112db565b610bca565b6102bb61037c3660046111ec565b60066020526000908152604090205481565b336001600160a01b037f0000000000000000000000000000000000000000000000000000000000000000161461040b5760405162461bcd60e51b815260206004820152601960248201527f4f6e6c79436f6f7264696e61746f7243616e46756c66696c6c0000000000000060448201526064015b60405180910390fd5b6104158282610c08565b5050565b6000336001600160a01b037f000000000000000000000000000000000000000000000000000000000000000016146104835760405162461bcd60e51b815260206004820152600d60248201526c27b7363c9032bc32b1baba37b960991b6044820152606401610402565b600083116104c75760405162461bcd60e51b8152602060048201526011602482015270125b9d985b1a59081b585e081a5b9c1d5d607a1b6044820152606401610402565b600084815260076020526040902054156105175760405162461bcd60e51b8152602060048201526011602482015270111d5c1b1a58d85d19481c995c5d595cdd607a1b6044820152606401610402565b6001546002546003546040516305d3b1d360e41b8152600481019290925267ffffffffffffffff81166024830152600160401b810461ffff166044830152600160501b900463ffffffff9081166064830152841660848201526000916001600160a01b031690635d3b1d309060a401602060405180830381600087803b1580156105f05760405162461bcd60e51b815260206004820152602560248201527f54617267657420636f6e747261637420646f6573206e6f7420636f6e7461696e604482019081526420636f646560d81b6064830152608482fd5b505af1158015610604573d6000803e3d6000fd5b505050506040513d601f19601f820116820180604052508101906106289190611307565b6000818152600560209081526040808320899055600682528083208890558883526007825291829020839055815188815290810187905263ffffffff8616818301526060810183905290519192507fea18974bee836537692a4d9eb2b34fa3a66564b05148b01b0ca8df7f3acacb38919081900360800190a1506001949350505050565b6106b4610ebc565b6000838152600760205260409020546107015760405162461bcd60e51b815260206004820152600f60248201526e14995c5d5a5c99481c995c5d595cdd608a1b6044820152606401610402565b6000838152600460205260409020541561074e5760405162461bcd60e51b815260206004820152600e60248201526d111d5c1b1a58d85d194818d85b1b60921b6044820152606401610402565b6000838152600760205260408120549063ffffffff831667ffffffffffffffff81111561077d5761077d610f89565b6040519080825280602002602001820160405280156107a6578160200160208202803683370190505b50905060005b8363ffffffff168110156108bf5760035460009086904290449043906107dd90600160401b900461ffff1682611339565b604080516020810196909652850193909352606084019190915260808301524060a082015260c0016040516020818303038152906040528051906020012060001c90508083838151811061083357610833611352565b602090810291909101810191909152600088815260048252604080822087835260069093529020546108659083611368565b61087090600161138a565b8154600181018355600092835260209092206008830401805460079093166004026101000a63ffffffff81810219909416929093169290920217905550806108b78161139d565b9150506107ac565b507f00000000000000000000000000000000000000000000000000000000000000006001600160a01b0316158015906109015750600354600160701b900460ff165b156109d15760405163db006a7560e01b8152600481018690527f00000000000000000000000000000000000000000000000000000000000000006001600160a01b03169063db006a7590602401600060405180830381600087803b1580156109b85760405162461bcd60e51b815260206004820152602560248201527f54617267657420636f6e747261637420646f6573206e6f7420636f6e7461696e604482019081526420636f646560d81b6064830152608482fd5b505af11580156109cc573d6000803e3d6000fd5b505050505b60008581526005602090815260408083205460049092529182902091517f8c5156ec5f43e17f33c40a763d825c92b1dfc44e4ef079c1c8aa1768a18f491a92610a1f928992909186916113b6565b60405180910390a15050505050565b610a36610ebc565b6003805467ffffffffffffffff191667ffffffffffffffff92909216919091179055565b600081815260046020908152604091829020805483518184028101840190945280845260609392830182828015610adc57602002820191906000526020600020906000905b82829054906101000a900463ffffffff1663ffffffff1681526020019060040190602082600301049283019260010382029150808411610a9f5790505b50505050509050919050565b610af0610ebc565b610afa6000610ee9565b565b610b04610ebc565b600255565b610b11610ebc565b6003805463ffffffff909216600160501b0263ffffffff60501b1961ffff909416600160401b02939093166dffffffffffff00000000000000001990921691909117919091179055565b610b63610ebc565b60038054911515600160701b0260ff60701b19909216919091179055565b60046020528160005260406000208181548110610b9d57600080fd5b9060005260206000209060089182820401919006600402915091509054906101000a900463ffffffff1681565b610bd2610ebc565b6001600160a01b038116610bfc57604051631e4fbdf760e01b815260006004820152602401610402565b610c0581610ee9565b50565b60008281526005602052604090205480610c645760405162461bcd60e51b815260206004820152601860248201527f57726f6e67206265744964206f722072657175657374496400000000000000006044820152606401610402565b60008181526004602052604090205415610cb15760405162461bcd60e51b815260206004820152600e60248201526d111d5c1b1a58d85d194818d85b1b60921b6044820152606401610402565b60005b8251811015610d595760008281526004602090815260408083208784526006909252909120548451859084908110610cee57610cee611352565b6020026020010151610d009190611368565b610d0b90600161138a565b8154600181018355600092835260209092206008830401805460079093166004026101000a63ffffffff81810219909416929093169290920217905580610d518161139d565b915050610cb4565b507f00000000000000000000000000000000000000000000000000000000000000006001600160a01b031615801590610d9b5750600354600160701b900460ff165b15610e6b5760405163db006a7560e01b8152600481018290527f00000000000000000000000000000000000000000000000000000000000000006001600160a01b03169063db006a7590602401600060405180830381600087803b158015610e525760405162461bcd60e51b815260206004820152602560248201527f54617267657420636f6e747261637420646f6573206e6f7420636f6e7461696e604482019081526420636f646560d81b6064830152608482fd5b505af1158015610e66573d6000803e3d6000fd5b505050505b6000818152600460205260409081902090517f8c5156ec5f43e17f33c40a763d825c92b1dfc44e4ef079c1c8aa1768a18f491a91610eaf91849187918791906113b6565b60405180910390a1505050565b6000546001600160a01b03163314610afa5760405163118cdaa760e01b8152336004820152602401610402565b600080546001600160a01b038381166001600160a01b0319831681178455604051919092169283917f8be0079c531659141344cd1fd0a4f28419497f9722a3daafe3b4186f6b6457e09190a35050565b60405162461bcd60e51b815260206004820152602260248201527f414249206465636f64696e673a207475706c65206461746120746f6f2073686f6044820152611c9d60f21b6064820152608481fd5b634e487b7160e01b600052604160045260246000fd5b60405162461bcd60e51b815260206004820152602b60248201527f414249206465636f64696e673a20696e76616c69642063616c6c64617461206160448201526a727261792073747269646560a81b6064820152608481fd5b6000806040838503121561100e5761100e610f39565b8235915060208084013567ffffffffffffffff808211156110795760405162461bcd60e51b815260048101849052602260248201527f414249206465636f64696e673a20696e76616c6964207475706c65206f666673604482015261195d60f21b6064820152608481fd5b818601915086601f8301126110e15760405162461bcd60e51b815260048101849052602b60248201527f414249206465636f64696e673a20696e76616c69642063616c6c64617461206160448201526a1c9c985e481bd9999cd95d60aa1b6064820152608481fd5b8135818111156110f3576110f3610f89565b8060051b604051601f19603f8301168101818110858211171561111857611118610f89565b60405291825284820192508381018501918983111561113957611139610f9f565b938501935b828510156111575784358452938501939285019261113e565b8096505050505050509250929050565b803563ffffffff8116811461117b57600080fd5b919050565b60008060006060848603121561119857611198610f39565b83359250602084013591506111af60408501611167565b90509250925092565b6000602082840312156111cd576111cd610f39565b813567ffffffffffffffff811681146111e557600080fd5b9392505050565b60006020828403121561120157611201610f39565b5035919050565b6020808252825182820181905260009190848201906040850190845b8181101561124657835163ffffffff1683529284019291840191600101611224565b50909695505050505050565b6000806040838503121561126857611268610f39565b823561ffff8116811461127a57600080fd5b915061128860208401611167565b90509250929050565b6000602082840312156112a6576112a6610f39565b813580151581146111e557600080fd5b600080604083850312156112cc576112cc610f39565b50508035926020909101359150565b6000602082840312156112f0576112f0610f39565b81356001600160a01b03811681146111e557600080fd5b60006020828403121561131c5761131c610f39565b5051919050565b634e487b7160e01b600052601160045260246000fd5b8181038181111561134c5761134c611323565b92915050565b634e487b7160e01b600052603260045260246000fd5b60008261138557634e487b7160e01b600052601260045260246000fd5b500690565b8082018082111561134c5761134c611323565b6000600182016113af576113af611323565b5060010190565b60006080808301878452602087818601526040838187015282885180855260a094508488019150838a0160005b828110156113ff578151845292850192908501906001016113e3565b50505060608782038189015281895461141c818590815260200190565b60008c81526020812095509092505b8160078201101561149957845463ffffffff808216855281891c81168986015281881c81168886015281861c811686860152818b1c81168b860152818a1c81168a86015260c082811c9091169085015260e090811c908401526001909401936101009092019160080161142b565b935493818110156114b55763ffffffff85168352918601916001015b818110156114d05784871c63ffffffff168352918601916001015b818110156114eb5784861c63ffffffff168352918601916001015b818110156115065784841c63ffffffff168352918601916001015b818110156115215784891c63ffffffff168352918601916001015b8181101561153c5784881c63ffffffff168352918601916001015b818110156115595760c085901c63ffffffff168352918601916001015b8181101561156d5760e085901c8352918601915b50909d9c5050505050505050505050505056fea2646970667358221220892fef16bf464d43028902f0dce60793867d6116c1b06294138b160cf4bb824c64736f6c63430008140033",
  "linkReferences": {},
  "deployedLinkReferences": {}
}