{
  "_format": "hh-sol-artifact-1",
  "contractName": "Referral",
  "sourceName": "contracts/common/Referral.sol",
  "abi": [
    {
      "inputs": [
        {
          "internalType": "address",
          "name": "_operator",
          "type": "address"
        }
      ],
      "stateMutability": "nonpayable",
      "type": "constructor"
    },
    {
      "inputs": [
        {
          "internalType": "address",
          "name": "owner",
          "type": "address"
        }
      ],
      "name": "OwnableInvalidOwner",
      "type": "error"
    },
    {
      "inputs": [
        {
          "internalType": "address",
          "name": "account",
          "type": "address"
        }
      ],
      "name": "OwnableUnauthorizedAccount",
      "type": "error"
    },
    {
      "anonymous": false,
      "inputs": [
        {
          "indexed": true,
          "internalType": "address",
          "name": "user",
          "type": "address"
        },
        {
          "indexed": true,
          "internalType": "address",
          "name": "referrer",
          "type": "address"
        }
      ],
      "name": "BindReferrer",
      "type": "event"
    },
    {
      "anonymous": false,
      "inputs": [
        {
          "indexed": true,
          "internalType": "address",
          "name": "previousOwner",
          "type": "address"
        },
        {
          "indexed": true,
          "internalType": "address",
          "name": "newOwner",
          "type": "address"
        }
      ],
      "name": "OwnershipTransferred",
      "type": "event"
    },
    {
      "inputs": [
        {
          "internalType": "address",
          "name": "_user",
          "type": "address"
        }
      ],
      "name": "getReferrer",
      "outputs": [
        {
          "internalType": "address",
          "name": "",
          "type": "address"
        },
        {
          "internalType": "address",
          "name": "",
          "type": "address"
        },
        {
          "internalType": "address",
          "name": "",
          "type": "address"
        }
      ],
      "stateMutability": "view",
      "type": "function"
    },
    {
      "inputs": [
        {
          "internalType": "address",
          "name": "",
          "type": "address"
        }
      ],
      "name": "operators",
      "outputs": [
        {
          "internalType": "bool",
          "name": "",
          "type": "bool"
        }
      ],
      "stateMutability": "view",
      "type": "function"
    },
    {
      "inputs": [],
      "name": "owner",
      "outputs": [
        {
          "internalType": "address",
          "name": "",
          "type": "address"
        }
      ],
      "stateMutability": "view",
      "type": "function"
    },
    {
      "inputs": [
        {
          "internalType": "address",
          "name": "",
          "type": "address"
        }
      ],
      "name": "referrals",
      "outputs": [
        {
          "internalType": "address",
          "name": "referrer",
          "type": "address"
        },
        {
          "internalType": "address",
          "name": "referree",
          "type": "address"
        }
      ],
      "stateMutability": "view",
      "type": "function"
    },
    {
      "inputs": [],
      "name": "renounceOwnership",
      "outputs": [],
      "stateMutability": "nonpayable",
      "type": "function"
    },
    {
      "inputs": [
        {
          "internalType": "address",
          "name": "_addr",
          "type": "address"
        },
        {
          "internalType": "bool",
          "name": "_enable",
          "type": "bool"
        }
      ],
      "name": "setOperator",
      "outputs": [],
      "stateMutability": "nonpayable",
      "type": "function"
    },
    {
      "inputs": [
        {
          "internalType": "address",
          "name": "_user",
          "type": "address"
        },
        {
          "internalType": "address",
          "name": "_referrer",
          "type": "address"
        }
      ],
      "name": "setReferrer",
      "outputs": [
        {
          "internalType": "bool",
          "name": "",
          "type": "bool"
        }
      ],
      "stateMutability": "nonpayable",
      "type": "function"
    },
    {
      "inputs": [
        {
          "internalType": "address",
          "name": "newOwner",
          "type": "address"
        }
      ],
      "name": "transferOwnership",
      "outputs": [],
      "stateMutability": "nonpayable",
      "type": "function"
    }
  ],
  "bytecode": "0x608060405234801561005d5760405162461bcd60e51b815260206004820152602260248201527f45746865722073656e7420746f206e6f6e2d70617961626c652066756e637469604482019081526137b760f11b6064830152608482fd5b5060405161095c38038061095c83398101604081905261007c9161014f565b33806100a257604051631e4fbdf760e01b81526000600482015260240160405180910390fd5b6100ab816100ff565b50336000908152600260205260409020805460ff191660011790556001600160a01b038116156100f9576001600160a01b0381166000908152600260205260409020805460ff191660011790555b506101ca565b600080546001600160a01b038381166001600160a01b0319831681178455604051919092169283917f8be0079c531659141344cd1fd0a4f28419497f9722a3daafe3b4186f6b6457e09190a35050565b6000602082840312156101ac5760405162461bcd60e51b815260206004820152602260248201527f414249206465636f64696e673a207475706c65206461746120746f6f2073686f6044820152611c9d60f21b6064820152608481fd5b81516001600160a01b03811681146101c357600080fd5b9392505050565b610783806101d96000396000f3fe608060405234801561005d5760405162461bcd60e51b815260206004820152602260248201527f45746865722073656e7420746f206e6f6e2d70617961626c652066756e637469604482019081526137b760f11b6064830152608482fd5b50600436106100d55760003560e01c80638da5cb5b116100a85780638da5cb5b146101cc5780639ca423b3146101e7578063bbddaca31461023b578063f2fde38b1461024e576100d5565b806313e7c9d81461013a5780634a9fefc714610172578063558a7297146101af578063715018a6146101c4575b60405162461bcd60e51b815260206004820152603560248201527f436f6e747261637420646f6573206e6f7420686176652066616c6c6261636b2060448201908152746e6f7220726563656976652066756e6374696f6e7360581b6064830152608482fd5b61015d6101483660046106b3565b60026020526000908152604090205460ff1681565b60405190151581526020015b60405180910390f35b6101856101803660046106b3565b610261565b604080516001600160a01b0394851681529284166020840152921691810191909152606001610169565b6101c26101bd3660046106d8565b6102db565b005b6101c2610358565b6000546040516001600160a01b039091168152602001610169565b61021b6101f53660046106b3565b600160208190526000918252604090912080549101546001600160a01b03918216911682565b604080516001600160a01b03938416815292909116602083015201610169565b61015d610249366004610717565b61036c565b6101c261025c3660046106b3565b61058c565b6001600160a01b03808216600090815260016020526040812054909182918291168181156102a9576001600160a01b03808316600090815260016020526040902054166102ac565b60005b6001600160a01b0396871660009081526001602081905260409091200154929790969290921694509092505050565b6102e36105ca565b6001600160a01b03821661032d5760405162461bcd60e51b815260206004820152600c60248201526b24b73b30b634b21030b2323960a11b60448201526064015b60405180910390fd5b6001600160a01b03919091166000908152600260205260409020805460ff1916911515919091179055565b6103606105ca565b61036a60006105f7565b565b6000826001600160a01b0316826001600160a01b0316036103c25760405162461bcd60e51b815260206004820152601060248201526f24b73b30b634b2103932b332b93932b960811b6044820152606401610324565b6001600160a01b0382163b156104055760405162461bcd60e51b81526020600482015260086024820152674f6e6c7920454f4160c01b6044820152606401610324565b3360009081526002602052604090205460ff166104545760405162461bcd60e51b815260206004820152600d60248201526c2737903832b936b4b9b9b4b7b760991b6044820152606401610324565b6001600160a01b038381166000908152600160205260409020541615801561049857506001600160a01b038381166000908152600160208190526040909120015416155b6104d35760405162461bcd60e51b815260206004820152600c60248201526b105b1c9958591e48109a5b9960a21b6044820152606401610324565b6001600160a01b03838116600090815260016020819052604080832080546001600160a01b0319168786169081179091558352909120015416610543576001600160a01b0382811660009081526001602081905260409091200180546001600160a01b0319169185169190911790555b816001600160a01b0316836001600160a01b03167ffd43abdc1b330cff3a3b1571cb7ed7f3040abee39dcefeba0df4cf342fb8203060405160405180910390a350600192915050565b6105946105ca565b6001600160a01b0381166105be57604051631e4fbdf760e01b815260006004820152602401610324565b6105c7816105f7565b50565b6000546001600160a01b0316331461036a5760405163118cdaa760e01b8152336004820152602401610324565b600080546001600160a01b038381166001600160a01b0319831681178455604051919092169283917f8be0079c531659141344cd1fd0a4f28419497f9722a3daafe3b4186f6b6457e09190a35050565b60405162461bcd60e51b815260206004820152602260248201527f414249206465636f64696e673a207475706c65206461746120746f6f2073686f6044820152611c9d60f21b6064820152608481fd5b80356001600160a01b03811681146106ae57600080fd5b919050565b6000602082840312156106c8576106c8610647565b6106d182610697565b9392505050565b600080604083850312156106ee576106ee610647565b6106f783610697565b91506020830135801515811461070c57600080fd5b809150509250929050565b6000806040838503121561072d5761072d610647565b61073683610697565b915061074460208401610697565b9050925092905056fea26469706673582212205887bea8268ac8be5df673290e496be17e613e55be98659cbaf253f6fc802b9364736f6c63430008140033",
  "linkReferences": {},
  "deployedLinkReferences": {}
}